:100000000C94B3000C94D4000C94D4000C94D40041
:100010000C94D4000C94D4000C94D4000C94D40010
:100020000C94D4000C94D4000C94D4000C94D40000
:100030000C94D4000C94D4000C94D4000C94D400F0
:100040000C94D4000C94D4000C94D4000C94D400E0
:100050000C94D4000C94D4000C94D4000C94D400D0
:100060000C94D4000C94D4000C94D4000C94D400C0
:100070000C94D4000C94A9020C94D4000C94D400D9
:100080000C94D4000C94D4000C94D4000C94BC03B5
:100090000C94D4000C94D4000C94D4000C94D40090
:1000A0000C94D4000C94D4000C94D4000C94D40080
:1000B0000C94D4000C94D4000C94D4000C94D40070
:1000C0000C94D4000C94D4000C94D4000C94D40060
:1000D0000C94D4000C94D4000C94D4000C94D40050
:1000E0000C94D40007634236B79BD8A71A396856D8
:1000F00018AEBAAB558C1D3CB7CC5763BD6DEDFD4A
:10010000753EF6177231BF000000803F0800000006
:10011000BE922449123EABAAAA2ABECDCCCC4C3EFC
:1001200000000080BEABAAAAAA3E00000000BF00EB
:100130000000803F0000000000084178D3BB4387E7
:10014000D1133D190E3CC3BD4282AD2B3E68EC82FB
:1001500076BED98FE1A93E4C80EFFFBE01C4FF7F80
:100160003F000000000011241FBECFEFD1E2DEBF30
:10017000CDBF00E00CBF12E0A0E0B2E0EAE5F0E1A4
:1001800000E00BBF02C007900D92A032B107D9F773
:1001900022E0A0E2B2E001C01D92A632B207E1F770
:1001A0000E9424040C942B080C940000CF93DF933E
:1001B000CDB7DEB781E091E0FC01208181E091E0E4
:1001C0002062FC01208381E091E0FC01208181E03C
:1001D00091E02061FC01208383E390E0FC01208119
:1001E00083E390E02062FC01208382E091E0FC0147
:1001F000208182E091E02F7EFC01208384E390E067
:10020000FC01208184E390E02F7DFC01208300002D
:10021000DF91CF910895CF93DF9300D00F920F928B
:10022000CDB7DEB78D831A82198239C08D81082E31
:10023000000C990B817099279C838B838D81859508
:100240008D838B819C81009751F082E091E0FC01CD
:10025000208182E091E02062FC01208309C082E0DD
:1002600091E0FC01208182E091E02F7DFC01208360
:1002700082E091E0FC01208182E091E02061FC01BC
:10028000208382E091E0FC01208182E091E02F7EDA
:10029000FC01208389819A8101969A8389838981CF
:1002A0009A818730910511F208F2000000000F904A
:1002B0000F900F900F900F90DF91CF910895CF93F3
:1002C000DF930F920F92CDB7DEB79A83898380E1D7
:1002D00090E0098002C0880F991F0A94E2F70E94FB
:1002E0000B0100000F900F90DF91CF910895CF93F5
:1002F000DF9300D0CDB7DEB789837B836A838981A2
:100300000E940B018A819B810E945F0184E390E03F
:10031000FC01208184E390E02062FC01208384E3DF
:1003200090E0FC01208184E390E02F7DFC0120839C
:1003300000000F900F900F90DF91CF910895CF9311
:10034000DF93CDB7DEB7AC970FB6F894DEBF0FBE24
:10035000CDBF988F8F8B88EE93E09A8389831C8220
:100360001B8283E090E09E838D83E3C029813A81E4
:100370008F89988DB9010E943104CB01AC019A019B
:10038000ADECBCEC0E9459049C013695279536953E
:10039000279536952795C901880F991F880F991FB2
:1003A000820F931F880F991F9A01281B390B3887DA
:1003B0002F838F819885009751F48B819C810097C2
:1003C00031F489819A818130910509F0A3C08F8130
:1003D0009885880F991F80509E4FDC018D919C91CC
:1003E000282F8D819E81BC01822F0E94770180E0A1
:1003F00090E0A0E8BFE389879A87AB87BC8720E0BD
:1004000030E04AE755E469857A858B859C850E94B2
:1004100032056D8F7E8F8F8F98A38D8D9E8DAF8DC2
:10042000B8A18D879E87AF87B88B20E030E040E889
:100430005FE36D857E858F8598890E946804882397
:100440002CF481E090E09A8B898B55C020E03FEF3F
:100450004FE757E46D857E858F8598890E942D052D
:100460008823D9F1D4F120E030E040E251E46985FD
:100470007A858B859C850E94320569A37AA38BA31C
:100480009CA389A19AA1ABA1BCA1898F9A8FAB8FA4
:10049000BC8F698D7A8D8B8D9C8D0E9474046DA3A9
:1004A0007EA38FA398A7ADA1BEA1BA8BA98B10C0C4
:1004B00080E991E09C8B8B8B8B899C890197F1F76C
:1004C0009C8B8B8B000089899A8901979A8B898BE9
:1004D00089899A89009761F719C06D857E858F8516
:1004E00098890E94740469A77AA78BA79CA7E9A59D
:1004F000FAA5FA8BE98B89899A899E8B8D8B8D89D8
:100500009E890197F1F79E8B8D8B000081E090E032
:100510009C838B8389819A812AE030E0B9010E9413
:100520004504CB019A8389838D819E8101979E83A7
:100530008D838D819E8199230CF018CF00000000DF
:10054000AC960FB6F894DEBF0FBECDBFDF91CF9152
:1005500008951F920F920FB60F9211240BB60F92AF
:100560002F933F934F935F936F937F938F939F93BB
:10057000AF93BF93EF93FF93CF93DF93CDB7DEB7E6
:10058000A897DEBFCDBF88E790E0DC018C91282FD3
:1005900030E089E790E0FC018081882F90E0982F7F
:1005A0008827820F931F90932102809320028091CD
:1005B0002002909121029C01990F440B550B2D8B29
:1005C0003E8B4F8B588F6D897E898F89988D0E94C5
:1005D000A50469837A838B839C8320E030E040EA22
:1005E0005BE369817A818B819C810E943205698FEE
:1005F0007A8F8B8F9C8F898D9A8DAB8DBC8D8D83DF
:100600009E83AF83B8872DED34E246E95FEB6D81C1
:100610007E818F8198850E949F0569877A878B8765
:100620009C872DE637EE4FEE51E469857A858B8500
:100630009C850E9432056D8F7E8F8F8F98A32D8DA4
:100640003E8D4F8D58A12D873E874F87588B20E0D8
:1006500030E048EC52E46D857E858F8598890E9454
:10066000320569A37AA38BA39CA389A19AA1ABA10C
:10067000BCA1898B9A8BAB8BBC8B69897A898B895E
:100680009C890E946D046DA37EA38FA398A78DA162
:100690009EA190932302809322020000A8960FB699
:1006A000F894DEBF0FBECDBFDF91CF91FF91EF91E8
:1006B000BF91AF919F918F917F916F915F914F917A
:1006C0003F912F910F900BBE0F900FBE0F901F9078
:1006D0001895CF93DF93CDB7DEB78CE790E020E499
:1006E000FC0120838CE790E0FC0120818CE790E006
:1006F0002760FC0120838AE790E027E0FC0120834B
:100700008AE790E0FC0120818AE790E02068FC0104
:1007100020838AE790E0FC0120818AE790E028604E
:10072000FC0120830000DF91CF910895CF93DF93E8
:10073000CDB7DEB78AE790E0FC0120818AE790E040
:100740002064FC0120830000DF91CF910895CF93B6
:10075000DF93CDB7DEB78AE790E0FC018081882F78
:1007600090E08074992721E0009709F020E0822F23
:1007700090E0DF91CF9108951F920F920FB60F92E4
:1007800011240BB60F922F933F934F935F936F9368
:100790007F938F939F93AF93BF93EF93FF93CF93E9
:1007A000DF93CDB7DEB784E990E02CED3BE0FC01B0
:1007B000318320830E9496030000DF91CF91FF9147
:1007C000EF91BF91AF919F918F917F916F915F91C9
:1007D0004F913F912F910F900BBE0F900FBE0F9036
:1007E0001F901895CF93DF93CDB7DEB784E990E0E3
:1007F0002CED3BE0FC013183208381E790E021E098
:10080000FC0120830000DF91CF910895CF93DF9307
:10081000CDB7DEB781E990E024E0FC012083000041
:10082000DF91CF910895CF93DF93CDB7DEB70E94CC
:10083000D6000E9469030E94F2030E940604789485
:100840000000DF91CF910895CF93DF93CDB7DEB74E
:100850000E94130480912202909123020E949F0122
:10086000F9CFAA1BBB1B51E107C0AA1FBB1FA617CC
:10087000B70710F0A61BB70B881F991F5A95A9F749
:1008800080959095BC01CD01089597FB072E16F435
:10089000009407D077FD09D00E94310407FC05D0F1
:1008A0003EF4909581959F4F0895709561957F4F87
:1008B0000895A29FB001B39FC001A39F700D811D39
:1008C0001124911DB29F700D811D1124911D089559
:1008D0000E94E00408F481E008950E947404689482
:1008E000B1110C94270508950E940C0588F09F57BC
:1008F00098F0B92F9927B751B0F0E1F0660F771F44
:10090000881F991F1AF0BA95C9F714C0B13091F039
:100910000E942605B1E008950C942605672F782FD4
:100920008827B85F39F0B93FCCF3869577956795FE
:10093000B395D9F73EF490958095709561957F4F6A
:100940008F4F9F4F0895E89409C097FB3EF4909510
:100950008095709561957F4F8F4F9F4F9923A9F098
:10096000F92F96E9BB279395F69587957795679527
:10097000B795F111F8CFFAF4BB0F11F460FF1BC06B
:100980006F5F7F4F8F4F9F4F16C0882311F096E9FE
:1009900011C0772321F09EE8872F762F05C06623AC
:1009A00071F096E8862F70E060E02AF09A95660F65
:1009B000771F881FDAF7880F9695879597F908951E
:1009C000990F0008550FAA0BE0E8FEEF1616170660
:1009D000E807F907C0F012161306E407F50798F0C8
:1009E000621B730B840B950B39F40A2661F0232BE1
:1009F000242B252B21F408950A2609F4A140A6955D
:100A00008FEF811D811D089557FD9058440F551F8C
:100A100059F05F3F71F04795880F97FB991F61F080
:100A20009F3F79F087950895121613061406551FF7
:100A3000F2CF4695F1DF08C0161617061806991F63
:100A4000F1CF86957105610508940895E894BB2758
:100A500066277727CB0197F908950E94E00408F4F0
:100A60008FEF08950E9445050C9467060E94590671
:100A700038F00E94600620F0952311F00C942906AE
:100A80000C942F0611240C9427050E94040570F382
:100A9000959FC1F3950F50E0551F629FF001729F23
:100AA000BB27F00DB11D639FAA27F00DB11DAA1F32
:100AB000649F6627B00DA11D661F829F2227B00D7F
:100AC000A11D621F739FB00DA11D621F839FA00D0A
:100AD000611D221F749F3327A00D611D231F849F5A
:100AE000600D211D822F762F6A2F11249F575040B1
:100AF0009AF0F1F088234AF0EE0FFF1FBB1F661F2C
:100B0000771F881F91505040A9F79E3F510580F0F4
:100B10000C9429060C9427055F3FE4F3983ED4F328
:100B2000869577956795B795F795E7959F5FC1F798
:100B3000FE2B880F911D9695879597F90895FA01D8
:100B4000EE0FFF1F309621053105A1F161157105EA
:100B500061F48038BFE39B0749F1689490388105C0
:100B600061F08038BFEF9B0741F099234AF5FF3FC2
:100B7000E1053105210519F1E8940894E795D901BB
:100B8000AA2329F4AB2FBE2FF85FD0F310C0FF5F6C
:100B900070F4A695E0F7F73950F019F0FF3A38F401
:100BA0009F779F930DD00F9007FC9058089546F0C3
:100BB0000C942F0660E070E080E89FE308954FE713
:100BC0009F775F934F933F932F930E94C2062F917D
:100BD0003F914F915F910E9432050C94F70529F4E3
:100BE00016F00C9429060C9426050C942F060E94EE
:100BF0000C05A8F39638A0F707F80F92E8942BE3BA
:100C00003AEA48EB5FE70E9448050F920F920F9275
:100C10004DB75EB70F920E940A07E4EEF0E00E9423
:100C200032064F915F91EF91FF91E595EE1FFF1F07
:100C300049F0FE57E0684427EE0F441FFA95E1F7AC
:100C40004195550B0E9484060F9007FE0C94780680
:100C5000089597F99F6780E870E060E008959FEF3E
:100C600080EC0895DF93CF931F930F93FF92EF9241
:100C7000DF927B018C01689406C0DA2EEF010E949E
:100C80004505FE01E894A591259135914591559131
:100C9000A6F3EF010E945607FE019701A801DA941E
:100CA00069F7DF90EF90FF900F911F91CF91DF9147
:100CB000089500240A9416161706180609060895C2
:100CC00000240A9412161306140605060895092E28
:100CD0000394000C11F4882352F0BB0F40F4BF2B97
:100CE00011F460FF04C06F5F7F4F8F4F9F4F0895D7
:100CF0009B01AC0160E070E080E89FE30C94AB07DF
:100D00000C9429060C941D080E940C05D8F3992315
:100D1000C9F3940F511DA3F39150504094F059F032
:100D2000882332F0660F771F881F91505040C1F71B
:100D30009E3F51052CF7880F911D9695879597F941
:100D400008955F3FACF0983E9CF0BB278695779561
:100D50006795B79508F4B1609395C1F7BB0F58F745
:100D600011F460FFE8CF6F5F7F4F8F4F9F4FE3CF4E
:100D70000C94270516F00C941D080C942F0668940B
:100D80000C9429060E940C05A8F39923C1F3AEF335
:100D9000DF93CF931F930F93FF92C92FDD278823F3
:100DA0002AF02197660F771F881FDAF720E030E0DE
:100DB00040E85FEB9FE3883920F0803E38F02196D1
:100DC0008F770E943F07ECE0F1E004C00E943F07EC
:100DD000E9E3F1E00E9432068B01BE01EC01FB2E3B
:100DE0006F5771097595771F880B990B0E94A504A1
:100DF00028E132E741E35FE30E944505AF2D98010A
:100E0000AE01FF900F911F91CF91DF910E94560785
:100E10000C946706FA01DC01AA0FBB1F9B01AC0111
:100E2000BF5728F4222733274427507820C0B751D2
:100E300090F4AB2F0024469537952795011CA39578
:100E4000D2F3002071F0220F331F441FB395DAF361
:100E50000ED00C943E0761307105A0E88A07B946B0
:100E600030F49B01AC01662777278827907830966D
:100E700021F0208331834283538308955058BB2748
:100E8000AA270E9456070C9467060E94590638F05C
:100E90000E94600620F039F49F3F19F426F40C9468
:100EA0002F060EF4E095E7FB0C942906E92F0E942B
:100EB000040558F3BA17620773078407950720F0F3
:100EC00079F4A6F50C9426050EF4E0950B2EBA2FB6
:100ED000A02D0B01B90190010C01CA01A001112440
:100EE000FF27591B99F0593F50F4503E68F11A16EC
:100EF000F040A22F232F342F4427585FF3CF46957D
:100F000037952795A795F0405395C9F77EF41F169E
:100F1000BA0B620B730B840BBAF09150A1F0FF0F68
:100F2000BB1F661F771F881FC2F70EC0BA0F621F54
:100F3000731F841F48F4879577956795B795F79544
:100F40009E3F08F0B0CF9395880F08F09927EE0FD9
:100F50009795879508950E94BF070C9467060E9495
:100F6000600658F00E94590640F029F45F3F29F0CE
:100F70000C94290651110C9427050C942F060E94FD
:100F8000040568F39923B1F3552391F3951B550B91
:100F9000BB27AA2762177307840738F09F5F5F4F4C
:100FA000220F331F441FAA1FA9F335D00E2E3AF08B
:100FB000E0E832D091505040E695001CCAF72BD0A3
:100FC000FE2F29D0660F771F881FBB1F26173707F4
:100FD0004807AB07B0E809F0BB0B802DBF01FF2726
:100FE00093585F4F3AF09E3F510578F00C942906D4
:100FF0000C9427055F3FE4F3983ED4F386957795EC
:101000006795B795F7959F5FC9F7880F911D9695DE
:10101000879597F90895E1E0660F771F881FBB1F3A
:10102000621773078407BA0720F0621B730B840BE7
:10103000BA0BEE1F88F7E09508959F3F31F091506D
:1010400020F4879577956795B795880F911D9695AC
:0A105000879597F90895F894FFCFF3
:10105A0003FF9FFF25FF0DFF99FF49FF41FF1FFF78
:10106A0001FF09FF11FFC1FF63FF85FF61FF71FFE8
:00000001FF
