:100000000C9472000C9493000C9493000C94930045
:100010000C9493000C9493000C9493000C94930014
:100020000C9493000C9493000C9493000C94930004
:100030000C9493000C9493000C9493000C949300F4
:100040000C9493000C9493000C9493000C949300E4
:100050000C9493000C9493000C9493000C949300D4
:100060000C9493000C9493000C9493000C949300C4
:100070000C9493000C9468020C9493000C949300DD
:100080000C9493000C9493000C9493000C94E10254
:100090000C9493000C9493000C9493000C94930094
:1000A0000C9493000C9493000C9493000C94930084
:1000B0000C9493000C9493000C9493000C94930074
:1000C0000C9493000C9493000C9493000C94930064
:1000D0000C9493000C9493000C9493000C94930054
:1000E0000C94930011241FBECFEFD1E2DEBFCDBF31
:1000F00000E00CBF12E0A0E0B2E0E4E7F9E000E0CD
:100100000BBF02C007900D92A032B107D9F722E0D1
:10011000A0E2B2E001C01D92A432B207E1F70E9452
:1001200053030C94B8040C940000CF93DF93CDB725
:10013000DEB781E091E0FC01208181E091E0206266
:10014000FC01208381E091E0FC01208181E091E0CD
:100150002061FC01208383E390E0FC01208183E3A4
:1001600090E02062FC01208382E091E0FC0120818C
:1001700082E091E02F7EFC01208384E390E0FC018B
:10018000208184E390E02F7DFC0120830000DF913B
:10019000CF910895CF93DF9300D00F920F92CDB7F8
:1001A000DEB78D831A82198239C08D81082E000C2A
:1001B000990B817099279C838B838D8185958D8385
:1001C0008B819C81009751F082E091E0FC012081BD
:1001D00082E091E02062FC01208309C082E091E08E
:1001E000FC01208182E091E02F7DFC01208382E0F0
:1001F00091E0FC01208182E091E02061FC012083FC
:1002000082E091E0FC01208182E091E02F7EFC0100
:10021000208389819A8101969A83898389819A8131
:100220008730910511F208F2000000000F900F9046
:100230000F900F900F90DF91CF910895CF93DF93A0
:100240000F920F92CDB7DEB79A83898380E190E059
:10025000098002C0880F991F0A94E2F70E94CA0021
:1002600000000F900F90DF91CF910895CF93DF930F
:1002700000D0CDB7DEB789837B836A8389810E94F2
:10028000CA008A819B810E941E0184E390E0FC01E8
:10029000208184E390E02062FC01208384E390E0ED
:1002A000FC01208184E390E02F7DFC01208300008D
:1002B0000F900F900F90DF91CF910895CF93DF9320
:1002C000CDB7DEB7AC970FB6F894DEBF0FBECDBF8B
:1002D000988F8F8B88EE93E09A8389831C821B8290
:1002E00083E090E09E838D83E3C029813A818F89EA
:1002F000988DB9010E946603CB01AC019A01ADEC67
:10030000BCEC0E948E039C01369527953695279567
:1003100036952795C901880F991F880F991F820F5D
:10032000931F880F991F9A01281B390B38872F8339
:100330008F819885009751F48B819C81009731F4CF
:1003400089819A818130910509F0A3C08F819885B8
:10035000880F991F80509E4FDC018D919C91282F12
:100360008D819E81BC01822F0E94360180E090E049
:10037000A0E8BFE389879A87AB87BC8720E030E09D
:100380004AE755E469857A858B859C850E9423041C
:100390006D8F7E8F8F8F98A38D8D9E8DAF8DB8A121
:1003A0008D879E87AF87B88B20E030E040E85FE321
:1003B0006D857E858F8598890E949D0388232CF406
:1003C00081E090E09A8B898B55C020E03FEF4FE7AA
:1003D00057E46D857E858F8598890E941E04882349
:1003E000D9F1D4F120E030E040E251E469857A852A
:1003F0008B859C850E94230469A37AA38BA39CA36D
:1004000089A19AA1ABA1BCA1898F9A8FAB8FBC8F18
:10041000698D7A8D8B8D9C8D0E94A2036DA37EA326
:100420008FA398A7ADA1BEA1BA8BA98B10C080E9FC
:1004300091E09C8B8B8B8B899C890197F1F79C8B2E
:100440008B8B000089899A8901979A8B898B89897E
:100450009A89009761F719C06D857E858F85988987
:100460000E94A20369A77AA78BA79CA7E9A5FAA572
:10047000FA8BE98B89899A899E8B8D8B8D899E89D0
:100480000197F1F79E8B8D8B000081E090E09C83BB
:100490008B8389819A812AE030E0B9010E947A0336
:1004A000CB019A8389838D819E8101979E838D8361
:1004B0008D819E8199230CF018CF00000000AC962E
:1004C0000FB6F894DEBF0FBECDBFDF91CF91089578
:1004D0001F920F920FB60F9211240BB60F928F93AB
:1004E0009F93EF93FF93CF93DF93CDB7DEB788E76A
:1004F00090E0FC0180819181909321028093200201
:100500000000DF91CF91FF91EF919F918F910F901C
:100510000BBE0F900FBE0F901F901895CF93DF93D7
:10052000CDB7DEB78CE790E020E4FC0120838CE7B8
:1005300090E0FC0120818CE790E02760FC012083A3
:100540008AE790E027E0FC0120838AE790E0FC0145
:1005500020818AE790E02068FC0120838AE790E010
:10056000FC0120818AE790E02860FC0120830000E4
:10057000DF91CF910895CF93DF93CDB7DEB78AE7B0
:1005800090E0FC0120818AE790E02064FC01208358
:100590000000DF91CF910895CF93DF93CDB7DEB701
:1005A0008AE790E0FC018081882F90E08074992791
:1005B00021E0009709F020E0822F90E0DF91CF91B9
:1005C00008951F920F920FB60F9211240BB60F923F
:1005D0002F933F934F935F936F937F938F939F934B
:1005E000AF93BF93EF93FF93CF93DF93CDB7DEB776
:1005F00084E990E02CED3BE0FC01318320830E94F4
:10060000BB028091220290912302F1E08F27909308
:100610002302809322020000DF91CF91FF91EF919E
:10062000BF91AF919F918F917F916F915F914F910A
:100630003F912F910F900BBE0F900FBE0F901F9008
:100640001895CF93DF93CDB7DEB784E990E02CED1A
:100650003BE0FC013183208381E790E021E0FC0155
:1006600020830000DF91CF910895CF93DF93CDB722
:10067000DEB781E990E024E0FC0120830000DF91F7
:10068000CF910895CF93DF93CDB7DEB70E94950049
:100690000E948E020E9421030E943503789400007C
:1006A000DF91CF910895CF93DF93CDB7DEB70E944E
:1006B000420380912202909123020097D1F380910E
:1006C0002002909121020E945E01F3CFAA1BBB1B66
:1006D00051E107C0AA1FBB1FA617B70710F0A61B42
:1006E000B70B881F991F5A95A9F780959095BC0163
:1006F000CD01089597FB072E16F4009407D077FDDF
:1007000009D00E94660307FC05D03EF490958195C0
:100710009F4F0895709561957F4F0895A29FB001F6
:10072000B39FC001A39F700D811D1124911DB29F25
:10073000700D811D1124911D08950E94D10308F4AC
:1007400081E008950E94FD0388F09F5798F0B92F2B
:100750009927B751B0F0E1F0660F771F881F991FF6
:100760001AF0BA95C9F714C0B13091F00E9417047D
:10077000B1E008950C941704672F782F8827B85F8D
:1007800039F0B93FCCF3869577956795B395D9F74E
:100790003EF490958095709561957F4F8F4F9F4F58
:1007A0000895990F0008550FAA0BE0E8FEEF161602
:1007B0001706E807F907C0F012161306E407F50755
:1007C00098F0621B730B840B950B39F40A2661F0C9
:1007D000232B242B252B21F408950A2609F4A1406C
:1007E000A6958FEF811D811D089557FD9058440FE8
:1007F000551F59F05F3F71F04795880F97FB991F80
:1008000061F09F3F79F0879508951216130614063C
:10081000551FF2CF4695F1DF08C0161617061806C9
:10082000991FF1CF86957105610508940895E894A4
:10083000BB2766277727CB0197F908950E94D1033C
:1008400008F48FEF08950E9436040C94A7040E94C8
:10085000990438F00E94A00420F0952311F00C9424
:1008600090040C94960411240C9418040E94F5032F
:1008700070F3959FC1F3950F50E0551F629FF001F3
:10088000729FBB27F00DB11D639FAA27F00DB11D0C
:10089000AA1F649F6627B00DA11D661F829F222795
:1008A000B00DA11D621F739FB00DA11D621F839F1C
:1008B000A00D611D221F749F3327A00D611D231FF2
:1008C000849F600D211D822F762F6A2F11249F5740
:1008D00050409AF0F1F088234AF0EE0FFF1FBB1F43
:1008E000661F771F881F91505040A9F79E3F510502
:1008F00080F00C9490040C9418045F3FE4F3983E4D
:10090000D4F3869577956795B795F795E7959F5FAB
:10091000C1F7FE2B880F911D9695879597F908953D
:1009200097F99F6780E870E060E008959FEF80ECA2
:10093000089500240A941616170618060906089545
:1009400000240A9412161306140605060895092EAB
:100950000394000C11F4882352F0BB0F40F4BF2B1A
:1009600011F460FF04C06F5F7F4F8F4F9F4F08955A
:04097000F894FFCF29
:1009740003FF9FFF25FF0DFF99FF49FF41FF1FFF65
:1009840001FF09FF11FFC1FF63FF85FF61FF71FFD5
:00000001FF
