:100000000C941A000C943C000C943C000C943C00A2
:100010000C943C000C943C000C943C000C943C0070
:100020000C943C000C943C000C943C000C943C0060
:100030000C943C0011241FBECFE5D2E0DEBFCDBF43
:1000400010E0A0E6B0E0E6E3F7E00FEF03950BBFAA
:1000500004C0D8950D923196C8F3AC36B107C9F7F4
:1000600020E0ACE6B0E001C01D92A237B207E1F794
:100070000E943E000C9499030C940000CF93DF93F0
:10008000CDB7DEB780E690E0892F8F9380E690E0D1
:100090008F930E944F000F900F900000F3CFA0E0CD
:1000A000B0E0E5E5F0E00C9471034C2F5D2F4B5F61
:1000B0005F4FE42FF52F619171914E2F5F2F80914B
:1000C0006E0090916F000E946800E2E00C948D0336
:1000D000AFE0B0E0EEE6F0E00C946303C82ED92E5A
:1000E000E62EF72E042F152FAC2DBD2D17961C9242
:1000F0001E92169713968C9181FF26C2EC2DFD2D32
:100100002381EE2DFF2DC89523FF00803196902D81
:10011000EE2EFF2E992309F485C0953249F4C89537
:1001200023FF00803196902DEE2EFF2E953239F46C
:100130006C2D7D2D892F90E00E94C002DFCF912C85
:10014000612C712CFFE1F71508F450C09B3209F4C3
:1001500042C020F5903209F440C0933209F443C004
:10016000933609F49AC0933709F4A6C0933509F081
:10017000D2C0E02FF12FA190B1900E2F1F2F692D2B
:1001800070E076FC02C06FEF7FEF8A2D9B2D0E94FE
:10019000A702882E992E689477F86AC09D3201F1E3
:1001A000903351F030ED390F3A3078F19E3209F04A
:1001B00042C0689476F802C0689470F8EE2DFF2D66
:1001C000C89523FF00803196902DEE2EFF2E9923A7
:1001D00009F0B8CF38C0689471F8689472F8EECF1F
:1001E000689473F8EBCF689474F8E8CF77FC2BC071
:1001F00030ED390F3A3090F476FE07C0892D6AE071
:100200000E945803932E980ED9CF862D6AE00E9443
:100210005803682E630E689475F8D0CF9E3259F457
:1002200076FEC7CFAC2DBD2D16968D919C912F9645
:10023000E0E10C947F039C3619F4689477F8BECF04
:10024000983609F4BBCF892F8F7D8554833008F011
:1002500087CF0C5F1F4F8FE3898388248394912C71
:100260004C2F5D2F4F5F5F4FA42EB52EE89477F88B
:1002700073FC05C0862D90E08816990680F18114E4
:100280009104A9F5662009F439CF6C2D7D2D80E20B
:1002900090E00E94C0026A94F5CFA02FB12F8C91FC
:1002A00089830E5F1F4F88248394912CEC2FFD2FA0
:1002B0003196AE2EBF2EDACFA02FB12FAD90BD90CC
:1002C0000A2F1B2F692D70E076FC02C06FEF7FEFC5
:1002D0008A2D9B2D0E94B402882E992EC7CF6C2D9B
:1002E0007D2D80E290E00E94C0026A94C3CFEA2D87
:1002F000FB2DC89577FE00803196802DAE2EBF2E47
:100300006C2D7D2D90E00E94C00261106A94F1E096
:100310008F1A9108B4CF943619F0993609F08EC02F
:10032000E02FF12F77FE83C06191719181919191BE
:100330000E2F1F2F272D2F76822E97FF09C0909505
:100340008095709561957F4F8F4F9F4F689487F888
:100350002AE030E04C2F5D2F4F5F5F4FA42EB52E6B
:100360000E94F402782E7A18B72CA82C86FE0CC0B6
:10037000E894A0F8791440F484FE05C082FC03C020
:10038000782D7E7EA72EB92CA4FEB4C0EC2FFD2FB5
:10039000E70DF11D8081803309F0A5C08A2D897E8B
:1003A000A82EA3FC0EC0A0FEB5C0972CB61418F45E
:1003B000960C9B18B62C862D8B196B1408F480E0D4
:1003C000B80EB61408F0A8C06B18A4FEA7C06C2D18
:1003D0007D2D80E390E00E94C002A2FE0AC088E565
:1003E00090E0A1FC02C088E790E06C2D7D2D0E947A
:1003F000C002791408F4A0C07A94A72CB12C9FEF06
:10040000A91AB90AAC2FBD2F11968A2E9B2EAA0EBF
:10041000BB1EEA2DFB2D8291AE2EBF2E6C2D7D2DA5
:1004200090E00E94C0028A149B0499F72BCF61913F
:100430007191072E000C880B990B7ACF872CE894CA
:1004400084F82AE030E0953769F0572D597F852EE2
:10045000903799F140F5983599F19F3609F0E2CE41
:1004600028E030E0E02FF12F87FE32C0819191919A
:10047000A191B1918C879D87AE87BF870E2F1F2FCB
:100480006C2F7D2F6F5F7F4F462E572E462F572F95
:100490006C857D858E859F850E94F402782E741868
:1004A000E89487F861CF983709F0BCCE84FE02C08B
:1004B000689482F820E130E0D5CF689484F8F6CFD4
:1004C00074FE03C0652F6660862E20E132E0CACF3D
:1004D00081919191482F592F60E070E04C875D87A2
:1004E0006E877F87CBCFA2FC02C0B3945ACFB39460
:1004F000B39457CF8A2D8678882309F452CFF5CF4D
:100500006C2D7D2D80E290E00E94C00283948614C1
:10051000B8F351CF8B2CFBCF612C57CF8A2D867827
:10052000882309F466CF8BE2A1FE80E2A7FC8DE26E
:100530006C2D7D2D90E05BCF6C2D7D2D80E390E0C8
:100540000E94C0029A9455CF8FEF9FEF70CEE82F94
:10055000F92FC8953196615070400110D0F7809501
:1005600090958E0F9F1F0895E82FF92F61507040CE
:1005700001900110D8F7809590958E0F9F1F0895D8
:100580000F931F93CF93DF93182F092FC62FD72FC9
:100590008B8181FD09C01FEF0FEF812F902FDF911D
:1005A000CF911F910F91089582FF15C02E813F8139
:1005B0008C819D812817390744F4E881F9818E2FB9
:1005C0009F2F01969983888310838E819F81019646
:1005D0009F838E83E2CFE885F9856C2F7D2F812F55
:1005E0000995892B91F3D7CFE42FF52FAA2728302F
:1005F00069F1203199F1E8946F936E7F6E5F7F4FC0
:100600008F4F9F4FAF4FB1E041D0B4E03FD0670F65
:10061000781F891F9A1FA11D680F791F8A1F911DBE
:10062000A11D6A0F711D811D911DA11D23D009F40B
:1006300068943F91062E000C3019000C000C301904
:10064000305D3193CEF68E2F9F2F0895462F477041
:10065000405D4193B3E00FD0C9F7F5CF462F4F70FF
:10066000405D4A3318F0495D31FD4052419302D05C
:10067000A9F7E9CFB4E0A695979587957795679503
:10068000BA95C9F70097610571050895262F372F90
:10069000482F592F0A2E0694579547953795279539
:1006A000BA95C9F7620F731F841F951FA01D089587
:1006B000002480FD060E660F11F08695D1F7802D7F
:1006C00008952F923F924F925F926F927F928F92F6
:1006D0009F92AF92BF92CF92DF92EF92FF920F93D1
:1006E0001F93CF93DF93CDB7DEB7CA1BDB0B0FB6DB
:1006F000F894DEBF0FBECDBF09942A883988488898
:100700005F846E847D848C849B84AA84B984C8842D
:10071000DF80EE80FD800C811B81AA81B981CE0F24
:10072000D11D0FB6F894DEBF0FBECDBFCA2FDB2F91
:060730000895F894FFCFCC
:0C07360048656C6C6F20576F726C64009B
:00000001FF
