:100000000C9472000C9493000C9493000C94930045
:100010000C9493000C9493000C9493000C94930014
:100020000C9493000C9493000C9493000C94930004
:100030000C9493000C9493000C9493000C949300F4
:100040000C9493000C9493000C9493000C949300E4
:100050000C9493000C9493000C9493000C949300D4
:100060000C9493000C9493000C9493000C949300C4
:100070000C9493000C9493000C9493000C949300B4
:100080000C9493000C9493000C9493000C949300A4
:100090000C9493000C9493000C9493000C94930094
:1000A0000C9493000C9493000C9493000C94930084
:1000B0000C9493000C9493000C9493000C94930074
:1000C0000C9493000C9493000C9493000C94930064
:1000D0000C9493000C9493000C9493000C94930054
:1000E0000C94930011241FBECFEFD1E2DEBFCDBF31
:1000F00000E00CBF12E0A0E0B2E0E6EAFDE000E0C4
:100100000BBF02C007900D92A230B107D9F722E0D1
:10011000A2E0B2E001C01D92AC30B207E1F70E944C
:1001200088030C94D1060C940000CF93DF93CDB7D5
:10013000DEB70E94A5000E94B6000E94E0000E9467
:10014000C7000000DF91CF910895CF93DF93CDB723
:10015000DEB781E290E0FC01208181E290E0286F2F
:10016000FC0120830000DF91CF910895CF93DF93AE
:10017000CDB7DEB781E290E0FC01208181E290E022
:10018000287FFC0120830000DF91CF910895CF9359
:10019000DF93CDB7DEB78DE290E0FC0180818DE288
:1001A00090E0FC01108283E390E0FC01208183E376
:1001B00090E02072FC0120830000DF91CF91089530
:1001C000CF93DF93CDB7DEB784E290E0FC012081CE
:1001D00084E290E02066FC01208381E890E0FC014D
:1001E000208181E890E02560FC01208380E890E098
:1001F000FC01208180E890E02960FC01208388E8F0
:1002000090E02FE730E0FC01318320838AE890E022
:100210002FE730E0FC013183208381E091E0FC0195
:10022000208181E091E02861FC01208381EA90E057
:10023000FC01208181EA90E02560FC01208380EAB6
:1002400090E0FC01208180EA90E02960FC0120839D
:1002500088EA90E02FE730E0FC01318320838AEACE
:1002600090E02FE730E0FC013183208380E090E0D4
:100270000E94E20280E090E00E9419030000DF91FA
:10028000CF910895CF93DF930F920F92CDB7DEB742
:100290009A83898389819A81009751F082E290E064
:1002A000FC01208182E290E02860FC01208309C0EB
:1002B00082E290E0FC01208182E290E0277FFC0155
:1002C000208300000F900F90DF91CF910895CF937E
:1002D000DF930F920F92CDB7DEB79A83898389811E
:1002E0009A81009751F082E290E0FC01208182E245
:1002F00090E02061FC01208309C082E290E0FC01D3
:10030000208182E290E02F7EFC01208300000F908C
:100310000F90DF91CF910895CF93DF930F920F92BB
:10032000CDB7DEB79A83898389819A81009751F08E
:1003300082E290E0FC01208182E290E02062FC01F8
:10034000208309C082E290E0FC01208182E290E0FB
:100350002F7DFC01208300000F900F90DF91CF9143
:100360000895CF93DF930F920F92CDB7DEB79A83A4
:10037000898389819A81009751F082E290E0FC01A3
:10038000208182E290E02064FC01208309C082E2A7
:1003900090E0FC01208182E290E02F7BFC01208331
:1003A00000000F900F90DF91CF910895CF93DF93CE
:1003B0000F920F92CDB7DEB79A83898389819A8194
:1003C000009751F082E290E0FC01208182E290E00F
:1003D0002068FC01208309C082E290E0FC012081BA
:1003E00082E290E02F77FC01208300000F900F90B5
:1003F000DF91CF910895CF93DF93CDB7DEB780E241
:1004000090E0FC018081882F90E08470992700970C
:1004100019F480E090E00DC080E290E0FC01808162
:10042000882F90E084709927009719F081E090E080
:1004300000C0DF91CF910895CF93DF93CDB7DEB7A2
:1004400080E290E0FC018081882F90E08170992704
:10045000009719F480E090E00DC080E290E0FC018C
:100460008081882F90E081709927009719F081E0B2
:1004700090E000C0DF91CF910895CF93DF93CDB787
:10048000DEB780E290E0FC018081882F90E08270EE
:100490009927009719F480E090E00DC080E290E089
:1004A000FC018081882F90E082709927009719F0D5
:1004B00081E090E000C0DF91CF910895CF93DF936A
:1004C000CDB7DEB78CE290E0FC018081882F90E010
:1004D00080719927009719F480E090E00DC08CE2BC
:1004E00090E0FC018081882F90E08071992700972F
:1004F00019F081E090E000C0DF91CF910895CF9393
:10050000DF93CDB7DEB78CE290E0FC018081882FCD
:1005100090E080729927009719F480E090E00DC078
:100520008CE290E0FC018081882F90E08072992716
:10053000009719F081E090E000C0DF91CF9108951D
:10054000CF93DF93CDB7DEB782E390E0FC018081EB
:10055000882F90E080729927009719F480E090E04E
:100560000DC082E390E0FC018081882F90E08072D2
:100570009927009719F081E090E000C0DF91CF91BA
:100580000895CF93DF93CDB7DEB78CE290E0FC0106
:100590008081882F90E088709927009719F480E077
:1005A00090E00DC08CE290E0FC018081882F90E00B
:1005B00088709927009719F081E090E000C0DF91E2
:1005C000CF910895CF93DF930F920F92CDB7DEB7FF
:1005D0009A83898389819A81009799F080E890E0D5
:1005E000FC01208180E890E02F77FC01208380E8E7
:1005F00090E0FC01208180E890E02062FC012083F3
:1006000012C080E890E0FC01208180E890E02F7D1E
:10061000FC01208380E890E0FC01208180E890E0EC
:100620002068FC01208300000F900F90DF91CF9194
:100630000895CF93DF930F920F92CDB7DEB79A83D1
:10064000898389819A81009799F080EA90E0FC0182
:10065000208180EA90E02F7DFC01208380EA90E0F9
:10066000FC01208180EA90E02068FC01208312C018
:1006700080EA90E0FC01208180EA90E02F77FC0185
:10068000208380EA90E0FC01208180EA90E02062F3
:10069000FC01208300000F900F90DF91CF9108950F
:1006A000CF93DF930F920F92CDB7DEB79A838983F2
:1006B00088EA90E029813A81FC01318320838AEA2B
:1006C00090E029813A81FC013183208300000F9062
:1006D0000F90DF91CF910895CF93DF930F920F92F8
:1006E000CDB7DEB79A83898388E890E029813A8183
:1006F000FC01318320838AE890E029813A81FC0162
:100700003183208300000F900F90DF91CF910895E7
:10071000CF93DF93CDB7DEB7A6970FB6F894DEBFC1
:100720000FBECDBF0E94950084E090E09A8389833C
:1007300089819A818530910509F422C189819A8144
:100740008530910509F0A4F789819A81843091055B
:1007500009F4C3C089819A818430910509F044F776
:1007600089819A8183309105B9F089819A8183309A
:10077000910509F0ECF689819A818230910509F49E
:10078000FAC089819A818230910509F08CF68981BD
:100790009A810097D1F0E9C180E090E00E94B10118
:1007A00081E090E00E94D60180E090E00E946C031E
:1007B00080E090E00E94500380E090E00E94E2021E
:1007C00080E090E00E941903D0C181E090E00E9497
:1007D000B10184E190E00E946C0385E190E00E9409
:1007E000500381E090E00E94E20281E090E00E94EC
:1007F00019030E94FB01009729F083E090E09A839F
:100800008983B3C10E941C02009781F0809102028B
:10081000909103028130910549F4109203021092E5
:10082000020284E090E09A8389839FC10E945E0265
:10083000009789F08091060290910702009759F481
:1008400081E090E0909307028093060285E090E0BB
:100850009A8389838AC10E945E02009759F480912D
:10086000060290910702009729F010920702109259
:1008700006027BC10E947F02009789F080910402EA
:1008800090910502009759F481E090E09093050261
:100890008093040285E090E09A83898366C10E9478
:1008A0007F02009759F4809104029091050200970D
:1008B00029F0109205021092040257C10E94A00272
:1008C000009709F04FC10E94C102009709F04AC188
:1008D00081E090E09A83898348C180E090E00E94A3
:1008E000B10185E290E0DC012C9185E290E020648A
:1008F000FC01208385E290E0DC012C9185E290E010
:100900002068FC0120838AE091E0DC012C918AE0E0
:1009100091E02D7FFC0120838AE091E0DC012C91A5
:100920008AE091E02B7FFC01208380E090E00E9430
:10093000190380E090E00E94E2020E94FB01009710
:1009400029F083E090E09A8389830FC10E941C0202
:10095000009709F409C18091020290910302009767
:1009600009F002C181E090E09093030280930202BB
:100970001A821982FAC081E090E00E948C01F5C0D1
:1009800080E090E00E946C0380E090E00E945003C1
:1009900080E090E00E94E20280E090E00E94190373
:1009A0008091060290910702009771F080910A02EF
:1009B00090910B02019690930B0280930A0281E0C2
:1009C00090E00E94670113C080910402909105029B
:1009D000009769F080910802909109020196909326
:1009E00009028093080281E090E00E9442011C828B
:1009F0001B829DC00E94FB01009729F083E090E0DC
:100A00009A8389839BC080E090E0AAEFB3E48D8352
:100A10009E83AF83B88720E030E04AE755E46D81DC
:100A20007E818F8198850E943C066F8B788F898F9D
:100A30009A8F8F89988DA98DBA8D89879A87AB8770
:100A4000BC8720E030E040E85FE369857A858B85EC
:100A50009C850E94B60588232CF481E090E09E8757
:100A60008D8755C020E03FEF4FE757E469857A85D1
:100A70008B859C850E9437068823D9F1D4F120E02C
:100A800030E040E251E46D817E818F8198850E9443
:100A90003C066B8F7C8F8D8F9E8F8B8D9C8DAD8D4B
:100AA000BE8D8B8B9C8BAD8BBE8B6B897C898D892E
:100AB0009E890E94BB056F8F78A389A39AA3AF8DEF
:100AC000B8A1BE87AD8710C080E991E0988B8F8771
:100AD0008F8598890197F1F7988B8F8700008D8516
:100AE0009E8501979E878D878D859E85009761F7EE
:100AF00019C069857A858B859C850E94BB056BA38F
:100B00007CA38DA39EA3EBA1FCA1FE87ED878D8521
:100B10009E859A8B898B89899A890197F1F79A8B9F
:100B2000898B00008B819C8101969C838B838B81B8
:100B30009C818630910509F00CF45CCF80E090E058
:100B40000E94670180E090E00E9442010E94FB0148
:100B5000009729F083E090E09A83898306C01A8287
:100B6000198203C00000E4CD0000E2CD0E94EA0536
:100B700008F481E008950E94160688F09F5798F0C7
:100B8000B92F9927B751B0F0E1F0660F771F881F92
:100B9000991F1AF0BA95C9F714C0B13091F00E94AC
:100BA0003006B1E008950C943006672F782F88271F
:100BB000B85F39F0B93FCCF3869577956795B395D3
:100BC000D9F73EF490958095709561957F4F8F4F42
:100BD0009F4F0895990F0008550FAA0BE0E8FEEF0C
:100BE00016161706E807F907C0F012161306E407F1
:100BF000F50798F0621B730B840B950B39F40A26EA
:100C000061F0232B242B252B21F408950A2609F4C7
:100C1000A140A6958FEF811D811D089557FD905825
:100C2000440F551F59F05F3F71F04795880F97FBB0
:100C3000991F61F09F3F79F087950895121613066A
:100C40001406551FF2CF4695F1DF08C01616170699
:100C50001806991FF1CF86957105610508940895CE
:100C6000E894BB2766277727CB0197F908950E9460
:100C7000EA0508F48FEF08950E944F060C94C00611
:100C80000E94B20638F00E94B90620F0952311F0B8
:100C90000C94A9060C94AF0611240C9431060E9402
:100CA0000E0670F3959FC1F3950F50E0551F629F9C
:100CB000F001729FBB27F00DB11D639FAA27F00DB5
:100CC000B11DAA1F649F6627B00DA11D661F829FDC
:100CD0002227B00DA11D621F739FB00DA11D621FC1
:100CE000839FA00D611D221F749F3327A00D611DDE
:100CF000231F849F600D211D822F762F6A2F1124C0
:100D00009F5750409AF0F1F088234AF0EE0FFF1FF2
:100D1000BB1F661F771F881F91505040A9F79E3F49
:100D2000510580F00C94A9060C9431065F3FE4F362
:100D3000983ED4F3869577956795B795F795E7959F
:100D40009F5FC1F7FE2B880F911D9695879597F9A8
:100D5000089597F99F6780E870E060E008959FEF3D
:100D600080EC089500240A94161617061806090642
:100D7000089500240A941216130614060506089511
:100D8000092E0394000C11F4882352F0BB0F40F499
:100D9000BF2B11F460FF04C06F5F7F4F8F4F9F4FD9
:060DA0000895F894FFCF56
:020DA60001004A
:00000001FF
