:100000000C9480000C94A1000C94A1000C94A1000D
:100010000C94A1000C94A1000C94A1000C94A100DC
:100020000C94A1000C94A1000C94A1000C94A100CC
:100030000C94A1000C94A1000C94A1000C94A100BC
:100040000C94A1000C94A1000C94A1000C94A100AC
:100050000C94A1000C94A1000C94A1000C94A1009C
:100060000C94A1000C94A1000C94A1000C94A1008C
:100070000C94A1000C94A1000C94A1000C94A1007C
:100080000C94A1000C94A1000C94A1000C94A1006C
:100090000C94A1000C94A1000C94A1000C94A1005C
:1000A0000C94A1000C94E01A0C94A1000C94A100F3
:1000B0000C94A1000C94551B0C94A1000C94A1006D
:1000C0000C94A1000C94A1000C94A1000C94A1002C
:1000D0000C94A1000C94A1000C94A1000C94A1001C
:1000E0000C94A1000C94DF1B0C94F31C0C94C31C07
:1000F0000C94D51C0C94C61B0C94EE1C0C94751C13
:1001000011241FBECFEFD1E2DEBFCDBF00E00CBF98
:1001100012E0A0E0B2E0E0E9F8E400E00BBF02C0CA
:1001200007900D92A233B107D9F722E0A2E3B2E023
:1001300001C01D92A634B207E1F70E94A21B0C94E5
:100140003F240C940000CF93DF93CDB7DEB7A29786
:100150000FB6F894DEBF0FBECDBF0E944A010E94C9
:100160006D0180E090E0A8ECB2E489839A83AB83D0
:10017000BC8320E030E04AE755E469817A818B81D5
:100180009C810E9482206B8B7C8B8D8B9E8B8B89BC
:100190009C89AD89BE898D839E83AF83B88720E01B
:1001A00030E040E85FE36D817E818F8198850E9419
:1001B0001E1F88232CF481E090E09A87898755C020
:1001C00020E03FEF4FE757E46D817E818F81988576
:1001D0000E947D208823D9F1D4F120E030E040E274
:1001E00051E469817A818B819C810E9482206F8B8E
:1001F000788F898F9A8F8F89988DA98DBA8D8F87E7
:10020000988BA98BBA8B6F85788989899A890E9486
:100210009C1F6B8F7C8F8D8F9E8FAB8DBC8DBA8713
:10022000A98710C080E991E09C878B878B859C858E
:100230000197F1F79C878B87000089859A85019744
:100240009A87898789859A85009761F719C06D819A
:100250007E818F8198850E949C1F6F8F78A389A3D0
:100260009AA38F8D98A19A87898789859A859E8779
:100270008D878D859E850197F1F79E878D8700007C
:100280000000A2960FB6F894DEBF0FBECDBFDF917F
:10029000CF910895CF93DF93CDB7DEB787E290E09B
:1002A000FC01208187E290E0206FFC01208387E23F
:1002B00090E0FC01208187E290E02E60FC01208329
:1002C00084E290E0FC01208184E290E02160FC0166
:1002D00020830000DF91CF9108950F931F93CF9358
:1002E000DF93CDB7DEB7CA5FD1090FB6F894DEBF92
:1002F0000FBECDBF9E012F593F4F80E090E0A8E494
:10030000B2E4F90180839183A283B3838E010B59F8
:100310001F4FCE018F599F4F20E030E04AE755E450
:10032000DC016D917D918D919C910E948220C1583C
:10033000DF4F688379838A839B83CF57D040C1582E
:10034000DF4F88819981AA81BB81CF57D040F801C6
:1003500080839183A283B383CE018B599F4F20E08A
:1003600030E040E85FE3DC016D917D918D919C91DF
:100370000E941E1F88234CF4CE0187599F4F21E015
:1003800030E0FC0131832083A1C0CE018B599F4F07
:1003900020E03FEF4FE757E4DC016D917D918D91B7
:1003A0009C910E947D20882309F00CF471C0CE013D
:1003B0008F599F4F20E030E040E251E4FC01608122
:1003C0007181828193810E948220CD57DF4F6883A3
:1003D00079838A839B83C358D040CD57DF4F888170
:1003E0009981AA81BB81C358D040EF968CAF9DAF55
:1003F000AEAFBFAFEF978E0107591F4FEF966CADB1
:100400007DAD8EAD9FADEF970E949C1FC957DF4F0A
:10041000688379838A839B83C758D040C957DF4F4D
:10042000E881F981C758D040D8011196FC93EE932A
:1004300026C0CE0185599F4F20E931E0DC012D9384
:100440003C93CE0185599F4FFC018081918101979A
:10045000F1F79E0125593F4FD9018D939C930000E0
:10046000CE0187599F4F9E0127593F4FF9012081A7
:10047000318121503109DC0111963C932E93CE013C
:1004800087599F4FFC0180819181009791F639C077
:100490008E0107591F4FCE018B599F4FDC016D9183
:1004A0007D918D919C910E949C1FC557DF4F688361
:1004B00079838A839B83CB58D040C557DF4F88818F
:1004C0009981CB58D040F80191838083CE01835924
:1004D0009F4F9E0127593F4FD9012D913C91FC011F
:1004E00031832083CE0183599F4FDC018D919C91F4
:1004F0000197F1F79E0123593F4FF90191838083C2
:10050000000088E290E0DC012C9188E290E02D7FF1
:10051000FC01208388E290E0DC012C9188E290E0ED
:10052000277FFC01208388E290E0DC012C9188E2A7
:1005300090E02B7FFC01208380E30E9430099E0124
:100540002F5B3F4F80E090E0A0E2B1E4F9018083AF
:100550009183A283B3838E010B5B1F4FCE018F5B10
:100560009F4F2BEA3AEA4AEA50E4DC016D917D9113
:100570008D919C910E948220C157DF4F68837983BF
:100580008A839B83CF58D040C157DF4F88819981A0
:10059000AA81BB81CF58D040F80180839183A28388
:1005A000B3838E01075B1F4FCE018F5B9F4F20E00F
:1005B00030E040E850E4DC016D917D918D919C919B
:1005C0000E948220CD56DF4F688379838A839B8384
:1005D000C359D040CD56DF4F88819981AA81BB8114
:1005E000C359D040F80180839183A283B383CE01A5
:1005F0008B5B9F4F20E030E040E85FE3DC016D91D2
:100600007D918D919C910E941E1F88233CF4CE0108
:10061000835B9F4F21E0FC0120839CC1CE01875B5F
:100620009F4F20E03FEF4FE757E4DC016D917D9154
:100630008D919C910E947D20882309F00CF422C1A9
:10064000CE018F5B9F4F20E030E04AE754E4FC018D
:1006500060817181828193810E94231FC956DF4F7F
:10066000688379838A839B83C759D040C956DF4FFB
:1006700088819981AA81BB81C759D0409E01225BA4
:100680003F4FF90180839183A283B3838E010E5A79
:100690001F4FCE01825B9F4F20E030E04AE755E4D8
:1006A000DC016D917D918D919C910E948220C556B7
:1006B000DF4F688379838A839B83CB59D040C556AB
:1006C000DF4F88819981AA81BB81CB59D040F80145
:1006D00080839183A283B383CE018E5A9F4F20E003
:1006E00030E040E85FE3DC016D917D918D919C915C
:1006F0000E941E1F88234CF4CE018A5A9F4F21E08E
:1007000030E0FC0131832083A1C0CE018E5A9F4F7F
:1007100020E03FEF4FE757E4DC016D917D918D9133
:100720009C910E947D20882309F00CF471C0CE01B9
:10073000825B9F4F20E030E040E251E4FC016081A9
:100740007181828193810E948220C156DF4F68832C
:1007500079838A839B83CF59D040C156DF4F8881EC
:100760009981AA81BB81CF59D040EB968CAF9DAFC8
:10077000AEAFBFAFEB978E010A5A1F4FEB966CAD31
:100780007DAD8EAD9FADEB970E949C1FCD55DF4F89
:10079000688379838A839B83C35AD040CD55DF4FCA
:1007A000E881F981C35AD040D8011196FC93EE93A9
:1007B00026C0CE01885A9F4F20E931E0DC012D93FD
:1007C0003C93CE01885A9F4FFC0180819181019713
:1007D000F1F79E01285A3F4FD9018D939C93000059
:1007E000CE018A5A9F4F9E012A5A3F4FF90120811C
:1007F000318121503109DC0111963C932E93CE01B9
:100800008A5A9F4FFC0180819181009791F6A2C086
:100810008E010A5A1F4FCE018E5A9F4FDC016D91F7
:100820007D918D919C910E949C1FC955DF4F6883DB
:1008300079838A839B83C75AD040C955DF4F88810B
:100840009981C75AD040F80191838083CE01865A9E
:100850009F4F9E012A5A3F4FD9012D913C91FC0197
:1008600031832083CE01865A9F4FDC018D919C916C
:1008700011970197F1F79E01265A3F4FF901918395
:10088000808368C0CE018B5B9F4F20E030E04FE754
:1008900053E4DC016D917D918D919C910E947D20AE
:1008A0008823E1F1DCF18E01045A1F4FCE01875BF2
:1008B0009F4FFC0160817181828193810E949C1F06
:1008C000C555DF4F688379838A839B83CB5AD04099
:1008D000C555DF4FE881F981CB5AD040D801ED935F
:1008E000FC93CE01825A9F4F9E01245A3F4FD9015B
:1008F0002D913C91FC0131832083CE01825A9F4F80
:10090000DC018D919C9111970197F1F79E01225A7C
:100910003F4FF90191838083000034C08E01035B57
:100920001F4FCE018B5B9F4FDC016D917D918D91AF
:100930009C910E949C1FC155DF4F688379838A83F5
:100940009B83CF5AD040C155DF4F8881CF5AD040CA
:10095000F8018083CE01805A9F4F9E01235B3F4F59
:10096000D9012C91FC012083CE01805A9F4FDC01DC
:100970008C91282F2A95F1F7CE01805A9F4FFC01C8
:100980002083000080E30E94300980E090E0A8E42A
:10099000B3E489A39AA3ABA3BCA32BEA3AEA4AEA3D
:1009A00050E469A17AA18BA19CA10E948220CD5420
:1009B000DF4F688379838A839B83C35BD040CD54A8
:1009C000DF4F88819981AA81BB81C35BD0408DA311
:1009D0009EA3AFA3B8A720E030E040E850E469A1AF
:1009E0007AA18BA19CA10E948220C954DF4F688309
:1009F00079838A839B83C75BD040C954DF4F88814A
:100A00009981AA81BB81C75BD04089A79AA7ABA770
:100A1000BCA720E030E040E85FE36DA17EA18FA19C
:100A200098A50E941E1F88231CF481E08DA71BC17E
:100A300020E03FEF4FE757E469A57AA58BA59CA579
:100A40000E947D20882309F00CF4CAC020E030E029
:100A50004AE754E469A17AA18BA19CA10E94231FBB
:100A6000C554DF4F688379838A839B83CB5BD040F7
:100A7000C554DF4F88819981AA81BB81CB5BD0406F
:100A80008EA79FA7A8ABB9AB20E030E04AE755E4BA
:100A90006EA57FA588A999A90E948220C154DF4F25
:100AA000688379838A839B83CF5BD040C154DF4FB7
:100AB00088819981AA81BB81CF5BD0408AAB9BABF7
:100AC000ACABBDAB20E030E040E85FE36AA97BA9B6
:100AD0008CA99DA90E941E1F88232CF481E090E020
:100AE0009FAB8EAB72C020E03FEF4FE757E46AA99F
:100AF0007BA98CA99DA90E947D20882309F00CF474
:100B00004EC020E030E040E251E46EA57FA588A908
:100B100099A90E948220CD53DF4F688379838A830D
:100B20009B83C35CD040CD53DF4F88819981AA81DC
:100B3000BB81C35CD040E7968CAF9DAFAEAFBFAF7B
:100B4000E797E7966CAD7DAD8EAD9FADE7970E94C0
:100B50009C1FC953DF4F688379838A839B83C75C5B
:100B6000D040C953DF4FA881B981C75CD040BFAB2B
:100B7000AEAB10C080E991E099AF88AF88AD99AD78
:100B80000197F1F799AF88AF00008EA99FA901974F
:100B90009FAB8EAB8EA99FA9009761F764C06AA92D
:100BA0007BA98CA99DA90E949C1FC553DF4F688318
:100BB00079838A839B83CB5CD040C553DF4FE88128
:100BC000F981CB5CD040FFABEEAB8EA99FA99BAF68
:100BD0008AAF8AAD9BAD0197F1F79BAF8AAF43C057
:100BE00020E030E04FE753E46DA17EA18FA198A5EE
:100BF0000E947D20882319F114F169A57AA58BA59F
:100C00009CA50E949C1FC153DF4F688379838A8310
:100C10009B83CF5CD040C153DF4F88819981CF5CEB
:100C2000D0409DAF8CAF8CAD9DAD9FAF8EAF8EADE4
:100C30009FAD0197F1F79FAF8EAF000028C06DA167
:100C40007EA18FA198A50E949C1FCD52DF4F688383
:100C500079838A839B83C35DD040CD52DF4F9881D7
:100C6000C35DD0409DA72DA5CE01805C9F4FDC01C8
:100C70002C93CE01805C9F4FFC018081282F2A9508
:100C8000F1F7CE01805C9F4FDC012C93000080E3E4
:100C90000E94300980E090E0A0EAB2E489839A8360
:100CA000AB83BC832BEA3AEA4AEA50E469817A8151
:100CB0008B819C810E948220C952DF4F6883798397
:100CC0008A839B83C75DD040C952DF4F8881998159
:100CD000AA81BB81C75DD0408D839E83AF83B887D7
:100CE00020E030E040E850E469817A818B819C818A
:100CF0000E948220C552DF4F688379838A839B8359
:100D0000CB5DD040C552DF4F88819981AA81BB81DC
:100D1000CB5DD04089879A87AB87BC8720E030E0E5
:100D200040E85FE36D817E818F8198850E941E1F60
:100D300088231CF481E08D871BC120E03FEF4FE743
:100D400057E469857A858B859C850E947D20882360
:100D500009F00CF4CAC020E030E04AE754E46981AD
:100D60007A818B819C810E94231FC152DF4F68834F
:100D700079838A839B83CF5DD040C152DF4F8881C6
:100D80009981AA81BB81CF5DD0408E879F87A88B38
:100D9000B98B20E030E04AE755E46E857F8588898D
:100DA00099890E948220CD51DF4F688379838A839D
:100DB0009B83C35ED040CD51DF4F88819981AA814A
:100DC000BB81C35ED0408A8B9B8BAC8BBD8B20E0FC
:100DD00030E040E85FE36A897B898C899D890E94C5
:100DE0001E1F88232CF481E090E09F8B8E8B72C0B5
:100DF00020E03FEF4FE757E46A897B898C899D8922
:100E00000E947D20882309F00CF44EC020E030E0E1
:100E100040E251E46E857F85888999890E9482200D
:100E2000C951DF4F688379838A839B83C75ED04033
:100E3000C951DF4F88819981AA81BB81C75ED040AB
:100E4000E3968CAF9DAFAEAFBFAFE397E3966CADCB
:100E50007DAD8EAD9FADE3970E949C1FC551DF4FC6
:100E6000688379838A839B83CB5ED040C551DF4FF3
:100E7000A881B981CB5ED040BF8BAE8B10C080E91A
:100E800091E0998F888F888D998D0197F1F7998FCF
:100E9000888F00008E899F8901979F8B8E8B8E890A
:100EA0009F89009761F764C06A897B898C899D89D5
:100EB0000E949C1FC151DF4F688379838A839B8383
:100EC000CF5ED040C151DF4FE881F981CF5ED04085
:100ED000FF8BEE8B8E899F899B8F8A8F8A8D9B8D4E
:100EE0000197F1F79B8F8A8F43C020E030E04FE7F6
:100EF00053E46D817E818F8198850E947D208823B7
:100F000019F114F169857A858B859C850E949C1F57
:100F1000CD50DF4F688379838A839B83C35FD04042
:100F2000CD50DF4F88819981C35FD0409D8F8C8FDA
:100F30008C8D9D8D9F8F8E8F8E8D9F8D0197F1F75C
:100F40009F8F8E8F00001BC06D817E818F81988561
:100F50000E949C1FC950DF4F688379838A839B83DB
:100F6000C75FD040C950DF4F9881C75FD0409D8791
:100F70008D8588A388A18A95F1F788A3000088E26F
:100F80000E9430090E94C80C88E20E9402090E9457
:100F9000C80C88E00E9402090E94C80C81E00E94EF
:100FA00002090E94C80C86E00E9402090E94C80C37
:100FB0008CE00E9402090000C650DF4F0FB6F89483
:100FC000DEBF0FBECDBFDF91CF911F910F9108956E
:100FD000CF93DF93CDB7DEB7AF970FB6F894DEBFF0
:100FE0000FBECDBF89A77BA76AA75DA74CA73FA768
:100FF0002EA725E0EAE1F2E0CE010196DC010190A6
:101000000D922A95E1F782E1EFE1F2E0DE015796D9
:1010100001900D928A95E1F78CA59DA58F3F9105D2
:1010200051F08CA59DA54AE050E09E012F5F3F4FF7
:10103000B9010E94F8208AA59BA562E072E00E9497
:10104000EF20009721F487E092E09BA78AA78EA566
:101050009FA562E072E00E94EF20009721F487E0F4
:1010600092E09FA78EA7CE014796292F2F938F93AB
:101070008FA58F938EA58F93CE0101969F938F930B
:101080008BA58F938AA58F9388E092E0892F8F9309
:1010900088E092E08F931F9281E18F93CE010696B4
:1010A000292F2F938F930E9428218DB79EB70E96DC
:1010B0000FB6F894DEBF0FBECDBF8AA59BA561E138
:1010C00072E00E94EF200097F1F4CE014796292F9D
:1010D0002F938F9387E192E0892F8F9387E192E09E
:1010E0008F931F9281E18F93CE010696292F2F9324
:1010F0008F930E9428218DB79EB708960FB6F8945B
:10110000DEBF0FBECDBF89A5882F90E0813091054D
:1011100021F08230910529F008C080E80E94020980
:1011200004C080EC0E9402090000CE0106960E94D5
:10113000A3080000AF960FB6F894DEBF0FBECDBF78
:10114000DF91CF910895CF93DF9300D00F92CDB769
:10115000DEB79C838B831A82198212C00E94C80C4E
:1011600089819A819C018B819C81820F931FFC0154
:1011700080810E94D40889819A8101969A8389830B
:1011800089819A819C018B819C81820F931FFC0134
:101190008081882319F7000000000F900F900F90B6
:1011A0000F90DF91CF910895CF93DF930F92CDB73A
:1011B000DEB7898388E290E0FC01208188E290E03C
:1011C0002B7FFC01208388E290E0FC01208188E2F3
:1011D00090E02260FC01208388E290E0FC01208105
:1011E00088E290E0277FFC01208389810E943009FA
:1011F00089818295807F0E94300900000F90DF91E5
:10120000CF910895CF93DF930F92CDB7DEB7898347
:1012100088E290E0FC01208188E290E02B7FFC01D5
:10122000208388E290E0FC01208188E290E02D7F1D
:10123000FC01208388E290E0FC01208188E290E0BC
:10124000277FFC01208389810E9430098981829552
:10125000807F0E94300900000F90DF91CF910895A8
:10126000CF93DF93CDB7DEB7C859D1090FB6F89445
:10127000DEBF0FBECDBF9E012A5B3F4FF9018083C9
:10128000CE018E5B9F4FFC0111821082FC01138204
:101290001282198228C0CE018A5B9F4FFC01808197
:1012A000882F90E02981222F30E047E050E0FA01BA
:1012B000E21BF30B9F01022E02C0959587950A94BD
:1012C000E2F781709927009759F08981882F90E083
:1012D0009E012E5B3F4F820F931F21E0FC01208374
:1012E00089818F5F898389818330A9F2A0F288E2A6
:1012F00090E0DC012C9188E290E02F70FC012083CB
:1013000088E290E0DC018C91382FCE018E5B9F4FFC
:10131000FC018081882F90E0B82FB695A82FA79563
:10132000AA27A7952A2FCE018E5B9F4FDC0111962D
:101330008C91882F90E0B82FB695B695C856DF4FA0
:10134000B883C859D040E82FE295EE0FEE0FE07C4D
:10135000C956DF4FE883C759D040C956DF4F88814F
:10136000C759D040282BCE018E5B9F4FDC011296CF
:101370008C91882F90E0782F769576957695682FCA
:101380006295660F607E862F282BCE018E5B9F4F65
:10139000FC018381882F90E082959295907F982719
:1013A000807F9827822B232F282B88E290E0DC0176
:1013B0002C9388E290E0FC01208188E290E0286094
:1013C000DC012C9380E090E0A0E8BFE38AA39BA31C
:1013D000ACA3BDA32BEA3AEA4AEA50E46AA17BA196
:1013E0008CA19DA10E94822063966CAF7DAF8EAFD1
:1013F0009FAF639763968CAD9DADAEADBFAD639768
:101400008EA39FA3A8A7B9A720E030E040E850E44E
:101410006AA17BA18CA19DA10E94822067966CAFDE
:101420007DAF8EAF9FAF679767968CAD9DADAEAD2C
:10143000BFAD67978AA79BA7ACA7BDA720E030E008
:1014400040E85FE36EA17FA188A599A50E941E1FB9
:1014500088231CF481E08EA70AC120E03FEF4FE70C
:1014600057E46AA57BA58CA59DA50E947D208823B5
:1014700009F00CF4B6C020E030E04AE754E46AA179
:101480007BA18CA19DA10E94231F6B966CAF7DAFA9
:101490008EAF9FAF6B976B968CAD9DADAEADBFAD74
:1014A0006B978FA798ABA9ABBAAB20E030E04AE7C7
:1014B00055E46FA578A989A99AA90E9482206F9600
:1014C0006CAF7DAF8EAF9FAF6F976F968CAD9DADBC
:1014D000AEADBFAD6F978BAB9CABADABBEAB20E001
:1014E00030E040E85FE36BA97CA98DA99EA90E942A
:1014F0001E1F88232CF481E090E098AF8FAB66C06C
:1015000020E03FEF4FE757E46BA97CA98DA99EA986
:101510000E947D20882309F00CF446C020E030E0D2
:1015200040E251E46FA578A989A99AA90E94822076
:10153000A3966CAF7DAF8EAF9FAFA397A3968CADF4
:101540009DADAEADBFADA3972F968CAF9DAFAEAFA7
:10155000BFAF2F972F966CAD7DAD8EAD9FAD2F9702
:101560000E949C1FA7966CAF7DAF8EAF9FAFA797D1
:10157000A596AEADBFADA597B8AFAFAB10C080E933
:1015800091E09AAF89AF89AD9AAD0197F1F79AAF23
:1015900089AF00008FA998AD019798AF8FAB8FA945
:1015A00098AD009761F763C06BA97CA98DA99EA92E
:1015B0000E949C1FAB966CAF7DAF8EAF9FAFAB9779
:1015C000A996EEADFFADA997F8AFEFAB8FA998AD97
:1015D0009CAF8BAF8BAD9CAD0197F1F79CAF8BAF00
:1015E00046C020E030E04FE753E46EA17FA188A51C
:1015F00099A50E947D20882351F14CF16AA57BA515
:101600008CA59DA50E949C1FAF966CAF7DAF8EAF41
:101610009FAFAF97AD968EAD9FADAD979EAF8DAF9F
:101620002DAD3EADCE01CF96DC012D933C93CE0186
:10163000CF96FC01808191810197F1F79E01215C99
:101640003F4FD90111969C938E93000024C06EA148
:101650007FA188A599A50E949C1FE3966CAF7DAFE2
:101660008EAF9FAFE397E096BFADE097BEA7CE01E8
:101670008F5B9F4F2EA5FC012083CE018F5B9F4F78
:10168000DC018C91282F2A95F1F7CE018F5B9F4FBB
:10169000FC012083000088E290E0DC012C9188E2CC
:1016A00090E0277FFC01208380E090E0A0E8BFE38A
:1016B0008A839B83AC83BD832BEA3AEA4AEA50E4EF
:1016C0006A817B818C819D810E948220E7966CAF2C
:1016D0007DAF8EAF9FAFE797E7968CAD9DADAEAD7A
:1016E000BFADE7978E839F83A887B98720E030E05E
:1016F00040E850E46A817B818C819D810E94822038
:10170000EB966CAF7DAF8EAF9FAFEB97EB968CAD4A
:101710009DADAEADBFADEB978A879B87AC87BD878C
:1017200020E030E040E85FE36E817F818885998525
:101730000E941E1F88231CF481E08E8717C120E0C1
:101740003FEF4FE757E46A857B858C859D850E9436
:101750007D20882309F00CF4C6C020E030E04AE781
:1017600054E46A817B818C819D810E94231FEF96C6
:101770006CAF7DAF8EAF9FAFEF97EF968CAD9DAD09
:10178000AEADBFADEF978F87988BA98BBA8B20E05A
:1017900030E04AE755E46F85788989899A890E9403
:1017A0008220C158DF4F688379838A839B83CF5718
:1017B000D040C158DF4F88819981AA81BB81CF5722
:1017C000D0408B8B9C8BAD8BBE8B20E030E040E813
:1017D0005FE36B897C898D899E890E941E1F882307
:1017E0002CF481E090E0988F8F8B72C020E03FEF67
:1017F0004FE757E46B897C898D899E890E947D2003
:10180000882309F00CF44EC020E030E040E251E4BF
:101810006F85788989899A890E948220CD57DF4F08
:10182000688379838A839B83C358D040CD57DF4F29
:1018300088819981AA81BB81C358D0402B968CAFF7
:101840009DAFAEAFBFAF2B972B966CAD7DAD8EAD80
:101850009FAD2B970E949C1FC957DF4F68837983E8
:101860008A839B83C758D040C957DF4FA881B9816D
:10187000C758D040B88FAF8B10C080E991E09A8FE5
:10188000898F898D9A8D0197F1F79A8F898F000042
:101890008F89988D0197988F8F8B8F89988D00975E
:1018A00061F764C06B897C898D899E890E949C1F29
:1018B000C557DF4F688379838A839B83CB58D04099
:1018C000C557DF4FE881F981CB58D040F88FEF8BB7
:1018D0008F89988D9C8F8B8F8B8D9C8D0197F1F7C5
:1018E0009C8F8B8F43C020E030E04FE753E46E8144
:1018F0007F81888599850E947D20882319F114F1C4
:101900006A857B858C859D850E949C1FC157DF4F12
:10191000688379838A839B83CF58D040C157DF4F38
:1019200088819981CF58D0409E8F8D8F8D8D9E8DCF
:1019300098A38F8F8F8D98A10197F1F798A38F8F20
:1019400000001BC06E817F81888599850E949C1F45
:10195000CD56DF4F688379838A839B83C359D040F8
:10196000CD56DF4F9881C359D0409E878E8589A37D
:1019700089A18A95F1F789A300000000C856DF4FBE
:101980000FB6F894DEBF0FBECDBFDF91CF910895A3
:101990000F931F93CF93DF93CDB7DEB7C152D140E2
:1019A0000FB6F894DEBF0FBECDBF87E290E0DC013A
:1019B0002C9187E290E02F77FC01208388E290E071
:1019C000DC012C9188E290E02D7FFC01208388E2ED
:1019D00090E0DC012C9188E290E02460FC012083FF
:1019E000198288E290E0DC012C9188E290E0286086
:1019F000FC0120839E012E593F4F80E090E0A0E83B
:101A0000BFE3F90180839183A283B3838E010A59D6
:101A10001F4FCE018E599F4F2BEA3AEA4AEA50E413
:101A2000DC016D917D918D919C910E948220CE561A
:101A3000DF4F688379838A839B83C259D040CE5617
:101A4000DF4F88819981AA81BB81C259D040F801BA
:101A500080839183A283B3838E0106591F4FCE01E9
:101A60008E599F4F20E030E040E850E4DC016D915A
:101A70007D918D919C910E948220CA56DF4F688390
:101A800079838A839B83C659D040CA56DF4F8881A9
:101A90009981AA81BB81C659D040F8018083918386
:101AA000A283B383CE018A599F4F20E030E040E803
:101AB0005FE3DC016D917D918D919C910E941E1FD1
:101AC00088233CF4CE0182599F4F21E0FC01208302
:101AD000A0C1CE0186599F4F20E03FEF4FE757E46A
:101AE000DC016D917D918D919C910E947D208823D8
:101AF00009F00CF426C1CE018E599F4F20E030E052
:101B00004AE754E4FC0160817181828193810E94E3
:101B1000231FC656DF4F688379838A839B83CA5904
:101B2000D040C656DF4F88819981AA81BB81CA59AE
:101B3000D0409E0121593F4FF90180839183A283B8
:101B4000B3838E010D581F4FCE0181599F4F20E066
:101B500030E04AE755E4DC016D917D918D919C91D7
:101B60000E948220C256DF4F688379838A839B83D9
:101B7000CE59D040C256DF4F88819981AA81BB815E
:101B8000CE59D040F80180839183A283B383CE01E4
:101B90008D589F4F20E030E040E85FE3DC016D911D
:101BA0007D918D919C910E941E1F88234CF4CE0143
:101BB00089589F4F21E030E0FC0131832083A5C08C
:101BC000CE018D589F4F20E03FEF4FE757E4DC01F7
:101BD0006D917D918D919C910E947D20882309F0CB
:101BE0000CF475C0CE0181599F4F20E030E040E2F7
:101BF00051E4FC0160817181828193810E94822085
:101C0000CE55DF4F688379838A839B83C25AD04045
:101C1000CE55DF4F88819981AA81BB81C25AD040BD
:101C2000C257DF4F88839983AA83BB83CE58D040A5
:101C30008E0109581F4FC257DF4F688179818A8111
:101C40009B81CE58D0400E949C1FCA55DF4F6883AD
:101C500079838A839B83C65AD040CA55DF4FE88177
:101C6000F981C65AD040D8011196FC93EE9326C054
:101C7000CE0187589F4F20E931E0DC012D933C9342
:101C8000CE0187589F4FFC01808191810197F1F728
:101C90009E0127583F4FD9018D939C930000CE01A0
:101CA00089589F4F9E0129583F4FF901208131816A
:101CB00021503109DC0111963C932E93CE018958B5
:101CC0009F4FFC0180819181009791F6A2C08E0107
:101CD00009581F4FCE018D589F4FDC016D917D91AA
:101CE0008D919C910E949C1FC655DF4F688379831C
:101CF0008A839B83CA5AD040C655DF4F8881998119
:101D0000CA5AD040F80191838083CE0185589F4FF5
:101D10009E0129583F4FD9012D913C91FC013183FF
:101D20002083CE0185589F4FDC018D919C911197A6
:101D30000197F1F79E0125583F4FF9019183808368
:101D400068C0CE018A599F4F20E030E04FE753E44E
:101D5000DC016D917D918D919C910E947D20882365
:101D6000E1F1DCF18E0103581F4FCE0186599F4FE0
:101D7000FC0160817181828193810E949C1FC25508
:101D8000DF4F688379838A839B83CE5AD040C255C4
:101D9000DF4FE881F981CE5AD040D801ED93FC9312
:101DA000CE0181589F4F9E0123583F4FD9012D915D
:101DB0003C91FC0131832083CE0181589F4FDC018F
:101DC0008D919C9111970197F1F79E0121583F4FFA
:101DD000F90191838083000034C08E0102591F4FA6
:101DE000CE018A599F4FDC016D917D918D919C911F
:101DF0000E949C1FCE54DF4F688379838A839B8324
:101E0000C25BD040CE54DF4F8881C25BD040F80126
:101E10008083CE018F579F4F9E0122593F4FD9019A
:101E20002C91FC012083CE018F579F4FDC018C91B8
:101E3000282F2A95F1F7CE018F579F4FFC01208361
:101E4000000086E290E0DC018C91882F90E08078A1
:101E50009927982F8981892B898388E290E0FC015A
:101E6000208188E290E0277FDC012C939E012E5B8D
:101E70003F4F80E090E0A0E8BFE3F90180839183C9
:101E8000A283B3838E010A5B1F4FCE018E5B9F4FEF
:101E90002BEA3AEA4AEA50E4DC016D917D918D919A
:101EA0009C910E948220CA54DF4F688379838A8381
:101EB0009B83C65BD040CA54DF4F88819981AA8139
:101EC000BB81C65BD040F80180839183A283B3833A
:101ED0008E01065B1F4FCE018E5B9F4F20E030E0EE
:101EE00040E850E4DC016D917D918D919C910E94C0
:101EF0008220C654DF4F688379838A839B83CA5BC1
:101F0000D040C654DF4F88819981AA81BB81CA5BCA
:101F1000D040F80180839183A283B383CE018A5B92
:101F20009F4F20E030E040E85FE3DC016D917D9160
:101F30008D919C910E941E1F88233CF4CE01825BF0
:101F40009F4F21E0FC012083A0C1CE01865B9F4F03
:101F500020E03FEF4FE757E4DC016D917D918D91DB
:101F60009C910E947D20882309F00CF426C1CE01AB
:101F70008E5B9F4F20E030E04AE754E4FC01608133
:101F80007181828193810E94231FC254DF4F688335
:101F900079838A839B83CE5BD040C254DF4F888194
:101FA0009981AA81BB81CE5BD0409E01215B3F4FCE
:101FB000F90180839183A283B3838E010D5A1F4F51
:101FC000CE01815B9F4F20E030E04AE755E4DC0121
:101FD0006D917D918D919C910E948220CE53DF4F17
:101FE000688379838A839B83C25CD040CE53DF4F62
:101FF00088819981AA81BB81C25CD040F80180832D
:102000009183A283B383CE018D5A9F4F20E030E0AD
:1020100040E85FE3DC016D917D918D919C910E9480
:102020001E1F88234CF4CE01895A9F4F21E030E0D7
:10203000FC0131832083A5C0CE018D5A9F4F20E043
:102040003FEF4FE757E4DC016D917D918D919C91BD
:102050000E947D20882309F00CF475C0CE01815BBD
:102060009F4F20E030E040E251E4FC01608171814B
:10207000828193810E948220CA53DF4F68837983D3
:102080008A839B83C65CD040CA53DF4F8881998185
:10209000AA81BB81C65CD040C657DF4F8883998335
:1020A000AA83BB83CA58D0408E01095A1F4FC65716
:1020B000DF4F688179818A819B81CA58D0400E9414
:1020C0009C1FC653DF4F688379838A839B83CA5CD6
:1020D000D040C653DF4FE881F981CA5CD040D801B7
:1020E0001196FC93EE9326C0CE01875A9F4F20E9AC
:1020F00031E0DC012D933C93CE01875A9F4FFC01C8
:10210000808191810197F1F79E01275A3F4FD901B4
:102110008D939C930000CE01895A9F4F9E01295AAE
:102120003F4FF9012081318121503109DC011196A5
:102130003C932E93CE01895A9F4FFC01808191815F
:10214000009791F6A2C08E01095A1F4FCE018D5AF9
:102150009F4FDC016D917D918D919C910E949C1F00
:10216000C253DF4F688379838A839B83CE5CD040E0
:10217000C253DF4F88819981CE5CD040F8019183B2
:102180008083CE01855A9F4F9E01295A3F4FD90126
:102190002D913C91FC0131832083CE01855A9F4FC4
:1021A000DC018D919C9111970197F1F79E01255AC1
:1021B0003F4FF9019183808368C0CE018A5B9F4FB6
:1021C00020E030E04FE753E4DC016D917D918D918B
:1021D0009C910E947D208823E1F1DCF18E01035A5D
:1021E0001F4FCE01865B9F4FFC0160817181828110
:1021F00093810E949C1FCE52DF4F688379838A832C
:102200009B83C25DD040CE52DF4FE881F981C25D31
:10221000D040D801ED93FC93CE01815A9F4F9E018F
:10222000235A3F4FD9012D913C91FC0131832083EA
:10223000CE01815A9F4FDC018D919C91119701979E
:10224000F1F79E01215A3F4FF901918380830000ED
:1022500034C08E01025B1F4FCE018A5B9F4FDC01B1
:102260006D917D918D919C910E949C1FCA52DF4F70
:10227000688379838A839B83C65DD040CA52DF4FCF
:102280008881C65DD040F8018083CE018F599F4F71
:102290009E01225B3F4FD9012C91FC012083CE018E
:1022A0008F599F4FDC018C91282F2A95F1F7CE0191
:1022B0008F599F4FFC012083000088E290E0DC01F1
:1022C0002C9188E290E02860FC01208380E090E07F
:1022D000A0E8BFE38AA39BA3ACA3BDA32BEA3AEA81
:1022E0004AEA50E46AA17BA18CA19DA10E948220B0
:1022F000C652DF4F688379838A839B83CA5DD0404F
:10230000C652DF4F88819981AA81BB81CA5DD040C6
:102310008EA39FA3A8A7B9A720E030E040E850E42F
:102320006AA17BA18CA19DA10E948220C252DF4F95
:10233000688379838A839B83CE5DD040C252DF4F0E
:1023400088819981AA81BB81CE5DD0408AA79BA755
:10235000ACA7BDA720E030E040E85FE36EA17FA11D
:1023600088A599A50E941E1F88231CF481E08EA7D2
:102370002AC120E03FEF4FE757E46AA57BA58CA573
:102380009DA50E947D20882309F00CF4CEC020E09A
:1023900030E04AE754E46AA17BA18CA19DA10E9490
:1023A000231FCE51DF4F688379838A839B83C25E6C
:1023B000D040CE51DF4F88819981AA81BB81C25E16
:1023C000D0408FA798ABA9ABBAAB20E030E04AE78A
:1023D00055E46FA578A989A99AA90E948220CA51BB
:1023E000DF4F688379838A839B83C65ED040CA515E
:1023F000DF4F88819981AA81BB81C65ED0408BABBB
:102400009CABADABBEAB20E030E040E85FE36BA936
:102410007CA98DA99EA90E941E1F88232CF481E00F
:1024200090E098AF8FAB76C020E03FEF4FE757E4E6
:102430006BA97CA98DA99EA90E947D20882309F003
:102440000CF452C020E030E040E251E46FA578A9DE
:1024500089A99AA90E948220C651DF4F6883798397
:102460008A839B83CA5ED040C651DF4F88819981A1
:10247000AA81BB81CA5ED040CA57DF4F8883998347
:10248000AA83BB83C658D040CA57DF4F6881798181
:102490008A819B81C658D0400E949C1FC251DF4F49
:1024A000688379838A839B83CE5ED040C251DF4F9D
:1024B000A881B981CE5ED040B8AFAFAB10C080E983
:1024C00091E09AAF89AF89AD9AAD0197F1F79AAFD4
:1024D00089AF00008FA998AD019798AF8FAB8FA9F6
:1024E00098AD009761F76FC06BA97CA98DA99EA9D3
:1024F0000E949C1FCE50DF4F688379838A839B8321
:10250000C25FD040CE50DF4FE881F981C25FD0403A
:10251000F8AFEFAB8FA998AD9CAF8BAF8BAD9CADF7
:102520000197F1F79CAF8BAF4EC020E030E04FE752
:1025300053E46EA17FA188A599A50E947D208823E0
:1025400071F16CF16AA57BA58CA59DA50E949C1FCD
:10255000CA50DF4F688379838A839B83C65FD040EC
:10256000CA50DF4F88819981C65FD0409EAF8DAF42
:102570002DAD3EADCE01CF96DC012D933C93CE0127
:10258000CF96FC01808191810197F1F79E01215C3A
:102590003F4FD90111969C938E93000028C06EA1E5
:1025A0007FA188A599A50E949C1FC650DF4F688314
:1025B00079838A839B83CA5FD040C650DF4FB8813E
:1025C000CA5FD040BEA7CE018F5B9F4F2EA5FC01F6
:1025D0002083CE018F5B9F4FDC018C91282F2A95A1
:1025E000F1F7CE018F5B9F4FFC012083000088E252
:1025F00090E0DC012C9188E290E0277FFC012083B1
:1026000080E090E0A0E8BFE38A839B83AC83BD8336
:102610002BEA3AEA4AEA50E46A817B818C819D8107
:102620000E948220C250DF4F688379838A839B8314
:10263000CE5FD040C250DF4F88819981AA81BB8193
:10264000CE5FD0408E839F83A887B98720E030E09B
:1026500040E850E46A817B818C819D810E948220C8
:10266000CE5FDE4F688379838A839B83C250D140DB
:10267000CE5FDE4F88819981AA81BB81C250D14053
:102680008A879B87AC87BD8720E030E040E85FE326
:102690006E817F81888599850E941E1F88231CF486
:1026A00081E08E871FC120E03FEF4FE757E46A8546
:1026B0007B858C859D850E947D20882309F00CF404
:1026C000CEC020E030E04AE754E46A817B818C810F
:1026D0009D810E94231FCA5FDE4F688379838A83AE
:1026E0009B83C650D140CA5FDE4F88819981AA8101
:1026F000BB81C650D1408F87988BA98BBA8B20E0C5
:1027000030E04AE755E46F85788989899A890E9483
:102710008220C65FDE4F688379838A839B83CA5099
:10272000D140C65FDE4F88819981AA81BB81CA50A2
:10273000D1408B8B9C8BAD8BBE8B20E030E040E892
:102740005FE36B897C898D899E890E941E1F882387
:102750002CF481E090E0988F8F8B76C020E03FEFE3
:102760004FE757E46B897C898D899E890E947D2083
:10277000882309F00CF452C020E030E040E251E43C
:102780006F85788989899A890E948220C25FDE4F8D
:10279000688379838A839B83CE50D140C25FDE4FAA
:1027A00088819981AA81BB81CE50D140CE57DF4F1D
:1027B00088839983AA83BB83C258D040CE57DF4F0A
:1027C000688179818A819B81C258D0400E949C1F78
:1027D000CE5EDE4F688379838A839B83C251D1406A
:1027E000CE5EDE4FA881B981C251D140B88FAF8B88
:1027F00010C080E991E09A8F898F898D9A8D019719
:10280000F1F79A8F898F00008F89988D0197988FA3
:102810008F8B8F89988D009761F764C06B897C8955
:102820008D899E890E949C1FCA5EDE4F68837983D2
:102830008A839B83C651D140CA5EDE4FE881F9810D
:10284000C651D140F88FEF8B8F89988D9C8F8B8FDD
:102850008B8D9C8D0197F1F79C8F8B8F43C020E06F
:1028600030E04FE753E46E817F81888599850E942F
:102870007D20882319F114F16A857B858C859D85DF
:102880000E949C1FC65EDE4F688379838A839B8388
:10289000CA51D140C65EDE4F88819981CA51D1406C
:1028A0009E8F8D8F8D8D9E8D98A38F8F8F8D98A1EC
:1028B0000197F1F798A38F8F00001BC06E817F8175
:1028C000888599850E949C1FC25EDE4F688379834C
:1028D0008A839B83CE51D140C25EDE4F9881CE5118
:1028E000D1409E878E8589A389A18A95F1F789A316
:1028F00000008981882309F073C888E290E0DC0138
:102900002C9188E290E02B7FFC01208387E290E00D
:10291000DC012C9187E290E02068FC01208300001C
:10292000CF5DDE4F0FB6F894DEBF0FBECDBFDF9197
:10293000CF911F910F910895CF93DF9300D0CDB722
:10294000DEB789837B836A838981882F90E0813019
:10295000910521F08230910529F008C080E80E949D
:10296000020904C080EC0E940209000000000F90E0
:102970000F900F90DF91CF910895CF93DF93CDB754
:10298000DEB70E94D1140E94E2140E94F3140E9448
:102990001D150E9404150E947F150000DF91CF9144
:1029A0000895CF93DF93CDB7DEB781E290E0FC01CD
:1029B000208181E290E0286FFC0120830000DF91FC
:1029C000CF910895CF93DF93CDB7DEB78AE091E042
:1029D000FC0120818AE091E02460FC01208300005A
:1029E000DF91CF910895CF93DF93CDB7DEB781E22A
:1029F00090E0FC01208181E290E0287FFC012083AF
:102A00000000DF91CF910895CF93DF93CDB7DEB76C
:102A10008DE290E0FC0180818DE290E0FC0110826B
:102A200083E390E0FC01208183E390E02072FC01CD
:102A300020830000DF91CF910895CF93DF93CDB72E
:102A4000DEB784E290E0FC01208184E290E0206621
:102A5000FC01208381E890E0FC01208181E890E086
:102A60002560FC01208380E890E0FC01208180E863
:102A700090E02960FC01208388E890E02FE730E0B7
:102A8000FC01318320838AE890E02FE730E0FC01ED
:102A90003183208381E091E0FC01208181E091E09D
:102AA0002861FC01208381EA90E0FC01208181EA19
:102AB00090E02560FC01208380EA90E0FC01208109
:102AC00080EA90E02960FC01208388EA90E02FE70B
:102AD00030E0FC01318320838AEA90E02FE730E088
:102AE000FC013183208380E090E00E943A1A80E06C
:102AF00090E00E94711A0000DF91CF910895CF936A
:102B0000DF93CDB7DEB78AE091E0FC0120818AE057
:102B100091E02E7FFC01208384E290E0FC01208183
:102B200084E290E02260FC01208384E290E0FC01DA
:102B3000208184E290E02160FC01208384E290E027
:102B4000FC01208184E290E02460FC01208382E08B
:102B500091E0FC01208182E091E0277FFC0120834D
:102B600082E091E0FC01208182E091E02F7EFC0177
:102B7000208381EA90E022E0FC01208381EA90E05A
:102B8000FC01208181EA90E02068FC01208381EA39
:102B900090E0FC01208181EA90E02064FC01208328
:102BA00082E790E0FC01208182E790E02162FC0155
:102BB000208389E390E021E2FC01208384EA90E015
:102BC000FC011182108210923F0210923E02789412
:102BD0000000DF91CF910895CF93DF930F920F9272
:102BE000CDB7DEB78091000290910102817090789C
:102BF000992324F401978E6F9F6F01969A8389839E
:102C000089819A810F900F90DF91CF910895CF9392
:102C1000DF930F920F92CDB7DEB79A8389838981B4
:102C20009A81009751F082E290E0FC01208182E2DB
:102C300090E02860FC01208309C082E290E0FC0162
:102C4000208182E290E0277FFC01208300000F902A
:102C50000F90DF91CF910895CF93DF930F920F9252
:102C6000CDB7DEB79A83898389819A81009751F025
:102C700082E290E0FC01208182E290E02061FC0190
:102C8000208309C082E290E0FC01208182E290E092
:102C90002F7EFC01208300000F900F90DF91CF91D9
:102CA0000895CF93DF930F920F92CDB7DEB79A833B
:102CB000898389819A81009751F082E290E0FC013A
:102CC000208182E290E02062FC01208309C082E240
:102CD00090E0FC01208182E290E02F7DFC012083C6
:102CE00000000F900F90DF91CF910895CF93DF9365
:102CF0000F920F92CDB7DEB79A83898389819A812B
:102D0000009751F082E290E0FC01208182E290E0A5
:102D10002064FC01208309C082E290E0FC01208154
:102D200082E290E02F7BFC01208300000F900F9047
:102D3000DF91CF910895CF93DF930F920F92CDB78C
:102D4000DEB79A83898389819A81009751F082E264
:102D500090E0FC01208182E290E02068FC01208369
:102D600009C082E290E0FC01208182E290E02F77AE
:102D7000FC01208300000F900F90DF91CF91089508
:102D8000CF93DF930F920F92CDB7DEB79A838983EB
:102D900089819A81009751F08BE091E0FC012081BC
:102DA0008BE091E02460FC01208309C08BE091E07E
:102DB000FC0120818BE091E02B7FFC01208300004F
:102DC0000F900F90DF91CF910895CF93DF93CDB700
:102DD000DEB780E290E0FC018081882F90E0847073
:102DE0009927009719F480E090E00DC080E290E010
:102DF000FC018081882F90E084709927009719F05A
:102E000081E090E000C0DF91CF910895CF93DF93F0
:102E1000CDB7DEB780E290E0FC018081882F90E0A2
:102E200081709927009719F480E090E00DC080E24E
:102E300090E0FC018081882F90E0817099270097B5
:102E400019F081E090E000C0DF91CF910895CF9319
:102E5000DF93CDB7DEB780E290E0FC018081882F60
:102E600090E082709927009719F480E090E00DC0FF
:102E700080E290E0FC018081882F90E082709927A9
:102E8000009719F081E090E000C0DF91CF910895A4
:102E9000CF93DF93CDB7DEB78CE290E0FC01808169
:102EA000882F90E080719927009719F480E090E0D6
:102EB0000DC08CE290E0FC018081882F90E0807151
:102EC0009927009719F081E090E000C0DF91CF9141
:102ED0000895CF93DF93CDB7DEB78CE290E0FC018D
:102EE0008081882F90E080729927009719F480E004
:102EF00090E00DC08CE290E0FC018081882F90E092
:102F000080729927009719F081E090E000C0DF916E
:102F1000CF910895CF93DF93CDB7DEB782E390E0F2
:102F2000FC018081882F90E080729927009719F426
:102F300080E090E00DC082E390E0FC018081882F6A
:102F400090E080729927009719F081E090E000C02E
:102F5000DF91CF910895CF93DF93CDB7DEB78CE2A9
:102F600090E0FC018081882F90E08870992700977D
:102F700019F480E090E00DC08CE290E0FC018081CB
:102F8000882F90E088709927009719F081E090E0F1
:102F900000C0DF91CF910895CF93DF93CDB7DEB717
:102FA000C656D1090FB6F894DEBF0FBECDBF9AA3A7
:102FB00089A389A19AA18330910509F456C089A1FA
:102FC0009AA18330910509F0A4F489A19AA18230D5
:102FD0009105C1F189A19AA18230910509F04CF4C3
:102FE00089A19AA1009741F089A19AA18130910508
:102FF000B1F080E090E034C285E290E0DC012C91F9
:1030000085E290E02E7FFC01208385E290E0DC01E8
:103010002C9185E290E02D7FFC01208339C085E270
:1030200090E0DC012C9185E290E02160FC0120839E
:1030300085E290E0DC012C9185E290E02D7FFC019F
:10304000208326C085E290E0DC012C9185E290E0AF
:103050002E7FFC01208385E290E0DC012C9185E24B
:1030600090E02260FC01208313C085E290E0DC0147
:103070002C9185E290E02160FC01208385E290E0C4
:10308000DC012C9185E290E02260FC0120830000AD
:1030900085E290E0DC012C9185E290E02460FC0167
:1030A000208380E090E0A0E0B0E489839A83AB8342
:1030B000BC832BEA3AEA4AEA50E469817A818B813F
:1030C0009C810E9482206BAB7CAB8DAB9EAB2BA90D
:1030D0003CA94DA95EA92D833E834F83588720E0EC
:1030E00030E040E850E469817A818B819C810E94C4
:1030F00082206FAB78AF89AF9AAF8FA998ADA9AD99
:10310000BAAD89879A87AB87BC8720E030E040E87A
:103110005FE36D817E818F8198850E941E1F8823C9
:103120001CF481E08D87F7C020E03FEF4FE757E4C4
:1031300069857A858B859C850E947D20882309F08E
:103140000CF4AEC020E030E04AE754E469817A81B3
:103150008B819C810E94231F6BAF7CAF8DAF9EAF94
:103160008BAD9CADADADBEAD8E879F87A88BB98B67
:1031700020E030E04AE755E46E857F8588899989AB
:103180000E94822023966CAF7DAF8EAF9FAF2397B6
:1031900023962CAD3DAD4EAD5FAD23972A8B3B8B77
:1031A0004C8B5D8B20E030E040E85FE36A897B89EF
:1031B0008C899D890E941E1F88232CF481E090E059
:1031C0009F8B8E8B62C020E03FEF4FE757E46A8908
:1031D0007B898C899D890E947D20882309F00CF4CD
:1031E00042C020E030E040E251E46E857F8588896E
:1031F00099890E94822027966CAF7DAF8EAF9FAFDA
:10320000279727968CAD9DADAEADBFAD27978FA705
:1032100098ABA9ABBAAB6FA578A989A99AA90E9466
:103220009C1F2B966CAF7DAF8EAF9FAF2B972996CF
:10323000AEADBFAD2997BF8BAE8B10C080E991E0DA
:10324000998F888F888D998D0197F1F7998F888F45
:1032500000008E899F8901979F8B8E8B8E899F8915
:10326000009761F758C06A897B898C899D890E9483
:103270009C1F2F966CAF7DAF8EAF9FAF2F972D9673
:10328000EEADFFAD2D97FF8BEE8B8E899F899B8FC7
:103290008A8F8A8D9B8D0197F1F79B8F8A8F3BC018
:1032A00020E030E04FE753E46D817E818F81988587
:1032B0000E947D208823F9F0F4F069857A858B855A
:1032C0009C850E949C1F63966CAF7DAF8EAF9FAFB5
:1032D000639761962EAD3FAD61973D8F2C8F8C8D9E
:1032E0009D8D9F8F8E8F8E8D9F8D0197F1F79F8F74
:1032F0008E8F000017C06D817E818F8198850E941E
:103300009C1F67966CAF7DAF8EAF9FAF679764963B
:103310003FAD64973D878D8588A388A18A95F1F795
:1033200088A3000085E290E0DC012C9185E290E02A
:103330002B7FFC01208310923F0210923E0284EA10
:1033400090E0DC0111961C921E9281EA90E0FC0153
:10335000208181EA90E02160DC012C9382E790E0FB
:10336000FC01208182E790E02062DC012C930000C8
:1033700080913E0290913F0281309105C9F3C4F3E0
:1033800080914202909143029C01990F440B550B8E
:103390006B962CAF3DAF4EAF5FAF6B976B966CAD3E
:1033A0007DAD8EAD9FAD6B970E94CD1F6BA37CA3AF
:1033B0008DA39EA323EE35EA4BE55FE36BA17CA1D1
:1033C0008DA19EA10E9482206F966CAF7DAF8EAFC3
:1033D0009FAF6F976F968CAD9DADAEADBFAD6F9744
:1033E0008FA398A7A9A7BAA720E030E040EA51E44C
:1033F0006FA178A589A59AA50E94B11EA3966CAF6E
:103400007DAF8EAF9FAFA397A3962CAD3DAD4EADD4
:103410005FADA3972BA73CA74DA75EA76BA57CA587
:103420008DA59EA50E94951FA7966CAF7DAF8EAF10
:103430009FAFA797A5968EAD9FADA597909341029C
:10344000809340028091400290914102992324F49C
:1034500010924102109240028091400290914102EC
:10346000CA59DF4F0FB6F894DEBF0FBECDBFDF9154
:10347000CF910895CF93DF930F920F92CDB7DEB720
:103480009A83898389819A81009799F080E890E0F6
:10349000FC01208180E890E02F77FC01208380E808
:1034A00090E0FC01208180E890E02062FC01208314
:1034B00012C080E890E0FC01208180E890E02F7D40
:1034C000FC01208380E890E0FC01208180E890E00E
:1034D0002068FC01208300000F900F90DF91CF91B6
:1034E0000895CF93DF930F920F92CDB7DEB79A83F3
:1034F000898389819A81009799F080EA90E0FC01A4
:10350000208180EA90E02F7DFC01208380EA90E01A
:10351000FC01208180EA90E02068FC01208312C039
:1035200080EA90E0FC01208180EA90E02F77FC01A6
:10353000208380EA90E0FC01208180EA90E0206214
:10354000FC01208300000F900F90DF91CF91089530
:10355000CF93DF930F920F92CDB7DEB79A83898313
:1035600088EA90E029813A81FC01318320838AEA4C
:1035700090E029813A81FC013183208300000F9083
:103580000F90DF91CF910895CF93DF930F920F9219
:10359000CDB7DEB79A83898388E890E029813A81A4
:1035A000FC01318320838AE890E029813A81FC0183
:1035B0003183208300000F900F90DF91CF91089509
:1035C0001F920F920FB60F9211240BB60F922F93EA
:1035D0008F939F93EF93FF93CF93DF93CDB7DEB796
:1035E00080913E0290913F020097B9F486EA90E004
:1035F000FC0180819181909345028093440281EA8D
:1036000090E0FC01208181EA90E02F7BFC01208387
:1036100084EA90E0FC011182108280913E02909138
:103620003F028130910549F586EA90E0FC018081F6
:103630009181909343028093420281EA90E0FC01E1
:10364000208181EA90E02064FC01208382E790E001
:10365000FC01208182E790E02F7DFC01208381EA3C
:1036600090E0FC01208181EA90E02E7FFC01208324
:1036700084E890E0FC011182108280913E029091DA
:103680003F02019690933F0280933E020000DF913B
:10369000CF91FF91EF919F918F912F910F900BBE42
:1036A0000F900FBE0F901F9018951F920F920FB69C
:1036B0000F9211240BB60F922F938F939F93EF933A
:1036C000FF93CF93DF93CDB7DEB783E090E0909385
:1036D0003F0280933E0210924302109242021092E7
:1036E00045021092440281EA90E0FC01208181EAC7
:1036F00090E02064FC01208382E790E0FC012081BF
:1037000082E790E02F7DFC01208381EA90E0FC01BC
:10371000208181EA90E02E7FFC01208384E890E004
:10372000FC01118210820000DF91CF91FF91EF9197
:103730009F918F912F910F900BBE0F900FBE0F9006
:103740001F901895CF93DF93CDB7DEB7CA54D10938
:103750000FB6F894DEBF0FBECDBF0E94BD1485E04A
:1037600090E09A83898389819A81092E000CAA0BA3
:10377000BB0B86309105A105B10509F0A0F7FC014E
:103780008827EF5BFB4D8F4F0C94A91E80E090E0E3
:103790000E94761681E090E00E949B1680E090E007
:1037A0000E94C41A80E090E00E94A81A80E090E095
:1037B0000E943A1A80E090E00E94711AC9C281E02A
:1037C00090E00E94761684E190E00E94C41A85E1A0
:1037D00090E00E94A81A81E090E00E943A1A81E0ED
:1037E00090E00E94711A0E94E516009729F084E08B
:1037F00090E09A838983ACC20E940617009781F0FB
:1038000080913202909133028130910549F41092F7
:1038100033021092320285E090E09A83898398C245
:103820000E944817009789F08091360290913702E4
:10383000009759F481E090E090933702809336022C
:1038400086E090E09A83898383C20E94481700979C
:1038500059F48091360290913702009729F0109226
:1038600037021092360274C20E946917009789F0DD
:103870008091340290913502009759F481E090E0F4
:10388000909335028093340286E090E09A83898396
:103890005FC20E946917009759F480913402909199
:1038A0003502009729F0109235021092340250C26E
:1038B0000E948A17009749F40E94EC15009729F49A
:1038C00082E090E09A83898343C20E94AB170097FD
:1038D00009F037C20E94EC158130910509F031C220
:1038E00081E090E09A83898333C280E090E00E9477
:1038F000761685E290E0DC012C9185E290E0206470
:10390000FC01208385E290E0DC012C9185E290E0CF
:103910002068FC0120838AE091E0DC012C918AE0A0
:1039200091E02D7FFC0120838AE091E0DC012C9165
:103930008AE091E02B7FFC01208380E090E00E94F0
:10394000711A80E090E00E943A1A0E94E5160097F2
:1039500029F084E090E09A838983FAC10E940617D7
:10396000009709F4F0C180913202909133020097E0
:1039700009F0E9C181E090E0909333028093320234
:103980001A821982E5C18AE090E00E94C41A85E19A
:1039900090E00E94A81A0E94E516009709F4D5C18C
:1039A00084E090E09A838983D3C184E190E00E940F
:1039B000C41A8AE090E00E94A81A81E090E00E9478
:1039C000CC17009709F4C3C10E94E516009709F4CB
:1039D000BEC184E090E09A838983BAC181E090E01F
:1039E0000E945116B5C180E090E00E94C41A80E0A8
:1039F00090E00E94A81A80E090E00E943A1A80E0CD
:103A000090E00E94711A80913602909137020097DF
:103A100071F080913A0290913B02019690933B02A3
:103A200080933A0281E090E00E942C1613C08091AE
:103A3000340290913502009769F08091380290919C
:103A400039020196909339028093380281E090E028
:103A50000E94071681E090E00E94C0161C821B8223
:103A60009DC00E94E516009729F084E090E09A83BB
:103A700089839BC080E090E0A8ECB2E48F839887B4
:103A8000A987BA8720E030E04AE755E46F8178855E
:103A900089859A850E9482206BA77CA78DA79EA707
:103AA0008BA59CA5ADA5BEA58B879C87AD87BE8742
:103AB00020E030E040E85FE36B857C858D859E8566
:103AC0000E941E1F88232CF481E090E0988B8F8742
:103AD00055C020E03FEF4FE757E46B857C858D852F
:103AE0009E850E947D208823D9F1D4F120E030E02A
:103AF00040E251E46F81788589859A850E94822011
:103B00006FA778AB89AB9AAB8FA598A9A9A9BAA9D9
:103B10008BA39CA3ADA3BEA36BA17CA18DA19EA1F1
:103B20000E949C1F6BAB7CAB8DAB9EABABA9BCA9C1
:103B3000B88BAF8710C080E991E09A8B898B898917
:103B40009A890197F1F79A8B898B00008F85988964
:103B50000197988B8F878F859889009761F719C097
:103B60006B857C858D859E850E949C1F6FAB78AF91
:103B700089AF9AAFEFA9F8ADF88BEF878F85988959
:103B80009C8B8B8B8B899C890197F1F79C8B8B8B02
:103B900000008B819C8101969C838B838B819C810F
:103BA0008A30910509F00CF45CCF80E090E00E942F
:103BB000C0161E821D82AAC00E94E516009729F039
:103BC00084E090E09A838983A8C080E090E0A8EC2C
:103BD000B2E48D8B9E8BAF8BB88F20E030E04AE74C
:103BE00055E46D897E898F89988D0E9482206BAF04
:103BF0007CAF8DAF9EAF8BAD9CADADADBEAD898FB3
:103C00009A8FAB8FBC8F20E030E040E85FE3698D96
:103C10007A8D8B8D9C8D0E941E1F88232CF481E051
:103C200090E09E8F8D8F62C020E03FEF4FE757E41A
:103C3000698D7A8D8B8D9C8D0E947D20882309F063
:103C40000CF442C020E030E040E251E46D897E890E
:103C50008F89988D0E94822023966CAF7DAF8EAFA6
:103C60009FAF239723968CAD9DADAEADBFAD23978F
:103C70008FA398A7A9A7BAA76FA178A589A59AA588
:103C80000E949C1F27966CAF7DAF8EAF9FAF27978A
:103C90002596AEADBFAD2597BE8FAD8F10C080E924
:103CA00091E098A38F8F8F8D98A10197F1F798A33A
:103CB0008F8F00008D8D9E8D01979E8F8D8F8D8DA6
:103CC0009E8D009761F71DC0698D7A8D8B8D9C8DBF
:103CD0000E949C1F2B966CAF7DAF8EAF9FAF2B9732
:103CE0002996EEADFFAD2997FE8FED8F8D8D9E8DC0
:103CF0009AA389A389A19AA10197F1F79AA389A30D
:103D000000008D819E8101969E838D838D819E8191
:103D10008E31910509F00CF44FCF80E090E00E94C5
:103D20002C1680E090E00E9407160E94E51600978E
:103D300029F084E090E09A8389830AC01A8219826C
:103D400007C0000010CD00000ECD00000CCD00001B
:103D50000ACDEE0FFF1F881F8BBF0790F691E02D55
:103D600019945058BB27AA270E94C91E0C944320BF
:103D70000E94352038F00E943C2020F039F49F3F0B
:103D800019F426F40C9432200EF4E095E7FB0C9421
:103D90002C20E92F0E94542058F3BA1762077307AA
:103DA0008407950720F079F4A6F50C9476200EF49C
:103DB000E0950B2EBA2FA02D0B01B90190010C013B
:103DC000CA01A0011124FF27591B99F0593F50F453
:103DD000503E68F11A16F040A22F232F342F4427AB
:103DE000585FF3CF469537952795A795F0405395A3
:103DF000C9F77EF41F16BA0B620B730B840BBAF073
:103E00009150A1F0FF0FBB1F661F771F881FC2F7DD
:103E10000EC0BA0F621F731F841F48F487957795F1
:103E20006795B795F7959E3F08F0B0CF9395880FAB
:103E300008F09927EE0F9795879508950E9408201E
:103E400008F481E008950E94371F0C9443200E94DB
:103E50003C2058F00E94352040F029F45F3F29F0C3
:103E60000C942C2051110C9477200C9432200E9439
:103E7000542068F39923B1F3552391F3951B550B07
:103E8000BB27AA2762177307840738F09F5F5F4F2D
:103E9000220F331F441FAA1FA9F335D00E2E3AF06C
:103EA000E0E832D091505040E695001CCAF72BD084
:103EB000FE2F29D0660F771F881FBB1F26173707D5
:103EC0004807AB07B0E809F0BB0B802DBF01FF2707
:103ED00093585F4F3AF09E3F510578F00C942C2098
:103EE0000C9477205F3FE4F3983ED4F38695779562
:103EF0006795B795F7959F5FC9F7880F911D9695C0
:103F0000879597F90895E1E0660F771F881FBB1F1B
:103F1000621773078407BA0720F0621B730B840BC8
:103F2000BA0BEE1F88F7E09508950E949C1F6894D5
:103F3000B1110C94772008950E945C2088F09F575F
:103F400098F0B92F9927B751B0F0E1F0660F771FBD
:103F5000881F991F1AF0BA95C9F714C0B13091F0B3
:103F60000E947620B1E008950C947620672F782F78
:103F70008827B85F39F0B93FCCF386957795679578
:103F8000B395D9F73EF490958095709561957F4FE4
:103F90008F4F9F4F0895E89409C097FB3EF490958A
:103FA0008095709561957F4F8F4F9F4F9923A9F012
:103FB000F92F96E9BB279395F695879577956795A1
:103FC000B795F111F8CFFAF4BB0F11F460FF1BC0E5
:103FD0006F5F7F4F8F4F9F4F16C0882311F096E978
:103FE00011C0772321F09EE8872F762F05C0662326
:103FF00071F096E8862F70E060E02AF09A95660FDF
:10400000771F881FDAF7880F9695879597F9089597
:10401000990F0008550FAA0BE0E8FEEF16161706D9
:10402000E807F907C0F012161306E407F50798F041
:10403000621B730B840B950B39F40A2661F0232B5A
:10404000242B252B21F408950A2609F4A140A695D6
:104050008FEF811D811D089597F99F6780E870E0BB
:1040600060E008959FEF80EC089500240A941616EE
:10407000170618060906089500240A941216130656
:10408000140605060895092E0394000C11F48823E4
:1040900052F0BB0F40F4BF2B11F460FF04C06F5F00
:1040A0007F4F8F4F9F4F089557FD9058440F551FD6
:1040B00059F05F3F71F04795880F97FB991F61F0AA
:1040C0009F3F79F087950895121613061406551F21
:1040D000F2CF4695F1DF08C0161617061806991F8D
:1040E000F1CF86957105610508940895E894BB2782
:1040F00066277727CB0197F908950E94082008F4D6
:104100008FEF08950E9495200C9443200E94352043
:1041100038F00E943C2020F0952311F00C942C20C4
:104120000C94322011240C9477200E94542070F3B8
:10413000959FC1F3950F50E0551F629FF001729F4C
:10414000BB27F00DB11D639FAA27F00DB11DAA1F5B
:10415000649F6627B00DA11D661F829F2227B00DA8
:10416000A11D621F739FB00DA11D621F839FA00D33
:10417000611D221F749F3327A00D611D231F849F83
:10418000600D211D822F762F6A2F11249F575040DA
:104190009AF0F1F088234AF0EE0FFF1FBB1F661F55
:1041A000771F881F91505040A9F79E3F510580F01E
:1041B0000C942C200C9477205F3FE4F3983ED4F3CA
:1041C000869577956795B795F795E7959F5FC1F7C2
:1041D000FE2B880F911D9695879597F90895FB0101
:1041E000DC018D91019080190110D9F3990B08958C
:1041F0004532510520F4423010F00C940321FB01AC
:104200001082CB010895BB274A3031F4992322F460
:10421000BDE2909581959F4F0C940F21BB27FB0128
:104220005527AA27880F991FAA1FA41710F0A41BAF
:1042300083955051B9F7A05DAA3308F0A95DA19309
:10424000009779F7B111B1931192CB010C94A1238E
:104250000F931F93CF93DF93CDB7DEB72E970FB693
:10426000F894DEBF0FBECDBF0E891F8986E08C8318
:104270001A830983888D998D813020E8920710F088
:1042800080E090E801979E838D83AE01445E5F4F8E
:104290006A8D7B8DCE0101960E9467214D815E81E2
:1042A00057FD0AC02F813885421753070CF49A0135
:1042B000020F131FF80110822E960FB6F894DEBF7E
:1042C0000FBECDBFDF91CF911F910F9108955F92E7
:1042D0006F927F928F929F92AF92BF92CF92DF9216
:1042E000EF92FF920F931F93CF93DF93CDB7DEB77B
:1042F0002F970FB6F894DEBF0FBECDBF6C017B01C8
:104300008A01DC0117961C921E92169713968C91C7
:1043100081FFFEC12AE0522EF6019381F70193FD41
:10432000859193FF81917F01882309F473C08532C1
:1043300039F493FD859193FF81917F01853229F4B2
:10434000B60190E00E94B123E7CF912C612C712C33
:10435000FFE1F71508F446C08B32C9F1F8F480325A
:10436000C1F1833209F43BC0833609F49CC0833722
:1043700009F4A5C0833509F0C8C0F801A190B19037
:104380008F01692D70E076FC02C06FEF7FEFC501F1
:104390000E948B234C01689477F871C08D32E1F054
:1043A000803351F020ED280F2A3048F18E3209F089
:1043B0004BC0689476F802C0689470F8F70193FDDA
:1043C000859193FF81917F018111C2CF45C068948F
:1043D00071F8689472F8F2CF689473F8EFCF68942C
:1043E00074F8ECCF77FC38C020ED280F2A3070F439
:1043F00076FE05C0959C200D1124922EDFCF659C82
:10440000200D1124622E689475F8D8CF8E32E1F415
:1044100076FECFCFD60116968D919C912F960FB632
:10442000F894DEBF0FBECDBFDF91CF911F910F91EA
:10443000FF90EF90DF90CF90BF90AF909F908F90C4
:104440007F906F905F9008958C3619F4689477F898
:10445000B5CF883609F4B2CF982F9F7D955493300D
:1044600008F082CF0C5F1F4F8FE3898388248394E9
:10447000912CAE014F5F5F4F5A01E89477F873FCBF
:1044800005C0862D90E08816990640F181149104AC
:1044900061F5662009F440CFB60180E290E00E9409
:1044A000B1236A94F6CFD8018C9189830E5F1F4F98
:1044B00088248394912CFE0131965F01DECFD801D0
:1044C000AD90BD908D01692D70E076FC02C06FEF5C
:1044D0007FEFC5010E9496234C01CFCFB60180E249
:1044E00090E00E94B1236A94CCCFF50177FC8591CE
:1044F00077FE81915F01B60190E00E94B1236110C7
:104500006A94F1E08F1A9108C1CF843619F0893688
:1045100009F081C0F80177FE77C0619171918191B6
:1045200091918F01272D2F76822E97FF09C09095AC
:104530008095709561957F4F8F4F9F4F689487F856
:104540002AE030E0AE014F5F5F4F5A010E94E12345
:104550008A19A82EBA2C782C86FE0CC0E89470F824
:10456000A91440F484FE05C082FC03C0782D7E7E31
:10457000772EB92C74FEA5C0FE01EA0DF11D8081D5
:10458000803309F097C0872D897E782E73FC0EC08A
:1045900070FEA6C09A2CB61418F4960C9B18B62C74
:1045A000862D8B196B1408F480E0B80EB61408F051
:1045B00099C06B1874FE98C0B60180E390E00E9429
:1045C000B12372FE09C088E590E071FC02C088E763
:1045D00090E0B6010E94B123A91408F492C0AA94F5
:1045E000B12C9FEFA91AB90ADE0111964D01AA0E4E
:1045F000BB1EF50182915F01B60190E00E94B123DC
:104600008A149B04B1F745CF61917191072E000C7C
:10461000880B990B86CF872CE89484F82AE030E049
:10462000853769F0572D597F852E803771F118F540
:10463000883571F18F3609F0EDCE28E030E0F801D1
:1046400087FE2EC081919191A191B1918C879D8718
:10465000AE87BF878F01BE016F5F7F4F5B01AB01EC
:104660006C857D858E859F850E94E1238A19A82E01
:10467000E89487F86FCF883709F0CCCE84FE02C06B
:10468000689482F820E130E0DACF689484F8F6CFBD
:1046900074FE03C0652F6660862E20E132E0CFCF26
:1046A00081919191AC0160E070E04C875D876E87ED
:1046B0007F87D0CF72FC02C0B39468CFB394B39419
:1046C00065CF872D8678882309F460CFF5CFB601B2
:1046D00080E290E00E94B12383948614C0F360CFFF
:1046E0008B2CFBCF612C66CF872D8678882309F42D
:1046F00073CF8BE271FE80E277FC8DE2B60190E031
:1047000069CFB60180E390E00E94B1239A9464CF10
:104710008FEF9FEF83CEFC01059061507040011038
:10472000D8F7809590958E0F9F1F0895FC016150DA
:10473000704001900110D8F7809590958E0F9F1FC3
:104740000895DC01FC01672F71917723E1F732971F
:1047500004C07C916D9370836291AE17BF07C8F35C
:1047600008950F931F93CF93DF93182F092FEB0119
:104770008B8181FD09C01FEF0FEF812F902FDF91FB
:10478000CF911F910F91089582FF14C02E813F8118
:104790008C819D81281739073CF4E881F981CF018C
:1047A00001969983888310838E819F8101969F83D0
:1047B0008E83E3CFE885F985812F1995892BA1F3A5
:1047C000DACFFA01AA27283051F1203181F1E8949B
:1047D0006F936E7F6E5F7F4F8F4F9F4FAF4FB1E0F4
:1047E0003ED0B4E03CD0670F781F891F9A1FA11DEF
:1047F000680F791F8A1F911DA11D6A0F711D811DF0
:10480000911DA11D20D009F468943F912AE0269FB4
:1048100011243019305D3193DEF6CF010895462F13
:104820004770405D4193B3E00FD0C9F7F6CF462FF4
:104830004F70405D4A3318F0495D31FD405241935D
:1048400002D0A9F7EACFB4E0A6959795879577951A
:104850006795BA95C9F700976105710508959B01A1
:10486000AC010A2E06945795479537952795BA952A
:10487000C9F7620F731F841F951FA01D0895F89438
:10488000FFCFDF1BC31CD51CEE1CC61B751CF31C05
:1048900001004E4F4E450000257325732573257387
:1048A00000434C4541520025730020202020202049
:1048B00020202020202020202020202020202020F8
:0248C0000000F6
:00000001FF
