:100000000C9482000C94A3000C94A3000C94A30005
:100010000C94A3000C94A3000C94A3000C94A300D4
:100020000C94A3000C94A3000C94A3000C94A300C4
:100030000C94A3000C94A3000C94A3000C94A300B4
:100040000C94A3000C94A3000C94A3000C94A300A4
:100050000C94A3000C94A3000C94A3000C94A30094
:100060000C94A3000C94A3000C94A3000C94A30084
:100070000C94A3000C94A3000C94A3000C94A30074
:100080000C94A3000C94A3000C94A3000C94A30064
:100090000C94A3000C94A3000C94A3000C94A30054
:1000A0000C94A3000C94021B0C94A3000C94A300CA
:1000B0000C94A3000C94771B0C94A3000C94A30045
:1000C0000C94A3000C94A3000C94A3000C94A30024
:1000D0000C94A3000C94A3000C94A3000C94A30014
:1000E0000C94A3000C9455280C9408270C94C11F61
:1000F0000C94D31D0C940D210C94AA2A0C94BB25AE
:100100000C94EA1B11241FBECFEFD1E2DEBFCDBF9E
:1001100000E00CBF12E0A0E0B2E0E6ECFCE600E09C
:100120000BBF02C007900D92A433B107D9F722E0AC
:10013000A4E3B2E001C01D92A635B207E1F70E9428
:10014000C41B0C9459360C940000CF93DF93CDB7A9
:10015000DEB7A2970FB6F894DEBF0FBECDBF0E94E8
:100160004C010E946F0180E090E0A8ECB2E489832A
:100170009A83AB83BC8320E030E04AE755E4698191
:100180007A818B819C810E949C326B8B7C8B8D8BC6
:100190009E8B8B899C89AD89BE898D839E83AF831D
:1001A000B88720E030E040E85FE36D817E818F8199
:1001B00098850E94383188232CF481E090E09A875A
:1001C000898755C020E03FEF4FE757E46D817E817E
:1001D0008F8198850E9497328823D9F1D4F120E04D
:1001E00030E040E251E469817A818B819C810E94F8
:1001F0009C326F8B788F898F9A8F8F89988DA98D7C
:10020000BA8D8F87988BA98BBA8B6F8578898989EE
:100210009A890E94B6316B8F7C8F8D8F9E8FAB8DAC
:10022000BC8DBA87A98710C080E991E09C878B8735
:100230008B859C850197F1F79C878B8700008985CA
:100240009A8501979A87898789859A85009761F7AA
:1002500019C06D817E818F8198850E94B6316F8F24
:1002600078A389A39AA38F8D98A19A878987898576
:100270009A859E878D878D859E850197F1F79E874C
:100280008D8700000000A2960FB6F894DEBF0FBE67
:10029000CDBFDF91CF910895CF93DF93CDB7DEB778
:1002A00087E290E0FC01208187E290E0206FFC0172
:1002B000208387E290E0FC01208187E290E02E60BD
:1002C000FC01208384E290E0FC01208184E290E044
:1002D0002160FC0120830000DF91CF9108950F93EE
:1002E0001F93CF93DF93CDB7DEB7CA5FD1090FB6A7
:1002F000F894DEBF0FBECDBF9E012F593F4F80E067
:1003000090E0A8E4B2E4F90180839183A283B383EF
:100310008E010B591F4FCE018F599F4F20E030E0C7
:100320004AE755E4DC016D917D918D919C910E948D
:100330009C32C158DF4F688379838A839B83CF5770
:10034000D040C158DF4F88819981AA81BB81CF57A6
:10035000D040F80180839183A283B383CE018B596F
:100360009F4F20E030E040E85FE3DC016D917D913C
:100370008D919C910E94383188234CF4CE0187598D
:100380009F4F21E030E0FC0131832083A1C0CE01EA
:100390008B599F4F20E03FEF4FE757E4DC016D9111
:1003A0007D918D919C910E949732882309F00CF4E5
:1003B00071C0CE018F599F4F20E030E040E251E400
:1003C000FC0160817181828193810E949C32CD57B2
:1003D000DF4F688379838A839B83C358D040CD578E
:1003E000DF4F88819981AA81BB81C358D040EF96A5
:1003F0008CAF9DAFAEAFBFAFEF978E0107591F4FC8
:10040000EF966CAD7DAD8EAD9FADEF970E94B6318E
:10041000C957DF4F688379838A839B83C758D0404D
:10042000C957DF4FE881F981C758D040D8011196EC
:10043000FC93EE9326C0CE0185599F4F20E931E011
:10044000DC012D933C93CE0185599F4FFC018081A7
:1004500091810197F1F79E0125593F4FD9018D9365
:100460009C930000CE0187599F4F9E0127593F4F13
:10047000F9012081318121503109DC0111963C9331
:100480002E93CE0187599F4FFC0180819181009767
:1004900091F639C08E0107591F4FCE018B599F4FDE
:1004A000DC016D917D918D919C910E94B631C55773
:1004B000DF4F688379838A839B83CB58D040C557AD
:1004C000DF4F88819981CB58D040F8019183808398
:1004D000CE0183599F4F9E0127593F4FD9012D913E
:1004E0003C91FC0131832083CE0183599F4FDC0175
:1004F0008D919C910197F1F79E0123593F4FF9018E
:1005000091838083000088E290E0DC012C9188E2F6
:1005100090E02D7FFC01208388E290E0DC012C91AB
:1005200088E290E0277FFC01208388E290E0DC01F4
:100530002C9188E290E02B7FFC01208380E30E94D5
:1005400032099E012F5B3F4F80E090E0A0E2B1E4D2
:10055000F90180839183A283B3838E010B5B1F4FCC
:10056000CE018F5B9F4F2BEA3AEA4AEA50E4DC0166
:100570006D917D918D919C910E949C32C157DF4F6E
:10058000688379838A839B83CF58D040C157DF4FDC
:1005900088819981AA81BB81CF58D040F80180839E
:1005A0009183A283B3838E01075B1F4FCE018F5BC4
:1005B0009F4F20E030E040E850E4DC016D917D91F8
:1005C0008D919C910E949C32CD56DF4F6883798338
:1005D0008A839B83C359D040CD56DF4F8881998150
:1005E000AA81BB81C359D040F80180839183A28343
:1005F000B383CE018B5B9F4F20E030E040E85FE3A8
:10060000DC016D917D918D919C910E943831882300
:100610003CF4CE01835B9F4F21E0FC0120839CC111
:10062000CE01875B9F4F20E03FEF4FE757E4DC01AF
:100630006D917D918D919C910E949732882309F054
:100640000CF422C1CE018F5B9F4F20E030E04AE7DF
:1006500054E4FC0160817181828193810E943D316B
:10066000C956DF4F688379838A839B83C759D040FB
:10067000C956DF4F88819981AA81BB81C759D04073
:100680009E01225B3F4FF90180839183A283B38354
:100690008E010E5A1F4FCE01825B9F4F20E030E04B
:1006A0004AE755E4DC016D917D918D919C910E940A
:1006B0009C32C556DF4F688379838A839B83CB59ED
:1006C000D040C556DF4F88819981AA81BB81CB5923
:1006D000D040F80180839183A283B383CE018E5AE8
:1006E0009F4F20E030E040E85FE3DC016D917D91B9
:1006F0008D919C910E94383188234CF4CE018A5A06
:100700009F4F21E030E0FC0131832083A1C0CE0166
:100710008E5A9F4F20E03FEF4FE757E4DC016D9189
:100720007D918D919C910E949732882309F00CF461
:1007300071C0CE01825B9F4F20E030E040E251E487
:10074000FC0160817181828193810E949C32C1563B
:10075000DF4F688379838A839B83CF59D040C1560A
:10076000DF4F88819981AA81BB81CF59D040EB9618
:100770008CAF9DAFAEAFBFAFEB978E010A5A1F4F44
:10078000EB966CAD7DAD8EAD9FADEB970E94B63113
:10079000CD55DF4F688379838A839B83C35AD040CA
:1007A000CD55DF4FE881F981C35AD040D801119669
:1007B000FC93EE9326C0CE01885A9F4F20E931E08A
:1007C000DC012D933C93CE01885A9F4FFC01808120
:1007D00091810197F1F79E01285A3F4FD9018D93DE
:1007E0009C930000CE018A5A9F4F9E012A5A3F4F88
:1007F000F9012081318121503109DC0111963C93AE
:100800002E93CE018A5A9F4FFC01808191810097DF
:1008100091F6A2C08E010A5A1F4FCE018E5A9F4FE9
:10082000DC016D917D918D919C910E94B631C955ED
:10083000DF4F688379838A839B83C75AD040C95529
:10084000DF4F88819981C75AD040F8019183808316
:10085000CE01865A9F4F9E012A5A3F4FD9012D91B2
:100860003C91FC0131832083CE01865A9F4FDC01ED
:100870008D919C9111970197F1F79E01265A3F4F58
:10088000F9019183808368C0CE018B5B9F4F20E08C
:1008900030E04FE753E4DC016D917D918D919C91A7
:1008A0000E9497328823E1F1DCF18E01045A1F4F38
:1008B000CE01875B9F4FFC016081718182819381B2
:1008C0000E94B631C555DF4F688379838A839B8345
:1008D000CB5AD040C555DF4FE881F981CB5AD04083
:1008E000D801ED93FC93CE01825A9F4F9E01245A6A
:1008F0003F4FD9012D913C91FC0131832083CE01E2
:10090000825A9F4FDC018D919C9111970197F1F7CD
:100910009E01225A3F4FF90191838083000034C029
:100920008E01035B1F4FCE018B5B9F4FDC016D91EE
:100930007D918D919C910E94B631C155DF4F6883A6
:1009400079838A839B83CF5AD040C155DF4F8881FA
:10095000CF5AD040F8018083CE01805A9F4F9E012C
:10096000235B3F4FD9012C91FC012083CE01805A9B
:100970009F4FDC018C91282F2A95F1F7CE01805AE8
:100980009F4FFC012083000080E30E94320980E039
:1009900090E0A8E4B3E489A39AA3ABA3BCA32BEA99
:1009A0003AEA4AEA50E469A17AA18BA19CA10E948B
:1009B0009C32CD54DF4F688379838A839B83C35BEA
:1009C000D040CD54DF4F88819981AA81BB81C35B20
:1009D000D0408DA39EA3AFA3B8A720E030E040E8AD
:1009E00050E469A17AA18BA19CA10E949C32C954B8
:1009F000DF4F688379838A839B83C75BD040C95468
:100A0000DF4F88819981AA81BB81C75BD04089A7CC
:100A10009AA7ABA7BCA720E030E040E85FE36DA158
:100A20007EA18FA198A50E94383188231CF481E013
:100A30008DA71BC120E03FEF4FE757E469A57AA5DA
:100A40008BA59CA50E949732882309F00CF4CAC09C
:100A500020E030E04AE754E469A17AA18BA19CA18F
:100A60000E943D31C554DF4F688379838A839B831D
:100A7000CB5BD040C554DF4F88819981AA81BB816F
:100A8000CB5BD0408EA79FA7A8ABB9AB20E030E0EE
:100A90004AE755E46EA57FA588A999A90E949C32D2
:100AA000C154DF4F688379838A839B83CF5BD040B7
:100AB000C154DF4F88819981AA81BB81CF5BD0402F
:100AC0008AAB9BABACABBDAB20E030E040E85FE372
:100AD0006AA97BA98CA99DA90E94383188232CF48E
:100AE00081E090E09FAB8EAB72C020E03FEF4FE71C
:100AF00057E46AA97BA98CA99DA90E9497328823F3
:100B000009F00CF44EC020E030E040E251E46EA564
:100B10007FA588A999A90E949C32CD53DF4F688395
:100B200079838A839B83C35CD040CD53DF4F888118
:100B30009981AA81BB81C35CD040E7968CAF9DAF01
:100B4000AEAFBFAFE797E7966CAD7DAD8EAD9FAD15
:100B5000E7970E94B631C953DF4F688379838A8350
:100B60009B83C75CD040C953DF4FA881B981C75C64
:100B7000D040BFABAEAB10C080E991E099AF88AF79
:100B800088AD99AD0197F1F799AF88AF00008EA9B4
:100B90009FA901979FAB8EAB8EA99FA9009761F784
:100BA00064C06AA97BA98CA99DA90E94B631C553CE
:100BB000DF4F688379838A839B83CB5CD040C553A6
:100BC000DF4FE881F981CB5CD040FFABEEAB8EA963
:100BD0009FA99BAF8AAF8AAD9BAD0197F1F79BAF01
:100BE0008AAF43C020E030E04FE753E46DA17EA11F
:100BF0008FA198A50E949732882319F114F169A555
:100C00007AA58BA59CA50E94B631C153DF4F68839E
:100C100079838A839B83CF5CD040C153DF4F888127
:100C20009981CF5CD0409DAF8CAF8CAD9DAD9FAF17
:100C30008EAF8EAD9FAD0197F1F79FAF8EAF0000E5
:100C400028C06DA17EA18FA198A50E94B631CD527A
:100C5000DF4F688379838A839B83C35DD040CD5205
:100C6000DF4F9881C35DD0409DA72DA5CE01805C4C
:100C70009F4FDC012C93CE01805C9F4FFC01808153
:100C8000282F2A95F1F7CE01805C9F4FDC012C9331
:100C9000000080E30E94320980E090E0A0EAB2E424
:100CA00089839A83AB83BC832BEA3AEA4AEA50E40D
:100CB00069817A818B819C810E949C32C952DF4F6D
:100CC000688379838A839B83C75DD040C952DF4F95
:100CD00088819981AA81BB81C75DD0408D839E8325
:100CE000AF83B88720E030E040E850E469817A8142
:100CF0008B819C810E949C32C552DF4F688379832F
:100D00008A839B83CB5DD040C552DF4F8881998118
:100D1000AA81BB81CB5DD04089879A87AB87BC878E
:100D200020E030E040E85FE36D817E818F8198852F
:100D30000E94383188231CF481E08D871BC120E09C
:100D40003FEF4FE757E469857A858B859C850E9444
:100D50009732882309F00CF4CAC020E030E04AE75B
:100D600054E469817A818B819C810E943D31C1521A
:100D7000DF4F688379838A839B83CF5DD040C152E4
:100D8000DF4F88819981AA81BB81CF5DD0408E875A
:100D90009F87A88BB98B20E030E04AE755E46E8549
:100DA0007F85888999890E949C32CD51DF4F688365
:100DB00079838A839B83C35ED040CD51DF4F888186
:100DC0009981AA81BB81C35ED0408A8B9B8BAC8BFF
:100DD000BD8B20E030E040E85FE36A897B898C8945
:100DE0009D890E94383188232CF481E090E09F8B0C
:100DF0008E8B72C020E03FEF4FE757E46A897B8912
:100E00008C899D890E949732882309F00CF44EC08A
:100E100020E030E040E251E46E857F858889998941
:100E20000E949C32C951DF4F688379838A839B83F8
:100E3000C75ED040C951DF4F88819981AA81BB81AB
:100E4000C75ED040E3968CAF9DAFAEAFBFAFE39728
:100E5000E3966CAD7DAD8EAD9FADE3970E94B6314C
:100E6000C551DF4F688379838A839B83CB5ED040F3
:100E7000C551DF4FA881B981CB5ED040BF8BAE8B0F
:100E800010C080E991E0998F888F888D998D0197A6
:100E9000F1F7998F888F00008E899F8901979F8B2A
:100EA0008E8B8E899F89009761F764C06A897B89E0
:100EB0008C899D890E94B631C151DF4F6883798347
:100EC0008A839B83CF5ED040C151DF4FE881F98197
:100ED000CF5ED040FF8BEE8B8E899F899B8F8A8F50
:100EE0008A8D9B8D0197F1F79B8F8A8F43C020E0FD
:100EF00030E04FE753E46D817E818F8198850E94B9
:100F00009732882319F114F169857A858B859C8540
:100F10000E94B631CD50DF4F688379838A839B83EB
:100F2000C35FD040CD50DF4F88819981C35FD040EF
:100F30009D8F8C8F8C8D9D8D9F8F8E8F8E8D9F8D95
:100F40000197F1F79F8F8E8F00001BC06D817E810E
:100F50008F8198850E94B631C950DF4F68837983AD
:100F60008A839B83C75FD040C950DF4F9881C75F9A
:100F7000D0409D878D8588A388A18A95F1F788A3A5
:100F8000000088E20E9432090E94CA0C88E20E9496
:100F900004090E94CA0C88E00E9404090E94CA0C3D
:100FA00081E00E9404090E94CA0C86E00E940409A4
:100FB0000E94CA0C8CE00E9404090000C650DF4F5A
:100FC0000FB6F894DEBF0FBECDBFDF91CF911F915A
:100FD0000F910895CF93DF93CDB7DEB7AF970FB6DC
:100FE000F894DEBF0FBECDBF89A77BA76AA75DA718
:100FF0004CA73FA72EA725E0ECE1F2E0CE01019639
:10100000DC0101900D922A95E1F782E1E1E2F2E044
:10101000DE01579601900D928A95E1F78CA59DA56A
:101020008F3F910551F08CA59DA54AE050E09E01AF
:101030002F5F3F4FB9010E9412338AA59BA564E040
:1010400072E00E940933009721F489E092E09BA7A7
:101050008AA78EA59FA564E072E00E9409330097DD
:1010600021F489E092E09FA78EA7CE014796292F11
:101070002F938F938FA58F938EA58F93CE0101967B
:101080009F938F938BA58F938AA58F938AE092E08D
:10109000892F8F938AE092E08F931F9281E18F9343
:1010A000CE010696292F2F938F930E9442338DB73E
:1010B0009EB70E960FB6F894DEBF0FBECDBF8AA5C1
:1010C0009BA563E172E00E9409330097F1F4CE0121
:1010D0004796292F2F938F9389E192E0892F8F9341
:1010E00089E192E08F931F9281E18F93CE01069662
:1010F000292F2F938F930E9442338DB79EB7089666
:101100000FB6F894DEBF0FBECDBF89A5882F90E043
:101110008130910521F08230910529F008C080E8E6
:101120000E94040904C080EC0E9404090000CE0162
:1011300006960E94A5080000AF960FB6F894DEBF91
:101140000FBECDBFDF91CF910895CF93DF9300D035
:101150000F92CDB7DEB79C838B831A82198212C09F
:101160000E94CA0C89819A819C018B819C81820F8B
:10117000931FFC0180810E94D60889819A81019683
:101180009A83898389819A819C018B819C81820FBA
:10119000931FFC018081882319F7000000000F9045
:1011A0000F900F900F90DF91CF910895CF93DF9321
:1011B0000F92CDB7DEB7898388E290E0FC012081F1
:1011C00088E290E02B7FFC01208388E290E0FC0124
:1011D000208188E290E02260FC01208388E290E098
:1011E000FC01208188E290E0277FFC012083898137
:1011F0000E94320989818295807F0E943209000015
:101200000F90DF91CF910895CF93DF930F92CDB7D9
:10121000DEB7898388E290E0FC01208188E290E0DB
:101220002B7FFC01208388E290E0FC01208188E292
:1012300090E02D7FFC01208388E290E0FC0120817A
:1012400088E290E0277FFC01208389810E94320997
:1012500089818295807F0E94320900000F90DF9182
:10126000CF910895CF93DF93CDB7DEB7C859D10999
:101270000FB6F894DEBF0FBECDBF9E012A5B3F4F75
:10128000F9018083CE018E5B9F4FFC011182108299
:10129000FC0113821282198228C0CE018A5B9F4F03
:1012A000FC018081882F90E02981222F30E047E0E7
:1012B00050E0FA01E21BF30B9F01022E02C095954C
:1012C00087950A94E2F781709927009759F08981F0
:1012D000882F90E09E012E5B3F4F820F931F21E0ED
:1012E000FC01208389818F5F898389818330A9F202
:1012F000A0F288E290E0DC012C9188E290E02F706F
:10130000FC01208388E290E0DC018C91382FCE0133
:101310008E5B9F4FFC018081882F90E0B82FB6959F
:10132000A82FA795AA27A7952A2FCE018E5B9F4F9E
:10133000DC0111968C91882F90E0B82FB695B69568
:10134000C856DF4FB883C859D040E82FE295EE0F5A
:10135000EE0FE07CC956DF4FE883C759D040C9562D
:10136000DF4F8881C759D040282BCE018E5B9F4F1D
:10137000DC0112968C91882F90E0782F76957695E7
:101380007695682F6295660F607E862F282BCE019A
:101390008E5B9F4FFC018381882F90E08295929510
:1013A000907F9827807F9827822B232F282B88E2F5
:1013B00090E0DC012C9388E290E0FC01208188E23F
:1013C00090E02860DC012C9380E090E0A0E8BFE38F
:1013D0008AA39BA3ACA3BDA32BEA3AEA4AEA50E452
:1013E0006AA17BA18CA19DA10E949C3263966CAFE7
:1013F0007DAF8EAF9FAF639763968CAD9DADAEAD65
:10140000BFAD63978EA39FA3A8A7B9A720E030E044
:1014100040E850E46AA17BA18CA19DA10E949C326E
:1014200067966CAF7DAF8EAF9FAF679767968CADB9
:101430009DADAEADBFAD67978AA79BA7ACA7BDA773
:1014400020E030E040E85FE36EA17FA188A599A588
:101450000E94383188231CF481E08EA70AC120E065
:101460003FEF4FE757E46AA57BA58CA59DA50E9499
:101470009732882309F00CF4B6C020E030E04AE748
:1014800054E46AA17BA18CA19DA10E943D316B9681
:101490006CAF7DAF8EAF9FAF6B976B968CAD9DADF4
:1014A000AEADBFAD6B978FA798ABA9ABBAAB20E041
:1014B00030E04AE755E46FA578A989A99AA90E9466
:1014C0009C326F966CAF7DAF8EAF9FAF6F976F966C
:1014D0008CAD9DADAEADBFAD6F978BAB9CABADABE7
:1014E000BEAB20E030E040E85FE36BA97CA98DA9AA
:1014F0009EA90E94383188232CF481E090E098AFB7
:101500008FAB66C020E03FEF4FE757E46BA97CA9A3
:101510008DA99EA90E949732882309F00CF446C039
:1015200020E030E040E251E46FA578A989A99AA9AA
:101530000E949C32A3966CAF7DAF8EAF9FAFA397F6
:10154000A3968CAD9DADAEADBFADA3972F968CAFDE
:101550009DAFAEAFBFAF2F972F966CAD7DAD8EAD6B
:101560009FAD2F970E94B631A7966CAF7DAF8EAF1F
:101570009FAFA797A596AEADBFADA597B8AFAFABE0
:1015800010C080E991E09AAF89AF89AD9AAD01971B
:10159000F1F79AAF89AF00008FA998AD019798AF86
:1015A0008FAB8FA998AD009761F763C06BA97CA939
:1015B0008DA99EA90E94B631AB966CAF7DAF8EAF60
:1015C0009FAFAB97A996EEADFFADA997F8AFEFAB84
:1015D0008FA998AD9CAF8BAF8BAD9CAD0197F1F708
:1015E0009CAF8BAF46C020E030E04FE753E46EA1E4
:1015F0007FA188A599A50E949732882351F14CF1CB
:101600006AA57BA58CA59DA50E94B631AF966CAF4F
:101610007DAF8EAF9FAFAF97AD968EAD9FADAD97BF
:101620009EAF8DAF2DAD3EADCE01CF96DC012D939B
:101630003C93CE01CF96FC01808191810197F1F717
:101640009E01215C3F4FD90111969C938E9300001F
:1016500024C06EA17FA188A599A50E94B631E3960A
:101660006CAF7DAF8EAF9FAFE397E096BFADE097D5
:10167000BEA7CE018F5B9F4F2EA5FC012083CE011C
:101680008F5B9F4FDC018C91282F2A95F1F7CE01BB
:101690008F5B9F4FFC012083000088E290E0DC011B
:1016A0002C9188E290E0277FFC01208380E090E08D
:1016B000A0E8BFE38A839B83AC83BD832BEA3AEA2D
:1016C0004AEA50E46A817B818C819D810E949C3230
:1016D000E7966CAF7DAF8EAF9FAFE797E7968CAD87
:1016E0009DADAEADBFADE7978E839F83A887B987C9
:1016F00020E030E040E850E46A817B818C819D816C
:101700000E949C32EB966CAF7DAF8EAF9FAFEB9794
:10171000EB968CAD9DADAEADBFADEB978A879B8749
:10172000AC87BD8720E030E040E85FE36E817F81D9
:10173000888599850E94383188231CF481E08E8742
:1017400017C120E03FEF4FE757E46A857B858C8522
:101750009D850E949732882309F00CF4C6C020E0D2
:1017600030E04AE754E46A817B818C819D810E944C
:101770003D31EF966CAF7DAF8EAF9FAFEF97EF9699
:101780008CAD9DADAEADBFADEF978F87988BA98B1C
:10179000BA8B20E030E04AE755E46F857889898983
:1017A0009A890E949C32C158DF4F688379838A836B
:1017B0009B83CF57D040C158DF4F88819981AA8140
:1017C000BB81CF57D0408B8B9C8BAD8BBE8B20E0E9
:1017D00030E040E85FE36B897C898D899E890E94B7
:1017E000383188232CF481E090E0988F8F8B72C081
:1017F00020E03FEF4FE757E46B897C898D899E8914
:101800000E949732882309F00CF44EC020E030E0AB
:1018100040E251E46F85788989899A890E949C32D7
:10182000CD57DF4F688379838A839B83C358D04029
:10183000CD57DF4F88819981AA81BB81C358D040A1
:101840002B968CAF9DAFAEAFBFAF2B972B966CADE9
:101850007DAD8EAD9FAD2B970E94B631C957DF4F3E
:10186000688379838A839B83C758D040C957DF4FE9
:10187000A881B981C758D040B88FAF8B10C080E91C
:1018800091E09A8F898F898D9A8D0197F1F79A8FC0
:10189000898F00008F89988D0197988F8F8B8F8902
:1018A000988D009761F764C06B897C898D899E89CA
:1018B0000E94B631C557DF4F688379838A839B8343
:1018C000CB58D040C557DF4FE881F981CB58D04085
:1018D000F88FEF8B8F89988D9C8F8B8F8B8D9C8D44
:1018E0000197F1F79C8F8B8F43C020E030E04FE7EA
:1018F00053E46E817F81888599850E949732882381
:1019000019F114F16A857B858C859D850E94B6311D
:10191000C157DF4F688379838A839B83CF58D04038
:10192000C157DF4F88819981CF58D0409E8F8D8FCE
:101930008D8D9E8D98A38F8F8F8D98A10197F1F734
:1019400098A38F8F00001BC06E817F818885998549
:101950000E94B631CD56DF4F688379838A839B839B
:10196000C359D040CD56DF4F9881C359D0409E8790
:101970008E8589A389A18A95F1F789A300000000CB
:10198000C856DF4F0FB6F894DEBF0FBECDBFDF9154
:10199000CF9108950F931F93CF93DF93CDB7DEB709
:1019A000C152D1400FB6F894DEBF0FBECDBF87E263
:1019B00090E0DC012C9187E290E02F77FC012083FE
:1019C00088E290E0DC012C9188E290E02D7FFC0120
:1019D000208388E290E0DC012C9188E290E0246092
:1019E000FC012083198288E290E0DC012C9188E2DE
:1019F00090E02860FC0120839E012E593F4F80E03B
:101A000090E0A0E8BFE3F90180839183A283B383D0
:101A10008E010A591F4FCE018E599F4F2BEA3AEA89
:101A20004AEA50E4DC016D917D918D919C910E9478
:101A30009C32CE56DF4F688379838A839B83C25959
:101A4000D040CE56DF4F88819981AA81BB81C2598F
:101A5000D040F80180839183A283B3838E0106591D
:101A60001F4FCE018E599F4F20E030E040E850E4F8
:101A7000DC016D917D918D919C910E949C32CA56A2
:101A8000DF4F688379838A839B83C659D040CA56C7
:101A9000DF4F88819981AA81BB81C659D040F80166
:101AA00080839183A283B383CE018A599F4F20E024
:101AB00030E040E85FE3DC016D917D918D919C9178
:101AC0000E94383188233CF4CE0182599F4F21E097
:101AD000FC012083A0C1CE0186599F4F20E03FEF3B
:101AE0004FE757E4DC016D917D918D919C910E94AF
:101AF0009732882309F00CF426C1CE018E599F4FEE
:101B000020E030E04AE754E4FC0160817181828189
:101B100093810E943D31C656DF4F688379838A8363
:101B20009B83CA59D040C656DF4F88819981AA81CC
:101B3000BB81CA59D0409E0121593F4FF901808392
:101B40009183A283B3838E010D581F4FCE0181591B
:101B50009F4F20E030E04AE755E4DC016D917D9134
:101B60008D919C910E949C32C256DF4F688379838D
:101B70008A839B83CE59D040C256DF4F888199819A
:101B8000AA81BB81CE59D040F80180839183A28382
:101B9000B383CE018D589F4F20E030E040E85FE3F3
:101BA000DC016D917D918D919C910E94383188234B
:101BB0004CF4CE0189589F4F21E030E0FC01318385
:101BC0002083A5C0CE018D589F4F20E03FEF4FE707
:101BD00057E4DC016D917D918D919C910E9497322B
:101BE000882309F00CF475C0CE0181599F4F20E085
:101BF00030E040E251E4FC01608171818281938197
:101C00000E949C32CE55DF4F688379838A839B8301
:101C1000C25AD040CE55DF4F88819981AA81BB81BD
:101C2000C25AD040C257DF4F88839983AA83BB83AF
:101C3000CE58D0408E0109581F4FC257DF4F6881E0
:101C400079818A819B81CE58D0400E94B631CA5595
:101C5000DF4F688379838A839B83C65AD040CA55F5
:101C6000DF4FE881F981C65AD040D8011196FC9324
:101C7000EE9326C0CE0187589F4F20E931E0DC016A
:101C80002D933C93CE0187589F4FFC018081918119
:101C90000197F1F79E0127583F4FD9018D939C93EF
:101CA0000000CE0189589F4F9E0129583F4FF901EE
:101CB0002081318121503109DC0111963C932E9312
:101CC000CE0189589F4FFC0180819181009791F648
:101CD000A2C08E0109581F4FCE018D589F4FDC01C5
:101CE0006D917D918D919C910E94B631C655DF4FCB
:101CF000688379838A839B83CA5AD040C655DF4F55
:101D000088819981CA5AD040F80191838083CE019D
:101D100085589F4F9E0129583F4FD9012D913C91E5
:101D2000FC0131832083CE0185589F4FDC018D91CA
:101D30009C9111970197F1F79E0125583F4FF901AA
:101D40009183808368C0CE018A599F4F20E030E0A4
:101D50004FE753E4DC016D917D918D919C910E9440
:101D600097328823E1F1DCF18E0103581F4FCE0139
:101D700086599F4FFC0160817181828193810E940D
:101D8000B631C255DF4F688379838A839B83CE5AED
:101D9000D040C255DF4FE881F981CE5AD040D801FA
:101DA000ED93FC93CE0181589F4F9E0123583F4FE6
:101DB000D9012D913C91FC0131832083CE018158C2
:101DC0009F4FDC018D919C9111970197F1F79E0136
:101DD00021583F4FF90191838083000034C08E0168
:101DE00002591F4FCE018A599F4FDC016D917D91A1
:101DF0008D919C910E94B631CE54DF4F68837983D8
:101E00008A839B83C25BD040CE54DF4F8881C25B04
:101E1000D040F8018083CE018F579F4F9E012259F9
:101E20003F4FD9012C91FC012083CE018F579F4F4A
:101E3000DC018C91282F2A95F1F7CE018F579F4F07
:101E4000FC012083000086E290E0DC018C91882F69
:101E500090E080789927982F8981892B898388E25F
:101E600090E0FC01208188E290E0277FDC012C9348
:101E70009E012E5B3F4F80E090E0A0E8BFE3F901B8
:101E800080839183A283B3838E010A5B1F4FCE01AF
:101E90008E5B9F4F2BEA3AEA4AEA50E4DC016D91EF
:101EA0007D918D919C910E949C32CA54DF4F688332
:101EB00079838A839B83C65BD040CA54DF4F888175
:101EC0009981AA81BB81C65BD040F8018083918350
:101ED000A283B3838E01065B1F4FCE018E5B9F4FA3
:101EE00020E030E040E850E4DC016D917D918D917F
:101EF0009C910E949C32C654DF4F688379838A8309
:101F00009B83CA5BD040C654DF4F88819981AA81E8
:101F1000BB81CA5BD040F80180839183A283B383E5
:101F2000CE018A5B9F4F20E030E040E85FE3DC01B8
:101F30006D917D918D919C910E94383188233CF464
:101F4000CE01825B9F4F21E0FC012083A0C1CE0126
:101F5000865B9F4F20E03FEF4FE757E4DC016D9138
:101F60007D918D919C910E949732882309F00CF409
:101F700026C1CE018E5B9F4F20E030E04AE754E45B
:101F8000FC0160817181828193810E943D31C25444
:101F9000DF4F688379838A839B83CE5BD040C254B2
:101FA000DF4F88819981AA81BB81CE5BD0409E01A1
:101FB000215B3F4FF90180839183A283B3838E011C
:101FC0000D5A1F4FCE01815B9F4F20E030E04AE762
:101FD00055E4DC016D917D918D919C910E949C3224
:101FE000CE53DF4F688379838A839B83C25CD04062
:101FF000CE53DF4F88819981AA81BB81C25CD040DA
:10200000F80180839183A283B383CE018D5A9F4FC1
:1020100020E030E040E85FE3DC016D917D918D913F
:102020009C910E94383188234CF4CE01895A9F4FED
:1020300021E030E0FC0131832083A5C0CE018D5A20
:102040009F4F20E03FEF4FE757E4DC016D917D911A
:102050008D919C910E949732882309F00CF475C0F1
:10206000CE01815B9F4F20E030E040E251E4FC0173
:1020700060817181828193810E949C32CA53DF4FBB
:10208000688379838A839B83C65CD040CA53DF4FC1
:1020900088819981AA81BB81C65CD040C657DF4F39
:1020A00088839983AA83BB83CA58D0408E01095A7A
:1020B0001F4FC657DF4F688179818A819B81CA583B
:1020C000D0400E94B631C653DF4F688379838A833C
:1020D0009B83CA5CD040C653DF4FE881F981CA5C5C
:1020E000D040D8011196FC93EE9326C0CE01875ABA
:1020F0009F4F20E931E0DC012D933C93CE01875ABC
:102100009F4FFC01808191810197F1F79E01275A31
:102110003F4FD9018D939C930000CE01895A9F4F68
:102120009E01295A3F4FF901208131812150310907
:10213000DC0111963C932E93CE01895A9F4FFC01EE
:1021400080819181009791F6A2C08E01095A1F4F9C
:10215000CE018D5A9F4FDC016D917D918D919C91A7
:102160000E94B631C253DF4F688379838A839B8391
:10217000CE5CD040C253DF4F88819981CE5CD04085
:10218000F80191838083CE01855A9F4F9E01295A81
:102190003F4FD9012D913C91FC0131832083CE0129
:1021A000855A9F4FDC018D919C9111970197F1F712
:1021B0009E01255A3F4FF9019183808368C0CE016B
:1021C0008A5B9F4F20E030E04FE753E4DC016D91E4
:1021D0007D918D919C910E9497328823E1F1DCF1F1
:1021E0008E01035A1F4FCE01865B9F4FFC01608119
:1021F0007181828193810E94B631CE52DF4F688314
:1022000079838A839B83C25DD040CE52DF4FE881C1
:10221000F981C25DD040D801ED93FC93CE01815A83
:102220009F4F9E01235A3F4FD9012D913C91FC01B4
:1022300031832083CE01815A9F4FDC018D919C9187
:1022400011970197F1F79E01215A3F4FF9019183B0
:102250008083000034C08E01025B1F4FCE018A5B79
:102260009F4FDC016D917D918D919C910E94B631C3
:10227000CA52DF4F688379838A839B83C65DD040CF
:10228000CA52DF4F8881C65DD040F8018083CE01FD
:102290008F599F4F9E01225B3F4FD9012C91FC012A
:1022A0002083CE018F599F4FDC018C91282F2A95D6
:1022B000F1F7CE018F599F4FFC012083000088E287
:1022C00090E0DC012C9188E290E02860FC01208302
:1022D00080E090E0A0E8BFE38AA39BA3ACA3BDA3EA
:1022E0002BEA3AEA4AEA50E46AA17BA18CA19DA1BB
:1022F0000E949C32C652DF4F688379838A839B8316
:10230000CA5DD040C652DF4F88819981AA81BB81C6
:10231000CA5DD0408EA39FA3A8A7B9A720E030E054
:1023200040E850E46AA17BA18CA19DA10E949C324F
:10233000C252DF4F688379838A839B83CE5DD0400E
:10234000C252DF4F88819981AA81BB81CE5DD04086
:102350008AA79BA7ACA7BDA720E030E040E85FE3D9
:102360006EA17FA188A599A50E94383188231CF40D
:1023700081E08EA72AC120E03FEF4FE757E46AA52E
:102380007BA58CA59DA50E949732882309F00CF4AB
:10239000CEC020E030E04AE754E46AA17BA18CA1E2
:1023A0009DA10E943D31CE51DF4F688379838A839E
:1023B0009B83C25ED040CE51DF4F88819981AA8134
:1023C000BB81C25ED0408FA798ABA9ABBAAB20E06F
:1023D00030E04AE755E46FA578A989A99AA90E9437
:1023E0009C32CA51DF4F688379838A839B83C65EA0
:1023F000D040CA51DF4F88819981AA81BB81C65ED6
:10240000D0408BAB9CABADABBEAB20E030E040E846
:102410005FE36BA97CA98DA99EA90E94383188230E
:102420002CF481E090E098AF8FAB76C020E03FEFD6
:102430004FE757E46BA97CA98DA99EA90E9497320A
:10244000882309F00CF452C020E030E040E251E46F
:102450006FA578A989A99AA90E949C32C651DF4F1D
:10246000688379838A839B83CA5ED040C651DF4FDD
:1024700088819981AA81BB81CA5ED040CA57DF4F4B
:1024800088839983AA83BB83C658D040CA57DF4F3D
:10249000688179818A819B81C658D0400E94B6317B
:1024A000C251DF4F688379838A839B83CE5ED0409D
:1024B000C251DF4FA881B981CE5ED040B8AFAFAB7B
:1024C00010C080E991E09AAF89AF89AD9AAD0197CC
:1024D000F1F79AAF89AF00008FA998AD019798AF37
:1024E0008FAB8FA998AD009761F76FC06BA97CA9DE
:1024F0008DA99EA90E94B631CE50DF4F68837983A3
:102500008A839B83C25FD040CE50DF4FE881F98140
:10251000C25FD040F8AFEFAB8FA998AD9CAF8BAF47
:102520008BAD9CAD0197F1F79CAF8BAF4EC020E017
:1025300030E04FE753E46EA17FA188A599A50E94E2
:102540009732882371F16CF16AA57BA58CA59DA5B6
:102550000E94B631CA50DF4F688379838A839B8398
:10256000C65FD040CA50DF4F88819981C65FD04096
:102570009EAF8DAF2DAD3EADCE01CF96DC012D933C
:102580003C93CE01CF96FC01808191810197F1F7B8
:102590009E01215C3F4FD90111969C938E930000C0
:1025A00028C06EA17FA188A599A50E94B631C6500A
:1025B000DF4F688379838A839B83CA5FD040C6508C
:1025C000DF4FB881CA5FD040BEA7CE018F5B9F4F5F
:1025D0002EA5FC012083CE018F5B9F4FDC018C91E7
:1025E000282F2A95F1F7CE018F5B9F4FFC012083A6
:1025F000000088E290E0DC012C9188E290E0277FE7
:10260000FC01208380E090E0A0E8BFE38A839B8305
:10261000AC83BD832BEA3AEA4AEA50E46A817B81C3
:102620008C819D810E949C32C250DF4F68837983E8
:102630008A839B83CE5FD040C250DF4F88819981CF
:10264000AA81BB81CE5FD0408E839F83A887B98744
:1026500020E030E040E850E46A817B818C819D81FC
:102660000E949C32CE5FDE4F688379838A839B838E
:10267000C250D140CE5FDE4F88819981AA81BB8153
:10268000C250D1408A879B87AC87BD8720E030E06D
:1026900040E85FE36E817F81888599850E943831AB
:1026A00088231CF481E08E871FC120E03FEF4FE7B5
:1026B00057E46A857B858C859D850E9497328823A7
:1026C00009F00CF4CEC020E030E04AE754E46A811F
:1026D0007B818C819D810E943D31CA5FDE4F688382
:1026E00079838A839B83C650D140CA5FDE4F88813D
:1026F0009981AA81BB81C650D1408F87988BA98BC5
:10270000BA8B20E030E04AE755E46F857889898903
:102710009A890E949C32C65FDE4F688379838A83E0
:102720009B83CA50D140C65FDE4F88819981AA81C0
:10273000BB81CA50D1408B8B9C8BAD8BBE8B20E074
:1027400030E040E85FE36B897C898D899E890E9437
:10275000383188232CF481E090E0988F8F8B76C0FD
:1027600020E03FEF4FE757E46B897C898D899E8994
:102770000E949732882309F00CF452C020E030E028
:1027800040E251E46F85788989899A890E949C3258
:10279000C25FDE4F688379838A839B83CE50D140AA
:1027A000C25FDE4F88819981AA81BB81CE50D14022
:1027B000CE57DF4F88839983AA83BB83C258D0400A
:1027C000CE57DF4F688179818A819B81C258D04082
:1027D0000E94B631CE5EDE4F688379838A839B8305
:1027E000C251D140CE5EDE4FA881B981C251D140E5
:1027F000B88FAF8B10C080E991E09A8F898F898D57
:102800009A8D0197F1F79A8F898F00008F89988DA3
:102810000197988F8F8B8F89988D009761F764C08F
:102820006B897C898D899E890E94B631CA5EDE4F94
:10283000688379838A839B83C651D140CA5EDE4F09
:10284000E881F981C651D140F88FEF8B8F89988D3F
:102850009C8F8B8F8B8D9C8D0197F1F79C8F8B8F2D
:1028600043C020E030E04FE753E46E817F818885EC
:1028700099850E949732882319F114F16A857B8526
:102880008C859D850E94B631C65EDE4F6883798354
:102890008A839B83CA51D140C65EDE4F888199816D
:1028A000CA51D1409E8F8D8F8D8D9E8D98A38F8F15
:1028B0008F8D98A10197F1F798A38F8F00001BC00F
:1028C0006E817F81888599850E94B631C25EDE4F18
:1028D000688379838A839B83CE51D140C25EDE4F69
:1028E0009881CE51D1409E878E8589A389A18A95F2
:1028F000F1F789A300008981882309F073C888E271
:1029000090E0DC012C9188E290E02B7FFC01208399
:1029100087E290E0DC012C9187E290E02068FC01E6
:1029200020830000CF5DDE4F0FB6F894DEBF0FBEF0
:10293000CDBFDF91CF911F910F910895CF93DF937A
:1029400000D0CDB7DEB789837B836A838981882FE6
:1029500090E08130910521F08230910529F008C086
:1029600080E80E94040904C080EC0E940409000071
:1029700000000F900F900F90DF91CF910895CF93AB
:10298000DF93CDB7DEB70E94D3140E94E4140E94F7
:10299000F5140E941F150E9406150E948115000063
:1029A000DF91CF910895CF93DF93CDB7DEB781E26A
:1029B00090E0FC01208181E290E0286FFC012083FF
:1029C0000000DF91CF910895CF93DF93CDB7DEB7AD
:1029D0008AE091E0FC0120818AE091E02460FC0122
:1029E00020830000DF91CF910895CF93DF93CDB77F
:1029F000DEB781E290E0FC01208181E290E0287F57
:102A0000FC0120830000DF91CF910895CF93DF93E5
:102A1000CDB7DEB78DE290E0FC0180818DE290E0E1
:102A2000FC01108283E390E0FC01208183E390E0CD
:102A30002072FC0120830000DF91CF910895CF9395
:102A4000DF93CDB7DEB784E290E0FC01208184E221
:102A500090E02066FC01208381E890E0FC01208169
:102A600081E890E02560FC01208380E890E0FC0193
:102A7000208180E890E02960FC01208388E890E0D4
:102A80002FE730E0FC01318320838AE890E02FE7D4
:102A900030E0FC013183208381E091E0FC01208162
:102AA00081E091E02861FC01208381EA90E0FC0153
:102AB000208181EA90E02560FC01208380EA90E09B
:102AC000FC01208180EA90E02960FC01208388EAF3
:102AD00090E02FE730E0FC01318320838AEA90E028
:102AE0002FE730E0FC013183208380E090E00E94FA
:102AF0005C1A80E090E00E94931A0000DF91CF9171
:102B00000895CF93DF93CDB7DEB78AE091E0FC0163
:102B100020818AE091E02E7FFC01208384E290E016
:102B2000FC01208184E290E02260FC01208384E2A9
:102B300090E0FC01208184E290E02160FC01208390
:102B400084E290E0FC01208184E290E02460FC01BA
:102B5000208382E091E0FC01208182E091E0277FE8
:102B6000FC01208382E091E0FC01208182E091E081
:102B70002F7EFC01208381EA90E022E0FC0120838B
:102B800081EA90E0FC01208181EA90E02068FC016C
:102B9000208381EA90E0FC01208181EA90E02064BA
:102BA000FC01208382E790E0FC01208182E790E035
:102BB0002162FC01208389E390E021E2FC01208373
:102BC00084EA90E0FC011182108210924F02109270
:102BD0004E0278940000DF91CF910895CF93DF9358
:102BE0000F920F92CDB7DEB780910202909103024F
:102BF00081709078992324F401978E6F9F6F0196CE
:102C00009A83898389819A810F900F90DF91CF9168
:102C100008950F931F93CF93DF930F920F92CDB729
:102C2000DEB781E090E00E94EE178C0182E090E038
:102C30000E94EE179801281B390BC9019A838983DA
:102C400089819A810F900F90DF91CF911F910F9101
:102C50000895CF93DF930F920F92CDB7DEB79A838B
:102C6000898389819A81009751F082E290E0FC018A
:102C7000208182E290E02860FC01208309C082E28A
:102C800090E0FC01208182E290E0277FFC0120831C
:102C900000000F900F90DF91CF910895CF93DF93B5
:102CA0000F920F92CDB7DEB79A83898389819A817B
:102CB000009751F082E290E0FC01208182E290E0F6
:102CC0002061FC01208309C082E290E0FC012081A8
:102CD00082E290E02F7EFC01208300000F900F9095
:102CE000DF91CF910895CF93DF930F920F92CDB7DD
:102CF000DEB79A83898389819A81009751F082E2B5
:102D000090E0FC01208182E290E02062FC012083BF
:102D100009C082E290E0FC01208182E290E02F7DF8
:102D2000FC01208300000F900F90DF91CF91089558
:102D3000CF93DF930F920F92CDB7DEB79A8389833B
:102D400089819A81009751F082E290E0FC01208114
:102D500082E290E02064FC01208309C082E290E0DE
:102D6000FC01208182E290E02F7BFC0120830000A7
:102D70000F900F90DF91CF910895CF93DF930F9233
:102D80000F92CDB7DEB79A83898389819A810097A4
:102D900051F082E290E0FC01208182E290E0206824
:102DA000FC01208309C082E290E0FC01208182E2E4
:102DB00090E02F77FC01208300000F900F90DF91AF
:102DC000CF910895CF93DF930F920F92CDB7DEB7D7
:102DD0009A83898389819A81009751F08BE091E0F1
:102DE000FC0120818BE091E02460FC01208309C07C
:102DF0008BE091E0FC0120818BE091E02B7FFC01D6
:102E0000208300000F900F90DF91CF910895CF9312
:102E1000DF93CDB7DEB780E290E0FC018081882FA0
:102E200090E084709927009719F480E090E00DC03D
:102E300080E290E0FC018081882F90E084709927E7
:102E4000009719F081E090E000C0DF91CF910895E4
:102E5000CF93DF93CDB7DEB780E290E0FC018081B5
:102E6000882F90E082709927009719F480E090E015
:102E70000DC080E290E0FC018081882F90E082709C
:102E80009927009719F081E090E000C0DF91CF9181
:102E90000895CF93DF93CDB7DEB780E290E0FC01D9
:102EA0008081882F90E081709927009719F480E045
:102EB00090E00DC080E290E0FC018081882F90E0DE
:102EC00081709927009719F081E090E000C0DF91B0
:102ED000CF910895CF93DF93CDB7DEB78CE290E02A
:102EE000FC018081882F90E080719927009719F468
:102EF00080E090E00DC08CE290E0FC018081882FA2
:102F000090E080719927009719F081E090E000C06F
:102F1000DF91CF910895CF93DF93CDB7DEB78CE2E9
:102F200090E0FC018081882F90E0807299270097C3
:102F300019F480E090E00DC08CE290E0FC0180810B
:102F4000882F90E080729927009719F081E090E037
:102F500000C0DF91CF910895CF93DF93CDB7DEB757
:102F600082E390E0FC018081882F90E080729927B5
:102F7000009719F480E090E00DC082E390E0FC013E
:102F80008081882F90E080729927009719F081E066
:102F900090E000C0DF91CF910895CF93DF93CDB73C
:102FA000DEB78CE290E0FC018081882F90E0887091
:102FB0009927009719F480E090E00DC08CE290E032
:102FC000FC018081882F90E088709927009719F084
:102FD00081E090E000C0DF91CF910895CF93DF931F
:102FE000CDB7DEB7C656D1090FB6F894DEBF0FBE17
:102FF000CDBF9AA389A389A19AA18330910509F431
:1030000056C089A19AA18330910509F0A4F489A141
:103010009AA182309105C1F189A19AA182309105CE
:1030200009F04CF489A19AA1009741F089A19AA1D5
:1030300081309105B1F080E090E034C285E290E00B
:10304000DC012C9185E290E02E7FFC01208385E25B
:1030500090E0DC012C9185E290E02D7FFC01208343
:1030600039C085E290E0DC012C9185E290E021609E
:10307000FC01208385E290E0DC012C9185E290E068
:103080002D7FFC01208326C085E290E0DC012C919D
:1030900085E290E02E7FFC01208385E290E0DC0158
:1030A0002C9185E290E02260FC01208313C085E230
:1030B00090E0DC012C9185E290E02160FC0120830E
:1030C00085E290E0DC012C9185E290E02260FC0139
:1030D0002083000085E290E0DC012C9185E290E005
:1030E0002460FC01208380E090E0A0E0B0E48983CC
:1030F0009A83AB83BC832BEA3AEA4AEA50E46981BB
:103100007A818B819C810E949C326BAB7CAB8DABB6
:103110009EAB2BA93CA94DA95EA92D833E834F836D
:10312000588720E030E040E850E469817A818B8163
:103130009C810E949C326FAB78AF89AF9AAF8FA908
:1031400098ADA9ADBAAD89879A87AB87BC8720E0D7
:1031500030E040E85FE36D817E818F8198850E9439
:10316000383188231CF481E08D87F7C020E03FEFE1
:103170004FE757E469857A858B859C850E94973255
:10318000882309F00CF4AEC020E030E04AE754E4B4
:1031900069817A818B819C810E943D316BAF7CAFCC
:1031A0008DAF9EAF8BAD9CADADADBEAD8E879F8715
:1031B000A88BB98B20E030E04AE755E46E857F8527
:1031C000888999890E949C3223966CAF7DAF8EAF1F
:1031D0009FAF239723962CAD3DAD4EAD5FAD2397AA
:1031E0002A8B3B8B4C8B5D8B20E030E040E85FE32B
:1031F0006A897B898C899D890E94383188232CF4C7
:1032000081E090E09F8B8E8B62C020E03FEF4FE724
:1032100057E46A897B898C899D890E94973288232B
:1032200009F00CF442C020E030E040E251E46E8549
:103230007F85888999890E949C3227966CAF7DAFE3
:103240008EAF9FAF279727968CAD9DADAEADBFAD2E
:1032500027978FA798ABA9ABBAAB6FA578A989A917
:103260009AA90E94B6312B966CAF7DAF8EAF9FAFFF
:103270002B972996AEADBFAD2997BF8BAE8B10C0F3
:1032800080E991E0998F888F888D998D0197F1F76A
:10329000998F888F00008E899F8901979F8B8E8BD5
:1032A0008E899F89009761F758C06A897B898C89CC
:1032B0009D890E94B6312F966CAF7DAF8EAF9FAFC8
:1032C0002F972D96EEADFFAD2D97FF8BEE8B8E8950
:1032D0009F899B8F8A8F8A8D9B8D0197F1F79B8F9A
:1032E0008A8F3BC020E030E04FE753E46D817E8160
:1032F0008F8198850E9497328823F9F0F4F06985D0
:103300007A858B859C850E94B63163966CAF7DAFC4
:103310008EAF9FAF639761962EAD3FAD61973D8FA6
:103320002C8F8C8D9D8D9F8F8E8F8E8D9F8D019775
:10333000F1F79F8F8E8F000017C06D817E818F8186
:1033400098850E94B63167966CAF7DAF8EAF9FAF08
:10335000679764963FAD64973D878D8588A388A164
:103360008A95F1F788A3000085E290E0DC012C91BA
:1033700085E290E02B7FFC01208310924F02109297
:103380004E0284EA90E0DC0111961C921E9281EAC2
:1033900090E0FC01208181EA90E02160DC012C9327
:1033A00082E790E0FC01208182E790E02062DC016E
:1033B0002C93000080914E0290914F028130910534
:1033C000C9F3C4F380915202909153029C01990F6A
:1033D000440B550B6B962CAF3DAF4EAF5FAF6B9769
:1033E0006B966CAD7DAD8EAD9FAD6B970E94E73156
:1033F0006BA37CA38DA39EA323EE35EA4BE55FE38D
:103400006BA17CA18DA19EA10E949C326F966CAF96
:103410007DAF8EAF9FAF6F976F968CAD9DADAEAD0C
:10342000BFAD6F978FA398A7A9A7BAA720E030E0F8
:1034300040EA51E46FA178A589A59AA50E94CB30F6
:10344000A3966CAF7DAF8EAF9FAFA397A3962CAD25
:103450003DAD4EAD5FADA3972BA73CA74DA75EA793
:103460006BA57CA58DA59EA50E94AF31A7966CAFDC
:103470007DAF8EAF9FAFA797A5968EAD9FADA59759
:10348000909351028093500280915002909151028A
:10349000992324F41092510210925002809150020C
:1034A00090915102CA59DF4F0FB6F894DEBF0FBE9C
:1034B000CDBFDF91CF910895CF93DF930F920F92FD
:1034C000CDB7DEB79A83898389819A81009799F075
:1034D00080E890E0FC01208180E890E02F77FC01FB
:1034E000208380E890E0FC01208180E890E0206269
:1034F000FC01208312C080E890E0FC01208180E87C
:1035000090E02F7DFC01208380E890E0FC01208189
:1035100080E890E02068FC01208300000F900F906D
:10352000DF91CF910895CF93DF930F920F92CDB794
:10353000DEB79A83898389819A81009799F080EA1E
:1035400090E0FC01208180EA90E02F7DFC01208347
:1035500080EA90E0FC01208180EA90E02068FC0194
:10356000208312C080EA90E0FC01208180EA90E094
:103570002F77FC01208380EA90E0FC01208180EA23
:1035800090E02062FC01208300000F900F90DF91FB
:10359000CF910895CF93DF930F920F92CDB7DEB7FF
:1035A0009A83898388EA90E029813A81FC013183FA
:1035B00020838AEA90E029813A81FC0131832083CB
:1035C00000000F900F90DF91CF910895CF93DF937C
:1035D0000F920F92CDB7DEB79A83898388E890E087
:1035E00029813A81FC01318320838AE890E0298196
:1035F0003A81FC013183208300000F900F90DF910E
:10360000CF9108951F920F920FB60F9211240BB60F
:103610000F922F938F939F93EF93FF93CF93DF930B
:10362000CDB7DEB780914E0290914F020097B9F46A
:1036300086EA90E0FC01808191819093550280930D
:10364000540281EA90E0FC01208181EA90E02F7B26
:10365000FC01208384EA90E0FC01118210828091B9
:103660004E0290914F028130910549F586EA90E033
:10367000FC0180819181909353028093520281EAF0
:1036800090E0FC01208181EA90E02064FC0120832D
:1036900082E790E0FC01208182E790E02F7DFC0131
:1036A000208381EA90E0FC01208181EA90E02E7F76
:1036B000FC01208384E890E0FC011182108280915B
:1036C0004E0290914F02019690934F0280934E02CA
:1036D0000000DF91CF91FF91EF919F918F912F91FA
:1036E0000F900BBE0F900FBE0F901F9018951F925A
:1036F0000F920FB60F9211240BB60F922F938F9348
:103700009F93EF93FF93CF93DF93CDB7DEB783E023
:1037100090E090934F0280934E02109253021092C9
:103720005202109255021092540281EA90E0FC017C
:10373000208181EA90E02064FC01208382E790E010
:10374000FC01208182E790E02F7DFC01208381EA4B
:1037500090E0FC01208181EA90E02E7FFC01208333
:1037600084E890E0FC01118210820000DF91CF918B
:10377000FF91EF919F918F912F910F900BBE0F9022
:103780000FBE0F901F9018950F931F93CF93DF9349
:10379000CDB7DEB7CA56D2400FB6F894DEBF0FBE23
:1037A000CDBF0E94BF1485E090E09A838983898110
:1037B0009A81092E000CAA0BBB0B87309105A1053D
:1037C000B10509F0A0F7FC018827E55AF94C8F4FA5
:1037D0000C94C33080E090E00E94981680E090E066
:1037E0000E94731681E090E00E94BD1680E090E098
:1037F0000E94E61A80E090E00E94CA1A80E090E001
:103800000E945C1A80E090E00E94931A80E290E0AF
:10381000DC018C91882F90E084709927009709F43F
:10382000C4C080913602909137028130910509F031
:10383000BCC080E090E0A0EAB1E48F839887A987BC
:10384000BA8720E030E04AE755E46F8178858985C2
:103850009A850E949C32C55BDE4F688379838A8398
:103860009B83CB54D140C55BDE4F88819981AA816F
:10387000BB81CB54D1408B879C87AD87BE8720E02E
:1038800030E040E85FE36B857C858D859E850E94F6
:10389000383188232CF481E090E0988B8F8776C0B4
:1038A00020E03FEF4FE757E46B857C858D859E8553
:1038B0000E949732882309F00CF452C020E030E0D7
:1038C00040E251E46F81788589859A850E949C3217
:1038D000C15BDE4F688379838A839B83CF54D14059
:1038E000C15BDE4F88819981AA81BB81CF54D140D1
:1038F000CD5FDE4F88839983AA83BB83C350D140B9
:10390000CD5FDE4F688179818A819B81C350D14030
:103910000E94B631CD5ADE4F688379838A839B83B8
:10392000C355D140CD5ADE4FA881B981C355D1408E
:10393000B88BAF8710C080E991E09A8B898B898919
:103940009A890197F1F79A8B898B00008F85988966
:103950000197988B8F878F859889009761F721C091
:103960006B857C858D859E850E94B631C95ADE4F58
:10397000688379838A839B83C755D140C95ADE4FB8
:10398000E881F981C755D140F88BEF878F859889F9
:103990009C8B8B8B8B899C890197F1F79C8B8B8BF4
:1039A000000010923702109236020E9428170097EA
:1039B00011F40C94B1308091360290913702009747
:1039C00011F00C94B13080E090E0A0EAB1E48D8B6E
:1039D0009E8BAF8BB88F20E030E04AE755E46D89CD
:1039E0007E898F89988D0E949C32C55ADE4F6883EC
:1039F00079838A839B83CB55D140C55ADE4F88811A
:103A00009981AA81BB81CB55D140898F9A8FAB8F89
:103A1000BC8F20E030E040E85FE3698D7A8D8B8DCC
:103A20009C8D0E94383188232CF481E090E09E8F99
:103A30008D8F76C020E03FEF4FE757E4698D7A8D98
:103A40008B8D9C8D0E949732882309F00CF452C014
:103A500020E030E040E251E46D897E898F89988DC5
:103A60000E949C32C15ADE4F688379838A839B838C
:103A7000CF55D140C15ADE4F88819981AA81BB813F
:103A8000CF55D140C95FDE4F88839983AA83BB831A
:103A9000C750D140C95FDE4F688179818A819B819F
:103AA000C750D1400E94B631CD59DE4F688379832B
:103AB0008A839B83C356D140CD59DE4FA881B981FB
:103AC000C356D140BE8FAD8F10C080E991E098A35E
:103AD0008F8F8F8D98A10197F1F798A38F8F00009A
:103AE0008D8D9E8D01979E8F8D8F8D8D9E8D0097D4
:103AF00061F721C0698D7A8D8B8D9C8D0E94B631C6
:103B0000C959DE4F688379838A839B83C756D14026
:103B1000C959DE4FE881F981C756D140FE8FED8F3C
:103B20008D8D9E8D9AA389A389A19AA10197F1F702
:103B30009AA389A3000080914002909141028130B4
:103B4000910531F482E090E09A8389830C94C1302E
:103B500080914202909143028130910531F481E0DD
:103B600090E09A8389830C94C130809138029091BF
:103B700039028130910531F483E090E09A838983A2
:103B80000C94C13080913A0290913B0281309105B2
:103B900031F487E090E09A8389830C94C1301A82D3
:103BA00019820C94C13081E090E00E94981684E163
:103BB00090E00E94E61A85E190E00E94CA1A81E036
:103BC00090E00E945C1A81E090E00E94931A80913C
:103BD0003E0290913F02009741F00E942817009703
:103BE00021F410923F0210923E0280E290E0DC014C
:103BF0008C91882F90E084709927009709F4CBC0AE
:103C00008091360290913702009709F0C4C080E09D
:103C100090E0A0EAB1E48BA39CA3ADA3BEA320E0F7
:103C200030E04AE755E46BA17CA18DA19EA10E94E2
:103C30009C32C559DE4F688379838A839B83CB5638
:103C4000D140C559DE4F88819981AA81BB81CB566D
:103C5000D1408FA398A7A9A7BAA720E030E040E8F9
:103C60005FE36FA178A589A59AA50E9438318823C2
:103C70002CF481E090E09CA78BA776C020E03FEF7A
:103C80004FE757E46FA178A589A59AA50E949732BE
:103C9000882309F00CF452C020E030E040E251E407
:103CA0006BA17CA18DA19EA10E949C32C159DE4FC7
:103CB000688379838A839B83CF56D140C159DE4F75
:103CC00088819981AA81BB81CF56D140C55FDE4FE3
:103CD00088839983AA83BB83CB50D140C55FDE4FD5
:103CE000688179818A819B81CB50D1400E94B63115
:103CF000CD58DE4F688379838A839B83C357D14035
:103D0000CD58DE4FA881B981C357D140BCA7ABA71E
:103D100010C080E991E09EA78DA78DA59EA5019773
:103D2000F1F79EA78DA700008BA59CA501979CA7E6
:103D30008BA78BA59CA5009761F721C06FA178A5E3
:103D400089A59AA50E94B631C958DE4F6883798348
:103D50008A839B83C757D140C958DE4FE881F981D8
:103D6000C757D140FCA7EBA78BA59CA598AB8FA705
:103D70008FA598A90197F1F798AB8FA7000081E074
:103D800090E0909337028093360284E090E09A832B
:103D900089830C94C13080913C0290913D02813026
:103DA000910541F40E942817009721F410923D02DA
:103DB00010923C020E942817009711F40C94B43022
:103DC00080913402909135028130910511F00C946C
:103DD000B43080913E0290913F02009711F00C9414
:103DE000B43080913C0290913D02009711F00C9408
:103DF000B43080E090E0A0EAB1E489AB9AABABAB21
:103E0000BCAB20E030E04AE755E469A97AA98BA968
:103E10009CA90E949C32C558DE4F688379838A83AF
:103E20009B83CB57D140C558DE4F88819981AA81A9
:103E3000BB81CB57D1408DAB9EABAFABB8AF20E0D1
:103E400030E040E85FE36DA97EA98FA998AD0E949C
:103E5000383188232CF481E090E09AAF89AF76C0A6
:103E600020E03FEF4FE757E46DA97EA98FA998ADF9
:103E70000E949732882309F00CF452C020E030E011
:103E800040E251E469A97AA98BA99CA90E949C32BD
:103E9000C158DE4F688379838A839B83CF57D14093
:103EA000C158DE4F88819981AA81BB81CF57D1400B
:103EB000C15FDE4F88839983AA83BB83CF50D140F3
:103EC000C15FDE4F688179818A819B81CF50D1406B
:103ED0000E94B631CD57DE4F688379838A839B83F6
:103EE000C358D140CD57DE4FA881B981C358D140C6
:103EF000BAAFA9AF10C080E991E09CAF8BAF8BAD9A
:103F00009CAD0197F1F79CAF8BAF000089AD9AADE6
:103F100001979AAF89AF89AD9AAD009761F721C03B
:103F20006DA97EA98FA998AD0E94B631C957DE4F01
:103F3000688379838A839B83C758D140C957DE4FF2
:103F4000E881F981C758D140FAAFE9AF89AD9AADA0
:103F50009EAF8DAF8DAD9EAD0197F1F79EAF8DAF4A
:103F60000000109235021092340281E090E09093AC
:103F70003D0280933C0285E090E09A8389830C9413
:103F8000C13080E290E0DC018C91882F90E0847059
:103F90009927009709F41DC180913602909137024C
:103FA000009709F016C19E01215C3F4F80E090E030
:103FB000A0EAB1E4F90180839183A283B3838E01E7
:103FC0000D5B1F4FCE01CF9620E030E04AE755E46D
:103FD000DC016D917D918D919C910E949C32C55721
:103FE000DE4F688379838A839B83CB58D140C55742
:103FF000DE4F88819981AA81BB81CB58D140F801DD
:1040000080839183A283B383CE018D5B9F4F20E099
:1040100030E040E85FE3DC016D917D918D919C91F2
:104020000E94383188234CF4CE01895B9F4F21E0F8
:1040300030E0FC0131832083A4C0CE018D5B9F4F13
:1040400020E03FEF4FE757E4DC016D917D918D91CA
:104050009C910E949732882309F00CF474C0CE0121
:10406000CF9620E030E040E251E4FC0160817181B4
:10407000828193810E949C32C157DE4F688379838D
:104080008A839B83CF58D140C157DE4F8881998165
:10409000AA81BB81CF58D140CD5EDE4F8883998302
:1040A000AA83BB83C351D1408E01095B1F4FCD5EF4
:1040B000DE4F688179818A819B81C351D1400E9402
:1040C000B631CD56DE4F688379838A839B83C3598B
:1040D000D140CD56DE4FE881F981C359D140D80196
:1040E0001196FC93EE9326C0CE01875B9F4F20E98B
:1040F00031E0DC012D933C93CE01875B9F4FFC01A7
:10410000808191810197F1F79E01275B3F4FD90193
:104110008D939C930000CE01895B9F4F9E01295B8C
:104120003F4FF9012081318121503109DC01119685
:104130003C932E93CE01895B9F4FFC01808191813E
:10414000009791F63AC08E01095B1F4FCE018D5B3F
:104150009F4FDC016D917D918D919C910E94B631B4
:10416000C956DE4F688379838A839B83C759D140C0
:10417000C956DE4F88819981C759D140F801918392
:104180008083CE01855B9F4F9E01295B3F4FD90104
:104190002D913C91FC0131832083CE01855B9F4FA3
:1041A000DC018D919C9111970197F1F79E01255BA0
:1041B0003F4FF90191838083000081E090E090936C
:1041C00037028093360284E090E09A8389830C94CE
:1041D000C1300E9409168930910559F054F084E1EC
:1041E00090E00E94E61A85E090E00E94CA1A0C94C2
:1041F000C1300E940916873FFFEF9F0754F485E006
:1042000090E00E94E61A85E190E00E94CA1A0C94A0
:10421000C1301A8219820C94C13080E090E00E9473
:10422000981680E090E00E94731680E090E00E9473
:10423000BD1680E090E00E94E61A80E090E00E94C7
:10424000CA1A80E090E00E94931A80E090E00E94F9
:104250005C1A80913E0290913F02009709F414C1CC
:104260000E942817009709F00FC19E01235B3F4F62
:1042700080E090E0A0EAB1E4F90180839183A28319
:10428000B3838E010F5A1F4FCE01835B9F4F20E0F7
:1042900030E04AE755E4DC016D917D918D919C9170
:1042A0000E949C32C556DE4F688379838A839B8344
:1042B000CB59D140C556DE4F88819981AA81BB81F7
:1042C000CB59D140F80180839183A283B383CE017F
:1042D0008F5A9F4F20E030E040E85FE3DC016D91B2
:1042E0007D918D919C910E94383188234CF4CE01B0
:1042F0008B5A9F4F21E030E0FC0131832083A5C021
:10430000CE018F5A9F4F20E03FEF4FE757E4DC018B
:104310006D917D918D919C910E949732882309F037
:104320000CF475C0CE01835B9F4F20E030E040E28B
:1043300051E4FC0160817181828193810E949C32F1
:10434000C156DE4F688379838A839B83CF59D140DE
:10435000C156DE4F88819981AA81BB81CF59D14056
:10436000C95EDE4F88839983AA83BB83C751D1403E
:104370008E010B5A1F4FC95EDE4F688179818A8199
:104380009B81C751D1400E94B631CD55DE4F688325
:1043900079838A839B83C35AD140CD55DE4FE88110
:1043A000F981C35AD140D8011196FC93EE9326C0EF
:1043B000CE01895A9F4F20E931E0DC012D933C93D7
:1043C000CE01895A9F4FFC01808191810197F1F7BD
:1043D0009E01295A3F4FD9018D939C930000CE0135
:1043E0008B5A9F4F9E012B5A3F4FF90120813181FB
:1043F00021503109DC0111963C932E93CE018B5A4A
:104400009F4FFC0180819181009791F639C08E0108
:104410000B5A1F4FCE018F5A9F4FDC016D917D913A
:104420008D919C910E94B631C955DE4F6883798386
:104430008A839B83C75AD140C955DE4F88819981B1
:10444000C75AD140F80191838083CE01875A9F4F8C
:104450009E012B5A3F4FD9012D913C91FC01318394
:104460002083CE01875A9F4FDC018D919C9101974B
:10447000F1F79E01275A3F4FF90191838083000095
:1044800010923F0210923E020E942817009709F0F6
:1044900016C180913C0290913D02009709F40FC132
:1044A0009E01255A3F4F80E090E0A0EAB1E4F90177
:1044B00080839183A283B3838E01015A1F4FCE0163
:1044C000855A9F4F20E030E04AE755E4DC016D91CA
:1044D0007D918D919C910E949C32C555DE4F6883E1
:1044E00079838A839B83CB5AD140C555DE4F88811F
:1044F0009981AA81BB81CB5AD140F80180839183F5
:10450000A283B383CE01815A9F4F20E030E040E880
:104510005FE3DC016D917D918D919C910E9438311A
:1045200088234CF4CE018D599F4F21E030E0FC01EF
:1045300031832083A5C0CE01815A9F4F20E03FEFF9
:104540004FE757E4DC016D917D918D919C910E9424
:104550009732882309F00CF475C0CE01855A9F4F1D
:1045600020E030E040E251E4FC0160817181828111
:1045700093810E949C32C155DE4F688379838A8380
:104580009B83CF5AD140C155DE4F88819981AA8142
:10459000BB81CF5AD140C55EDE4F88839983AA8301
:1045A000BB83CB51D1408E010D591F4FC55EDE4FED
:1045B000688179818A819B81CB51D1400E94B6313B
:1045C000CD54DE4F688379838A839B83C35BD1405C
:1045D000CD54DE4FE881F981C35BD140D8011196FB
:1045E000FC93EE9326C0CE018B599F4F20E931E01A
:1045F000DC012D933C93CE018B599F4FFC018081B0
:1046000091810197F1F79E012B593F4FD9018D936D
:104610009C930000CE018D599F4F9E012D593F4F15
:10462000F9012081318121503109DC0111963C933F
:104630002E93CE018D599F4FFC018081918100976F
:1046400091F639C08E010D591F4FCE01815A9F4FEF
:10465000DC016D917D918D919C910E94B631C95480
:10466000DE4F688379838A839B83C75BD140C954BB
:10467000DE4F88819981C75BD140F80191838083A7
:10468000CE0189599F4F9E012D593F4FD9012D9140
:104690003C91FC0131832083CE0189599F4FDC017D
:1046A0008D919C910197F1F79E0129593F4FF90196
:1046B00091838083000010923D0210923C020E9480
:1046C0002817009709F431C1809134029091350286
:1046D000009709F02AC180913E0290913F02009715
:1046E00009F023C180913C0290913D02009709F0AE
:1046F0001CC19E0127593F4F80E090E0A0EAB1E441
:10470000F90180839183A283B3838E0103591F4FE4
:10471000CE0187599F4F20E030E04AE755E4DC01A5
:104720006D917D918D919C910E949C32C554DE4F7C
:10473000688379838A839B83CB5BD140C554DE4FEA
:1047400088819981AA81BB81CB5BD140F8018083AC
:104750009183A283B383CE0183599F4F20E030E041
:1047600040E85FE3DC016D917D918D919C910E9409
:10477000383188234CF4CE018F589F4F21E030E030
:10478000FC0131832083A5C0CE0183599F4F20E0D7
:104790003FEF4FE757E4DC016D917D918D919C9146
:1047A0000E949732882309F00CF475C0CE01875916
:1047B0009F4F20E030E040E251E4FC0160817181D4
:1047C000828193810E949C32C154DE4F6883798339
:1047D0008A839B83CF5BD140C154DE4F888199810E
:1047E000AA81BB81CF5BD140C15EDE4F88839983B4
:1047F000AA83BB83CF51D1408E010F581F4FC15E9A
:10480000DE4F688179818A819B81CF51D1400E949E
:10481000B631CD53DE4F688379838A839B83C35C33
:10482000D140CD53DE4FE881F981C35CD140D8013E
:104830001196FC93EE9326C0CE018D589F4F20E930
:1048400031E0DC012D933C93CE018D589F4FFC014C
:10485000808191810197F1F79E012D583F4FD90139
:104860008D939C930000CE018F589F4F9E012F582F
:104870003F4FF9012081318121503109DC0111962E
:104880003C932E93CE018F589F4FFC0180819181E4
:10489000009791F63AC08E010F581F4FCE018359F1
:1048A0009F4FDC016D917D918D919C910E94B6315D
:1048B000C953DE4F688379838A839B83C75CD14069
:1048C000C953DE4F88819981C75CD140F80191833B
:1048D0008083CE018B589F4F9E012F583F4FD901A7
:1048E0002D913C91FC0131832083CE018B589F4F49
:1048F000DC018D919C9111970197F1F79E012B5846
:104900003F4FF90191838083000081E090E0909314
:1049100035028093340281E090E090933D028093D1
:104920003C021A8219820C94C1300E9449170097E8
:1049300011F40C94B73080913802909139020097AD
:1049400011F00C94B7309E0129583F4F80E090E061
:10495000A0EAB1E4F90180839183A283B3838E013D
:1049600005581F4FCE0189589F4F20E030E04AE79D
:1049700055E4DC016D917D918D919C910E949C325A
:10498000C553DE4F688379838A839B83CB5CD14098
:10499000C553DE4F88819981AA81BB81CB5CD14010
:1049A000F80180839183A283B383CE0185589F4F02
:1049B00020E030E040E85FE3DC016D917D918D9176
:1049C0009C910E94383188234CF4CE0181589F4F2E
:1049D00021E030E0FC0131832083A5C0CE01855861
:1049E0009F4F20E03FEF4FE757E4DC016D917D9151
:1049F0008D919C910E949732882309F00CF475C028
:104A0000CE0189589F4F20E030E040E251E4FC01A4
:104A100060817181828193810E949C32C153DE4FFB
:104A2000688379838A839B83CF5CD140C153DE4FF7
:104A300088819981AA81BB81CF5CD140CD5DDE4F59
:104A400088839983AA83BB83C352D1408E010158C6
:104A50001F4FCD5DDE4F688179818A819B81C35272
:104A6000D1400E94B631CD52DE4F688379838A836C
:104A70009B83C35DD140CD52DE4FE881F981C35D98
:104A8000D140D8011196FC93EE9326C0CE018F57EA
:104A90009F4F20E931E0DC012D933C93CE018F57ED
:104AA0009F4FFC01808191810197F1F79E012F5763
:104AB0003F4FD9018D939C930000CE0181589F4FA9
:104AC0009E0121583F4FF901208131812150310948
:104AD000DC0111963C932E93CE0181589F4FFC012F
:104AE00080819181009791F63AC08E0101581F4F45
:104AF000CE0185589F4FDC016D917D918D919C91E8
:104B00000E94B631C952DE4F688379838A839B83C2
:104B1000C75DD140C952DE4F88819981C75DD140C0
:104B2000F80191838083CE018D579F4F9E012158BC
:104B30003F4FD9012D913C91FC0131832083CE015F
:104B40008D579F4FDC018D919C9111970197F1F743
:104B50009E012D573F4FF90191838083000081E032
:104B600090E0909339028093380283E090E09A833A
:104B700089830C94C1308AE090E00E94E61A85E1B6
:104B800090E00E94CA1A82E090E00E94EE178D31F8
:104B9000910509F08CF41092430210924202809128
:104BA0000202909103020196909303028093020205
:104BB0001A8219820C94C13080E290E0DC018C9161
:104BC000882F90E084709927009711F40C94BA30E4
:104BD0008091360290913702009711F00C94BA3010
:104BE0009E012B573F4F80E090E0A0EAB1E4F9012D
:104BF00080839183A283B3838E0107571F4FCE0119
:104C00008B579F4F20E030E04AE755E4DC016D917F
:104C10007D918D919C910E949C32C552DE4F68839C
:104C200079838A839B83CB5DD140C552DE4F8881D7
:104C30009981AA81BB81CB5DD140F80180839183AA
:104C4000A283B383CE0187579F4F20E030E040E836
:104C50005FE3DC016D917D918D919C910E943831D3
:104C600088234CF4CE0183579F4F21E030E0FC01B4
:104C700031832083A5C0CE0187579F4F20E03FEFAF
:104C80004FE757E4DC016D917D918D919C910E94DD
:104C90009732882309F00CF475C0CE018B579F4FD3
:104CA00020E030E040E251E4FC01608171818281CA
:104CB00093810E949C32C152DE4F688379838A833C
:104CC0009B83CF5DD140C152DE4F88819981AA81FB
:104CD000BB81CF5DD140C95DDE4F88839983AA83B4
:104CE000BB83C752D1408E0103571F4FC95DDE4FB2
:104CF000688179818A819B81C752D1400E94B631F7
:104D0000CD51DE4F688379838A839B83C35ED14014
:104D1000CD51DE4FE881F981C35ED140D8011196B3
:104D2000FC93EE9326C0CE0181579F4F20E931E0DE
:104D3000DC012D933C93CE0181579F4FFC01808174
:104D400091810197F1F79E0121573F4FD9018D9332
:104D50009C930000CE0183579F4F9E0123573F4FE6
:104D6000F9012081318121503109DC0111963C93F8
:104D70002E93CE0183579F4FFC0180819181009734
:104D800091F63AC08E0103571F4FCE0187579F4FB0
:104D9000DC016D917D918D919C910E94B631C9513C
:104DA000DE4F688379838A839B83C75ED140C95174
:104DB000DE4F88819981C75ED140F801918380835D
:104DC000CE018F569F4F9E0123573F4FD9012D9102
:104DD0003C91FC0131832083CE018F569F4FDC0133
:104DE0008D919C9111970197F1F79E012F563F4F9E
:104DF000F90191838083000081E090E09093370275
:104E00008093360284E090E09A8389830C94C130C9
:104E100084E190E00E94E61A8AE090E00E94CA1ABB
:104E200081E090E00E94EE178D31910509F08CF43D
:104E3000109241021092400280910202909103026E
:104E4000019690930302809302021A8219820C94B5
:104E5000C13080E290E0DC018C91882F90E084707A
:104E60009927009711F40C94BD30809136029091EF
:104E70003702009711F00C94BD309E012D563F4F24
:104E800080E090E0A0EAB1E4F90180839183A283FD
:104E9000B3838E0109561F4FCE018D569F4F20E0E0
:104EA00030E04AE755E4DC016D917D918D919C9154
:104EB0000E949C32C551DE4F688379838A839B832D
:104EC000CB5ED140C551DE4F88819981AA81BB81DB
:104ED000CB5ED140F80180839183A283B383CE015E
:104EE00089569F4F20E030E040E85FE3DC016D91A0
:104EF0007D918D919C910E94383188234CF4CE0194
:104F000085569F4F21E030E0FC0131832083A5C00E
:104F1000CE0189569F4F20E03FEF4FE757E4DC0179
:104F20006D917D918D919C910E949732882309F01B
:104F30000CF475C0CE018D569F4F20E030E040E26A
:104F400051E4FC0160817181828193810E949C32D5
:104F5000C151DE4F688379838A839B83CF5ED140C2
:104F6000C151DE4F88819981AA81BB81CF5ED1403A
:104F7000C55DDE4F88839983AA83BB83CB52D14022
:104F80008E0105561F4FC55DDE4F688179818A818C
:104F90009B81CB52D1400E94B631CD50DE4F688309
:104FA00079838A839B83C35FD140CD50DE4FE881F4
:104FB000F981C35FD140D8011196FC93EE9326C0CE
:104FC000CE0183569F4F20E931E0DC012D933C93C5
:104FD000CE0183569F4FFC01808191810197F1F7AB
:104FE0009E0123563F4FD9018D939C930000CE0123
:104FF00085569F4F9E0125563F4FF90120813181F3
:1050000021503109DC0111963C932E93CE01855637
:105010009F4FFC0180819181009791F63AC08E01EB
:1050200005561F4FCE0189569F4FDC016D917D9132
:105030008D919C910E94B631C950DE4F688379836F
:105040008A839B83C75FD140C950DE4F8881998195
:10505000C75FD140F80191838083CE0181569F4F75
:105060009E0125563F4FD9012D913C91FC01318382
:105070002083CE0181569F4FDC018D919C91119729
:105080000197F1F79E0121563F4FF90191838083EB
:10509000000081E090E0909337028093360284E034
:1050A00090E09A8389830C94C13081E090E00E9463
:1050B000731680E090E00E94E61A80E090E00E9483
:1050C000CA1A0E942817009709F41BC19E012F5588
:1050D0003F4F80E090E0A0EAB1E4F9018083918342
:1050E000A283B3838E010B551F4FCE018F559F4F67
:1050F00020E030E04AE755E4DC016D917D918D912F
:105100009C910E949C32C550DE4F688379838A83CC
:105110009B83CB5FD140C550DE4F88819981AA81A6
:10512000BB81CB5FD140F80180839183A283B3839D
:10513000CE018B559F4F20E030E040E85FE3DC017B
:105140006D917D918D919C910E94383188234CF412
:10515000CE0187559F4F21E030E0FC013183208351
:10516000A5C0CE018B559F4F20E03FEF4FE757E49E
:10517000DC016D917D918D919C910E9497328823E5
:1051800009F00CF475C0CE018F559F4F20E030E040
:1051900040E251E4FC0160817181828193810E942F
:1051A0009C32C150DE4F688379838A839B83CF5FB3
:1051B000D140C150DE4F88819981AA81BB81CF5FE8
:1051C000D140C15DDE4F88839983AA83BB83CF52D0
:1051D000D1408E0107551F4FC15DDE4F6881798137
:1051E0008A819B81CF52D1400E94B631CD5FDD4F85
:1051F000688379838A839B83C350D240CD5FDD4F20
:10520000E881F981C350D240D8011196FC93EE9306
:1052100026C0CE0185559F4F20E931E0DC012D935A
:105220003C93CE0185559F4FFC0180819181019770
:10523000F1F79E0125553F4FD9018D939C930000B6
:10524000CE0187559F4F9E0127553F4FF901208181
:10525000318121503109DC0111963C932E93CE010E
:1052600087559F4FFC0180819181009791F63AC04C
:105270008E0107551F4FCE018B559F4FDC016D915D
:105280007D918D919C910E94B631C95FDD4F6883FD
:1052900079838A839B83C750D240C95FDD4F888161
:1052A0009981C750D240F80191838083CE01835504
:1052B0009F4F9E0127553F4FD9012D913C91FC01F5
:1052C00031832083CE0183559F4FDC018D919C91CA
:1052D00011970197F1F79E0123553F4FF9019183F3
:1052E00080830000109239021092380281E090E031
:1052F00090933F0280933E0285E090E09A838983F9
:1053000040C780E290E0DC018C91882F90E08470AF
:105310009927009709F434C780913602909137029B
:10532000009709F02DC79E0121553F4F80E090E086
:10533000A0EAB1E4F90180839183A283B3838E0153
:105340000D541F4FCE0181559F4F20E030E04AE7BA
:1053500055E4DC016D917D918D919C910E949C3270
:10536000C55FDD4F688379838A839B83CB50D240AE
:10537000C55FDD4F88819981AA81BB81CB50D24026
:10538000F80180839183A283B383CE018D549F4F14
:1053900020E030E040E85FE3DC016D917D918D918C
:1053A0009C910E94383188234CF4CE0189549F4F40
:1053B00021E030E0FC0131832083A5C0CE018D5473
:1053C0009F4F20E03FEF4FE757E4DC016D917D9167
:1053D0008D919C910E949732882309F00CF475C03E
:1053E000CE0181559F4F20E030E040E251E4FC01C6
:1053F00060817181828193810E949C32C15FDD4F07
:10540000688379838A839B83CF50D240C15FDD4F0D
:1054100088819981AA81BB81CF50D240CD5CDE4F7B
:1054200088839983AA83BB83C353D1408E010954D7
:105430001F4FCD5CDE4F688179818A819B81C35388
:10544000D1400E94B631CD5EDD4F688379838A8377
:105450009B83C351D240CD5EDD4FE881F981C351BA
:10546000D240D8011196FC93EE9326C0CE0187540A
:105470009F4F20E931E0DC012D933C93CE0187540E
:105480009F4FFC01808191810197F1F79E01275484
:105490003F4FD9018D939C930000CE0189549F4FBB
:1054A0009E0129543F4FF90120813181215031095A
:1054B000DC0111963C932E93CE0189549F4FFC0141
:1054C00080819181009791F63AC08E0109541F4F57
:1054D000CE018D549F4FDC016D917D918D919C91FA
:1054E0000E94B631C95EDD4F688379838A839B83CE
:1054F000C751D240C95EDD4F88819981C751D240E2
:10550000F80191838083CE0185549F4F9E012954D9
:105510003F4FD9012D913C91FC0131832083CE0175
:1055200085549F4FDC018D919C9111970197F1F764
:105530009E0125543F4FF90191838083000081E053
:1055400090E0909337028093360284E090E09A8353
:10555000898317C680E090E00E94E61A80E090E020
:105560000E94CA1A80E090E00E945C1A80E090E0FD
:105570000E94931A8091460290914702009771F021
:1055800080914A0290914B02019690934B02809336
:105590004A0281E090E00E944E1613C080914402BE
:1055A00090914502009769F08091480290914902DC
:1055B0000196909349028093480281E090E00E9416
:1055C000291681E090E00E94E2161C821B823EC2F6
:1055D00080E290E0DC018C91882F90E08470992724
:1055E000009709F422C1809136029091370200970A
:1055F00009F01BC180E090E00E94E2169E01235456
:105600003F4F80E090E0A0EAB1E4F901808391830C
:10561000A283B3838E010F531F4FCE0183549F4F3C
:1056200020E030E04AE755E4DC016D917D918D91F9
:105630009C910E949C32C55EDD4F688379838A838A
:105640009B83CB51D240C55EDD4F88819981AA8171
:10565000BB81CB51D240F80180839183A283B38375
:10566000CE018F539F4F20E030E040E85FE3DC0144
:105670006D917D918D919C910E94383188234CF4DD
:10568000CE018B539F4F21E030E0FC01318320831A
:10569000A5C0CE018F539F4F20E03FEF4FE757E467
:1056A000DC016D917D918D919C910E9497328823B0
:1056B00009F00CF475C0CE0183549F4F20E030E018
:1056C00040E251E4FC0160817181828193810E94FA
:1056D0009C32C15EDD4F688379838A839B83CF517F
:1056E000D240C15EDD4F88819981AA81BB81CF51B3
:1056F000D240C95CDE4F88839983AA83BB83C7539A
:10570000D1408E010B531F4FC95CDE4F68817981F8
:105710008A819B81C753D1400E94B631CD5DDD4F58
:10572000688379838A839B83C352D240CD5DDD4FEA
:10573000E881F981C352D240D8011196FC93EE93CF
:1057400026C0CE0189539F4F20E931E0DC012D9323
:105750003C93CE0189539F4FFC0180819181019739
:10576000F1F79E0129533F4FD9018D939C9300007F
:10577000CE018B539F4F9E012B533F4FF901208148
:10578000318121503109DC0111963C932E93CE01D9
:105790008B539F4FFC0180819181009791F63AC015
:1057A0008E010B531F4FCE018F539F4FDC016D9124
:1057B0007D918D919C910E94B631C95DDD4F6883CA
:1057C00079838A839B83C752D240C95DDD4F88812C
:1057D0009981C752D240F80191838083CE018753CB
:1057E0009F4F9E012B533F4FD9012D913C91FC01BE
:1057F00031832083CE0187539F4FDC018D919C9193
:1058000011970197F1F79E0127533F4FF9019183BB
:105810008083000081E090E090933702809336020D
:1058200084E090E09A83898318C19E0125533F4FFD
:1058300080E090E0A8ECB2E4F90180839183A28338
:10584000B3838E0101531F4FCE0185539F4F20E03C
:1058500030E04AE755E4DC016D917D918D919C919A
:105860000E949C32C55DDD4F688379838A839B8368
:10587000CB52D240C55DDD4F88819981AA81BB8121
:10588000CB52D240F80180839183A283B383CE01AF
:1058900081539F4F20E030E040E85FE3DC016D91F1
:1058A0007D918D919C910E94383188234CF4CE01DA
:1058B0008D529F4F21E030E0FC0131832083A5C051
:1058C000CE0181539F4F20E03FEF4FE757E4DC01CB
:1058D0006D917D918D919C910E949732882309F062
:1058E0000CF475C0CE0185539F4F20E030E040E2BC
:1058F00051E4FC0160817181828193810E949C321C
:10590000C15DDD4F688379838A839B83CF52D24008
:10591000C15DDD4F88819981AA81BB81CF52D24080
:10592000C55CDE4F88839983AA83BB83CB53D14068
:105930008E010D521F4FC55CDE4F688179818A81CF
:105940009B81CB53D1400E94B631CD5CDD4F688343
:1059500079838A839B83C353D240CD5CDD4FE8813A
:10596000F981C353D240D8011196FC93EE9326C01F
:10597000CE018B529F4F20E931E0DC012D933C9307
:10598000CE018B529F4FFC01808191810197F1F7ED
:105990009E012B523F4FD9018D939C930000CE0165
:1059A0008D529F4F9E012D523F4FF9012081318131
:1059B00021503109DC0111963C932E93CE018D527A
:1059C0009F4FFC0180819181009791F63AC08E0132
:1059D0000D521F4FCE0181539F4FDC016D917D9180
:1059E0008D919C910E94B631C95CDD4F68837983AB
:1059F0008A839B83C753D240C95CDD4F88819981DC
:105A0000C753D240F80191838083CE0189529F4FC2
:105A10009E012D523F4FD9012D913C91FC013183C4
:105A20002083CE0189529F4FDC018D919C9111976B
:105A30000197F1F79E0129523F4FF901918380832D
:105A400000008B819C8101969C838B838B819C8140
:105A50008A30910509F00CF4BBCD80E090E00E9403
:105A6000E2161E821D8242C280E290E0DC018C912F
:105A7000882F90E084709927009709F426C18091BF
:105A8000360290913702009709F01FC180E090E044
:105A90000E944E1680E090E00E9429169E01275237
:105AA0003F4F80E090E0A0EAB1E4F9018083918368
:105AB000A283B3838E0103521F4FCE0187529F4FA3
:105AC00020E030E04AE755E4DC016D917D918D9155
:105AD0009C910E949C32C55CDD4F688379838A83E8
